{
  "contractName": "VintageShop",
  "abi": [
    {
      "inputs": [],
      "stateMutability": "nonpayable",
      "type": "constructor"
    },
    {
      "anonymous": false,
      "inputs": [
        {
          "indexed": true,
          "internalType": "address",
          "name": "owner",
          "type": "address"
        },
        {
          "indexed": true,
          "internalType": "address",
          "name": "approved",
          "type": "address"
        },
        {
          "indexed": true,
          "internalType": "uint256",
          "name": "tokenId",
          "type": "uint256"
        }
      ],
      "name": "Approval",
      "type": "event"
    },
    {
      "anonymous": false,
      "inputs": [
        {
          "indexed": true,
          "internalType": "address",
          "name": "owner",
          "type": "address"
        },
        {
          "indexed": true,
          "internalType": "address",
          "name": "operator",
          "type": "address"
        },
        {
          "indexed": false,
          "internalType": "bool",
          "name": "approved",
          "type": "bool"
        }
      ],
      "name": "ApprovalForAll",
      "type": "event"
    },
    {
      "anonymous": false,
      "inputs": [
        {
          "indexed": false,
          "internalType": "string",
          "name": "message",
          "type": "string"
        },
        {
          "indexed": false,
          "internalType": "uint256",
          "name": "_carId",
          "type": "uint256"
        },
        {
          "indexed": false,
          "internalType": "address",
          "name": "seller",
          "type": "address"
        }
      ],
      "name": "ForSale",
      "type": "event"
    },
    {
      "anonymous": false,
      "inputs": [
        {
          "indexed": false,
          "internalType": "string",
          "name": "message",
          "type": "string"
        },
        {
          "indexed": false,
          "internalType": "uint256",
          "name": "_tokenId",
          "type": "uint256"
        }
      ],
      "name": "Minted",
      "type": "event"
    },
    {
      "anonymous": false,
      "inputs": [
        {
          "indexed": true,
          "internalType": "address",
          "name": "previousOwner",
          "type": "address"
        },
        {
          "indexed": true,
          "internalType": "address",
          "name": "newOwner",
          "type": "address"
        }
      ],
      "name": "OwnershipTransferred",
      "type": "event"
    },
    {
      "anonymous": false,
      "inputs": [
        {
          "indexed": false,
          "internalType": "address",
          "name": "buyer",
          "type": "address"
        },
        {
          "indexed": false,
          "internalType": "uint256",
          "name": "_tokenId",
          "type": "uint256"
        },
        {
          "indexed": false,
          "internalType": "uint256",
          "name": "amount",
          "type": "uint256"
        },
        {
          "indexed": false,
          "internalType": "uint256",
          "name": "balance",
          "type": "uint256"
        }
      ],
      "name": "Received",
      "type": "event"
    },
    {
      "anonymous": false,
      "inputs": [
        {
          "indexed": false,
          "internalType": "string",
          "name": "message",
          "type": "string"
        },
        {
          "indexed": false,
          "internalType": "address",
          "name": "_userAddress",
          "type": "address"
        }
      ],
      "name": "SellerVerified",
      "type": "event"
    },
    {
      "anonymous": false,
      "inputs": [
        {
          "indexed": false,
          "internalType": "address",
          "name": "seller",
          "type": "address"
        },
        {
          "indexed": false,
          "internalType": "uint256",
          "name": "amount",
          "type": "uint256"
        },
        {
          "indexed": false,
          "internalType": "uint256",
          "name": "balance",
          "type": "uint256"
        }
      ],
      "name": "Sent",
      "type": "event"
    },
    {
      "anonymous": false,
      "inputs": [
        {
          "indexed": false,
          "internalType": "string",
          "name": "message",
          "type": "string"
        },
        {
          "indexed": false,
          "internalType": "uint256",
          "name": "_carId",
          "type": "uint256"
        },
        {
          "indexed": false,
          "internalType": "address",
          "name": "buyer",
          "type": "address"
        }
      ],
      "name": "Sold",
      "type": "event"
    },
    {
      "anonymous": false,
      "inputs": [
        {
          "indexed": true,
          "internalType": "address",
          "name": "from",
          "type": "address"
        },
        {
          "indexed": true,
          "internalType": "address",
          "name": "to",
          "type": "address"
        },
        {
          "indexed": true,
          "internalType": "uint256",
          "name": "tokenId",
          "type": "uint256"
        }
      ],
      "name": "Transfer",
      "type": "event"
    },
    {
      "anonymous": false,
      "inputs": [
        {
          "indexed": false,
          "internalType": "string",
          "name": "message",
          "type": "string"
        },
        {
          "indexed": false,
          "internalType": "address",
          "name": "_userAddress",
          "type": "address"
        },
        {
          "indexed": false,
          "internalType": "bool",
          "name": "_isSeller",
          "type": "bool"
        }
      ],
      "name": "UserCreated",
      "type": "event"
    },
    {
      "inputs": [],
      "name": "admin",
      "outputs": [
        {
          "internalType": "address payable",
          "name": "",
          "type": "address"
        }
      ],
      "stateMutability": "view",
      "type": "function",
      "constant": true
    },
    {
      "inputs": [
        {
          "internalType": "address",
          "name": "to",
          "type": "address"
        },
        {
          "internalType": "uint256",
          "name": "tokenId",
          "type": "uint256"
        }
      ],
      "name": "approve",
      "outputs": [],
      "stateMutability": "nonpayable",
      "type": "function"
    },
    {
      "inputs": [
        {
          "internalType": "address",
          "name": "owner",
          "type": "address"
        }
      ],
      "name": "balanceOf",
      "outputs": [
        {
          "internalType": "uint256",
          "name": "",
          "type": "uint256"
        }
      ],
      "stateMutability": "view",
      "type": "function",
      "constant": true
    },
    {
      "inputs": [
        {
          "internalType": "address",
          "name": "",
          "type": "address"
        },
        {
          "internalType": "uint256",
          "name": "",
          "type": "uint256"
        }
      ],
      "name": "carDatabase",
      "outputs": [
        {
          "internalType": "uint256",
          "name": "tokenId",
          "type": "uint256"
        },
        {
          "internalType": "uint256",
          "name": "carId",
          "type": "uint256"
        },
        {
          "internalType": "address payable",
          "name": "owner",
          "type": "address"
        },
        {
          "internalType": "string",
          "name": "name",
          "type": "string"
        },
        {
          "internalType": "string",
          "name": "model",
          "type": "string"
        },
        {
          "internalType": "uint256",
          "name": "price",
          "type": "uint256"
        },
        {
          "internalType": "enum VintageShop.State",
          "name": "state",
          "type": "uint8"
        },
        {
          "internalType": "uint120",
          "name": "purchasedCount",
          "type": "uint120"
        }
      ],
      "stateMutability": "view",
      "type": "function",
      "constant": true
    },
    {
      "inputs": [
        {
          "internalType": "uint256",
          "name": "",
          "type": "uint256"
        }
      ],
      "name": "carSale",
      "outputs": [
        {
          "internalType": "uint256",
          "name": "tokenId",
          "type": "uint256"
        },
        {
          "internalType": "uint256",
          "name": "carId",
          "type": "uint256"
        },
        {
          "internalType": "address payable",
          "name": "owner",
          "type": "address"
        },
        {
          "internalType": "string",
          "name": "name",
          "type": "string"
        },
        {
          "internalType": "string",
          "name": "model",
          "type": "string"
        },
        {
          "internalType": "uint256",
          "name": "price",
          "type": "uint256"
        },
        {
          "internalType": "enum VintageShop.State",
          "name": "state",
          "type": "uint8"
        },
        {
          "internalType": "uint120",
          "name": "purchasedCount",
          "type": "uint120"
        }
      ],
      "stateMutability": "view",
      "type": "function",
      "constant": true
    },
    {
      "inputs": [
        {
          "internalType": "uint256",
          "name": "",
          "type": "uint256"
        }
      ],
      "name": "carToken",
      "outputs": [
        {
          "internalType": "uint256",
          "name": "tokenId",
          "type": "uint256"
        },
        {
          "internalType": "uint256",
          "name": "carId",
          "type": "uint256"
        },
        {
          "internalType": "address payable",
          "name": "owner",
          "type": "address"
        },
        {
          "internalType": "string",
          "name": "name",
          "type": "string"
        },
        {
          "internalType": "string",
          "name": "model",
          "type": "string"
        },
        {
          "internalType": "uint256",
          "name": "price",
          "type": "uint256"
        },
        {
          "internalType": "enum VintageShop.State",
          "name": "state",
          "type": "uint8"
        },
        {
          "internalType": "uint120",
          "name": "purchasedCount",
          "type": "uint120"
        }
      ],
      "stateMutability": "view",
      "type": "function",
      "constant": true
    },
    {
      "inputs": [
        {
          "internalType": "uint256",
          "name": "tokenId",
          "type": "uint256"
        }
      ],
      "name": "getApproved",
      "outputs": [
        {
          "internalType": "address",
          "name": "",
          "type": "address"
        }
      ],
      "stateMutability": "view",
      "type": "function",
      "constant": true
    },
    {
      "inputs": [
        {
          "internalType": "address",
          "name": "owner",
          "type": "address"
        },
        {
          "internalType": "address",
          "name": "operator",
          "type": "address"
        }
      ],
      "name": "isApprovedForAll",
      "outputs": [
        {
          "internalType": "bool",
          "name": "",
          "type": "bool"
        }
      ],
      "stateMutability": "view",
      "type": "function",
      "constant": true
    },
    {
      "inputs": [],
      "name": "isOwner",
      "outputs": [
        {
          "internalType": "bool",
          "name": "",
          "type": "bool"
        }
      ],
      "stateMutability": "view",
      "type": "function",
      "constant": true
    },
    {
      "inputs": [],
      "name": "name",
      "outputs": [
        {
          "internalType": "string",
          "name": "",
          "type": "string"
        }
      ],
      "stateMutability": "view",
      "type": "function",
      "constant": true
    },
    {
      "inputs": [],
      "name": "nftAddress",
      "outputs": [
        {
          "internalType": "contract ERC721",
          "name": "",
          "type": "address"
        }
      ],
      "stateMutability": "view",
      "type": "function",
      "constant": true
    },
    {
      "inputs": [],
      "name": "owner",
      "outputs": [
        {
          "internalType": "address",
          "name": "",
          "type": "address"
        }
      ],
      "stateMutability": "view",
      "type": "function",
      "constant": true
    },
    {
      "inputs": [
        {
          "internalType": "uint256",
          "name": "tokenId",
          "type": "uint256"
        }
      ],
      "name": "ownerOf",
      "outputs": [
        {
          "internalType": "address",
          "name": "",
          "type": "address"
        }
      ],
      "stateMutability": "view",
      "type": "function",
      "constant": true
    },
    {
      "inputs": [],
      "name": "renounceOwnership",
      "outputs": [],
      "stateMutability": "nonpayable",
      "type": "function"
    },
    {
      "inputs": [
        {
          "internalType": "address",
          "name": "from",
          "type": "address"
        },
        {
          "internalType": "address",
          "name": "to",
          "type": "address"
        },
        {
          "internalType": "uint256",
          "name": "tokenId",
          "type": "uint256"
        }
      ],
      "name": "safeTransferFrom",
      "outputs": [],
      "stateMutability": "nonpayable",
      "type": "function"
    },
    {
      "inputs": [
        {
          "internalType": "address",
          "name": "from",
          "type": "address"
        },
        {
          "internalType": "address",
          "name": "to",
          "type": "address"
        },
        {
          "internalType": "uint256",
          "name": "tokenId",
          "type": "uint256"
        },
        {
          "internalType": "bytes",
          "name": "_data",
          "type": "bytes"
        }
      ],
      "name": "safeTransferFrom",
      "outputs": [],
      "stateMutability": "nonpayable",
      "type": "function"
    },
    {
      "inputs": [
        {
          "internalType": "address",
          "name": "operator",
          "type": "address"
        },
        {
          "internalType": "bool",
          "name": "approved",
          "type": "bool"
        }
      ],
      "name": "setApprovalForAll",
      "outputs": [],
      "stateMutability": "nonpayable",
      "type": "function"
    },
    {
      "inputs": [
        {
          "internalType": "bytes4",
          "name": "interfaceId",
          "type": "bytes4"
        }
      ],
      "name": "supportsInterface",
      "outputs": [
        {
          "internalType": "bool",
          "name": "",
          "type": "bool"
        }
      ],
      "stateMutability": "view",
      "type": "function",
      "constant": true
    },
    {
      "inputs": [],
      "name": "symbol",
      "outputs": [
        {
          "internalType": "string",
          "name": "",
          "type": "string"
        }
      ],
      "stateMutability": "view",
      "type": "function",
      "constant": true
    },
    {
      "inputs": [
        {
          "internalType": "uint256",
          "name": "tokenId",
          "type": "uint256"
        }
      ],
      "name": "tokenURI",
      "outputs": [
        {
          "internalType": "string",
          "name": "",
          "type": "string"
        }
      ],
      "stateMutability": "view",
      "type": "function",
      "constant": true
    },
    {
      "inputs": [
        {
          "internalType": "address",
          "name": "newOwner",
          "type": "address"
        }
      ],
      "name": "transferOwnership",
      "outputs": [],
      "stateMutability": "nonpayable",
      "type": "function"
    },
    {
      "inputs": [
        {
          "internalType": "bool",
          "name": "_isSeller",
          "type": "bool"
        }
      ],
      "name": "addUser",
      "outputs": [
        {
          "internalType": "bool",
          "name": "",
          "type": "bool"
        }
      ],
      "stateMutability": "nonpayable",
      "type": "function"
    },
    {
      "inputs": [
        {
          "internalType": "address",
          "name": "_userAddress",
          "type": "address"
        }
      ],
      "name": "assignAsSeller",
      "outputs": [],
      "stateMutability": "nonpayable",
      "type": "function"
    },
    {
      "inputs": [
        {
          "internalType": "address",
          "name": "recipient",
          "type": "address"
        },
        {
          "internalType": "string",
          "name": "hash",
          "type": "string"
        },
        {
          "internalType": "string",
          "name": "metadata",
          "type": "string"
        }
      ],
      "name": "awardItem",
      "outputs": [
        {
          "internalType": "uint256",
          "name": "",
          "type": "uint256"
        }
      ],
      "stateMutability": "nonpayable",
      "type": "function"
    },
    {
      "inputs": [
        {
          "internalType": "uint256",
          "name": "_tokenId",
          "type": "uint256"
        },
        {
          "internalType": "uint256",
          "name": "price",
          "type": "uint256"
        },
        {
          "internalType": "string",
          "name": "name",
          "type": "string"
        },
        {
          "internalType": "string",
          "name": "model",
          "type": "string"
        }
      ],
      "name": "addNFT",
      "outputs": [],
      "stateMutability": "nonpayable",
      "type": "function"
    },
    {
      "inputs": [
        {
          "internalType": "address",
          "name": "from",
          "type": "address"
        },
        {
          "internalType": "address",
          "name": "to",
          "type": "address"
        },
        {
          "internalType": "uint256",
          "name": "tokenId",
          "type": "uint256"
        }
      ],
      "name": "transferFrom",
      "outputs": [],
      "stateMutability": "nonpayable",
      "type": "function"
    },
    {
      "inputs": [
        {
          "internalType": "uint256",
          "name": "tokenId",
          "type": "uint256"
        }
      ],
      "name": "purchaseNFT",
      "outputs": [],
      "stateMutability": "payable",
      "type": "function",
      "payable": true
    },
    {
      "inputs": [
        {
          "internalType": "address payable",
          "name": "_seller",
          "type": "address"
        },
        {
          "internalType": "uint256",
          "name": "_amount",
          "type": "uint256"
        }
      ],
      "name": "sendTo",
      "outputs": [],
      "stateMutability": "nonpayable",
      "type": "function"
    },
    {
      "inputs": [],
      "name": "getCarForSale",
      "outputs": [
        {
          "components": [
            {
              "internalType": "uint256",
              "name": "tokenId",
              "type": "uint256"
            },
            {
              "internalType": "uint256",
              "name": "carId",
              "type": "uint256"
            },
            {
              "internalType": "address payable",
              "name": "owner",
              "type": "address"
            },
            {
              "internalType": "string",
              "name": "name",
              "type": "string"
            },
            {
              "internalType": "string",
              "name": "model",
              "type": "string"
            },
            {
              "internalType": "uint256",
              "name": "price",
              "type": "uint256"
            },
            {
              "internalType": "enum VintageShop.State",
              "name": "state",
              "type": "uint8"
            },
            {
              "internalType": "uint120",
              "name": "purchasedCount",
              "type": "uint120"
            }
          ],
          "internalType": "struct VintageShop.Car[]",
          "name": "",
          "type": "tuple[]"
        }
      ],
      "stateMutability": "view",
      "type": "function",
      "constant": true
    },
    {
      "inputs": [
        {
          "internalType": "address",
          "name": "_user",
          "type": "address"
        }
      ],
      "name": "getPurchasedTokens",
      "outputs": [
        {
          "internalType": "uint256[]",
          "name": "_boughtTokens",
          "type": "uint256[]"
        }
      ],
      "stateMutability": "view",
      "type": "function",
      "constant": true
    },
    {
      "inputs": [
        {
          "internalType": "address",
          "name": "_user",
          "type": "address"
        }
      ],
      "name": "getOwnedTokens",
      "outputs": [
        {
          "internalType": "uint256[]",
          "name": "_ownedTokens",
          "type": "uint256[]"
        }
      ],
      "stateMutability": "view",
      "type": "function",
      "constant": true
    },
    {
      "inputs": [],
      "name": "getUser",
      "outputs": [
        {
          "internalType": "bool",
          "name": "_isAuth",
          "type": "bool"
        },
        {
          "internalType": "bool",
          "name": "_isAdmin",
          "type": "bool"
        },
        {
          "internalType": "bool",
          "name": "_isSeller",
          "type": "bool"
        }
      ],
      "stateMutability": "view",
      "type": "function",
      "constant": true
    }
  ],
  "bytecode": "0x60806040523480156200001157600080fd5b506040518060400160405280600f81526020017f56696e74616765436172417373657400000000000000000000000000000000008152506040518060400160405280600381526020017f5643410000000000000000000000000000000000000000000000000000000000815250816000908051906020019062000096929190620001f0565b508060019080519060200190620000af929190620001f0565b50505033600760006101000a81548173ffffffffffffffffffffffffffffffffffffffff021916908373ffffffffffffffffffffffffffffffffffffffff160217905550600760009054906101000a900473ffffffffffffffffffffffffffffffffffffffff1673ffffffffffffffffffffffffffffffffffffffff16600073ffffffffffffffffffffffffffffffffffffffff167f8be0079c531659141344cd1fd0a4f28419497f9722a3daafe3b4186f6b6457e060405160405180910390a362000180620001c660201b60201c565b600a60006101000a81548173ffffffffffffffffffffffffffffffffffffffff021916908373ffffffffffffffffffffffffffffffffffffffff16021790555062000305565b6000600760009054906101000a900473ffffffffffffffffffffffffffffffffffffffff16905090565b828054620001fe90620002cf565b90600052602060002090601f0160209004810192826200022257600085556200026e565b82601f106200023d57805160ff19168380011785556200026e565b828001600101855582156200026e579182015b828111156200026d57825182559160200191906001019062000250565b5b5090506200027d919062000281565b5090565b5b808211156200029c57600081600090555060010162000282565b5090565b7f4e487b7100000000000000000000000000000000000000000000000000000000600052602260045260246000fd5b60006002820490506001821680620002e857607f821691505b60208210811415620002ff57620002fe620002a0565b5b50919050565b6156e080620003156000396000f3fe6080604052600436106101e35760003560e01c8063832880e711610102578063b88d4fde11610095578063e985e9c511610064578063e985e9c51461075a578063ee316b6c14610797578063f2fde38b146107c0578063f851a440146107e9576101e3565b8063b88d4fde1461067a578063c35b28b2146106a3578063c87b56dd146106e0578063d9d616551461071d576101e3565b806395d89b41116100d157806395d89b41146105d45780639e1a00aa146105ff578063a22cb46514610628578063b546b15514610651576101e3565b8063832880e7146105145780638bfaf101146105415780638da5cb5b1461057e5780638f32d59b146105a9576101e3565b806345a308b41161017a57806370a082311161014957806370a0823114610451578063715018a61461048e57806374f909bb146104a557806376de94e6146104d0576101e3565b806345a308b41461036857806354ed08c8146103ac5780635bf8633a146103e95780636352211e14610414576101e3565b8063150bde03116101b6578063150bde03146102b65780631e3e222b146102d257806323b872dd1461031657806342842e0e1461033f576101e3565b806301ffc9a7146101e857806306fdde0314610225578063081812fc14610250578063095ea7b31461028d575b600080fd5b3480156101f457600080fd5b5061020f600480360381019061020a9190613843565b610814565b60405161021c919061388b565b60405180910390f35b34801561023157600080fd5b5061023a6108f6565b604051610247919061393f565b60405180910390f35b34801561025c57600080fd5b5061027760048036038101906102729190613997565b610988565b6040516102849190613a05565b60405180910390f35b34801561029957600080fd5b506102b460048036038101906102af9190613a4c565b610a0d565b005b6102d060048036038101906102cb9190613997565b610b25565b005b3480156102de57600080fd5b506102f960048036038101906102f49190613997565b610d96565b60405161030d989796959493929190613b5d565b60405180910390f35b34801561032257600080fd5b5061033d60048036038101906103389190613be9565b610f36565b005b34801561034b57600080fd5b5061036660048036038101906103619190613be9565b610f8f565b005b34801561037457600080fd5b5061038f600480360381019061038a9190613997565b610faf565b6040516103a3989796959493929190613b5d565b60405180910390f35b3480156103b857600080fd5b506103d360048036038101906103ce9190613c3c565b61114f565b6040516103e09190613d27565b60405180910390f35b3480156103f557600080fd5b506103fe61127d565b60405161040b9190613da8565b60405180910390f35b34801561042057600080fd5b5061043b60048036038101906104369190613997565b6112a3565b6040516104489190613a05565b60405180910390f35b34801561045d57600080fd5b5061047860048036038101906104739190613c3c565b611355565b6040516104859190613dc3565b60405180910390f35b34801561049a57600080fd5b506104a361140d565b005b3480156104b157600080fd5b506104ba6114df565b6040516104c79190613fce565b60405180910390f35b3480156104dc57600080fd5b506104f760048036038101906104f29190613a4c565b6114e4565b60405161050b989796959493929190613b5d565b60405180910390f35b34801561052057600080fd5b506105296116a1565b60405161053893929190613ff0565b60405180910390f35b34801561054d57600080fd5b506105686004803603810190610563919061415c565b61184b565b6040516105759190613dc3565b60405180910390f35b34801561058a57600080fd5b50610593611a18565b6040516105a09190613a05565b60405180910390f35b3480156105b557600080fd5b506105be611a42565b6040516105cb919061388b565b60405180910390f35b3480156105e057600080fd5b506105e9611a9a565b6040516105f6919061393f565b60405180910390f35b34801561060b57600080fd5b5061062660048036038101906106219190614213565b611b2c565b005b34801561063457600080fd5b5061064f600480360381019061064a919061427f565b611c4e565b005b34801561065d57600080fd5b50610678600480360381019061067391906142bf565b611dcf565b005b34801561068657600080fd5b506106a1600480360381019061069c91906143ff565b6122d7565b005b3480156106af57600080fd5b506106ca60048036038101906106c59190614482565b612339565b6040516106d7919061388b565b60405180910390f35b3480156106ec57600080fd5b5061070760048036038101906107029190613997565b612542565b604051610714919061393f565b60405180910390f35b34801561072957600080fd5b50610744600480360381019061073f9190613c3c565b612694565b6040516107519190613d27565b60405180910390f35b34801561076657600080fd5b50610781600480360381019061077c91906144af565b6127c2565b60405161078e919061388b565b60405180910390f35b3480156107a357600080fd5b506107be60048036038101906107b99190613c3c565b612856565b005b3480156107cc57600080fd5b506107e760048036038101906107e29190613c3c565b612a18565b005b3480156107f557600080fd5b506107fe612a35565b60405161080b91906144ef565b60405180910390f35b60007f80ac58cd000000000000000000000000000000000000000000000000000000007bffffffffffffffffffffffffffffffffffffffffffffffffffffffff1916827bffffffffffffffffffffffffffffffffffffffffffffffffffffffff191614806108df57507f5b5e139f000000000000000000000000000000000000000000000000000000007bffffffffffffffffffffffffffffffffffffffffffffffffffffffff1916827bffffffffffffffffffffffffffffffffffffffffffffffffffffffff1916145b806108ef57506108ee82612a5b565b5b9050919050565b60606000805461090590614539565b80601f016020809104026020016040519081016040528092919081815260200182805461093190614539565b801561097e5780601f106109535761010080835404028352916020019161097e565b820191906000526020600020905b81548152906001019060200180831161096157829003601f168201915b5050505050905090565b600061099382612ac5565b6109d2576040517f08c379a00000000000000000000000000000000000000000000000000000000081526004016109c9906145dd565b60405180910390fd5b6004600083815260200190815260200160002060009054906101000a900473ffffffffffffffffffffffffffffffffffffffff169050919050565b6000610a18826112a3565b90508073ffffffffffffffffffffffffffffffffffffffff168373ffffffffffffffffffffffffffffffffffffffff161415610a89576040517f08c379a0000000000000000000000000000000000000000000000000000000008152600401610a809061466f565b60405180910390fd5b8073ffffffffffffffffffffffffffffffffffffffff16610aa8612b31565b73ffffffffffffffffffffffffffffffffffffffff161480610ad75750610ad681610ad1612b31565b6127c2565b5b610b16576040517f08c379a0000000000000000000000000000000000000000000000000000000008152600401610b0d90614701565b60405180910390fd5b610b208383612b39565b505050565b33600a60009054906101000a900473ffffffffffffffffffffffffffffffffffffffff1673ffffffffffffffffffffffffffffffffffffffff168173ffffffffffffffffffffffffffffffffffffffff161480610bd457506001600e60008373ffffffffffffffffffffffffffffffffffffffff1673ffffffffffffffffffffffffffffffffffffffff16815260200190815260200160002060000160169054906101000a900460ff1660ff16145b610c13576040517f08c379a0000000000000000000000000000000000000000000000000000000008152600401610c0a9061476d565b60405180910390fd5b816000610c1f826112a3565b905060006013600084815260200190815260200160002060050154905080341015610c4957600080fd5b846000610c55876112a3565b9050610c62813389610f36565b601060003373ffffffffffffffffffffffffffffffffffffffff1673ffffffffffffffffffffffffffffffffffffffff1681526020019081526020016000208790806001815401808255809150506001900390600052602060002001600090919091909150557f02d08db2db312fc60b41a046c46a7772a6c2dcdca0c32a9d3423c6dcbde693e933883447604051610cfd949392919061478d565b60405180910390a1506000610d11826112a3565b905060006013600084815260200190815260200160002060050154905060008134610d3c9190614801565b905060003390508073ffffffffffffffffffffffffffffffffffffffff166108fc839081150290604051600060405180830381858888f19350505050158015610d89573d6000803e3d6000fd5b5050505050505050505050565b60136020528060005260406000206000915090508060000154908060010154908060020160009054906101000a900473ffffffffffffffffffffffffffffffffffffffff1690806003018054610deb90614539565b80601f0160208091040260200160405190810160405280929190818152602001828054610e1790614539565b8015610e645780601f10610e3957610100808354040283529160200191610e64565b820191906000526020600020905b815481529060010190602001808311610e4757829003601f168201915b505050505090806004018054610e7990614539565b80601f0160208091040260200160405190810160405280929190818152602001828054610ea590614539565b8015610ef25780601f10610ec757610100808354040283529160200191610ef2565b820191906000526020600020905b815481529060010190602001808311610ed557829003601f168201915b5050505050908060050154908060060160009054906101000a900460ff16908060060160019054906101000a90046effffffffffffffffffffffffffffff16905088565b610f403082612bf2565b610f7f576040517f08c379a0000000000000000000000000000000000000000000000000000000008152600401610f76906148a7565b60405180910390fd5b610f8a838383612cd0565b505050565b610faa838383604051806020016040528060008152506122d7565b505050565b60146020528060005260406000206000915090508060000154908060010154908060020160009054906101000a900473ffffffffffffffffffffffffffffffffffffffff169080600301805461100490614539565b80601f016020809104026020016040519081016040528092919081815260200182805461103090614539565b801561107d5780601f106110525761010080835404028352916020019161107d565b820191906000526020600020905b81548152906001019060200180831161106057829003601f168201915b50505050509080600401805461109290614539565b80601f01602080910402602001604051908101604052809291908181526020018280546110be90614539565b801561110b5780601f106110e05761010080835404028352916020019161110b565b820191906000526020600020905b8154815290600101906020018083116110ee57829003601f168201915b5050505050908060050154908060060160009054906101000a900460ff16908060060160019054906101000a90046effffffffffffffffffffffffffffff16905088565b6060816001600e60008373ffffffffffffffffffffffffffffffffffffffff1673ffffffffffffffffffffffffffffffffffffffff16815260200190815260200160002060000160169054906101000a900460ff1660ff16146111e7576040517f08c379a00000000000000000000000000000000000000000000000000000000081526004016111de9061476d565b60405180910390fd5b601060008473ffffffffffffffffffffffffffffffffffffffff1673ffffffffffffffffffffffffffffffffffffffff16815260200190815260200160002080548060200260200160405190810160405280929190818152602001828054801561127057602002820191906000526020600020905b81548152602001906001019080831161125c575b5050505050915050919050565b600960009054906101000a900473ffffffffffffffffffffffffffffffffffffffff1681565b6000806002600084815260200190815260200160002060009054906101000a900473ffffffffffffffffffffffffffffffffffffffff169050600073ffffffffffffffffffffffffffffffffffffffff168173ffffffffffffffffffffffffffffffffffffffff16141561134c576040517f08c379a000000000000000000000000000000000000000000000000000000000815260040161134390614939565b60405180910390fd5b80915050919050565b60008073ffffffffffffffffffffffffffffffffffffffff168273ffffffffffffffffffffffffffffffffffffffff1614156113c6576040517f08c379a00000000000000000000000000000000000000000000000000000000081526004016113bd906149cb565b60405180910390fd5b600360008373ffffffffffffffffffffffffffffffffffffffff1673ffffffffffffffffffffffffffffffffffffffff168152602001908152602001600020549050919050565b611415611a42565b61141e57600080fd5b600073ffffffffffffffffffffffffffffffffffffffff16600760009054906101000a900473ffffffffffffffffffffffffffffffffffffffff1673ffffffffffffffffffffffffffffffffffffffff167f8be0079c531659141344cd1fd0a4f28419497f9722a3daafe3b4186f6b6457e060405160405180910390a36000600760006101000a81548173ffffffffffffffffffffffffffffffffffffffff021916908373ffffffffffffffffffffffffffffffffffffffff160217905550565b606090565b6012602052816000526040600020818154811061150057600080fd5b9060005260206000209060070201600091509150508060000154908060010154908060020160009054906101000a900473ffffffffffffffffffffffffffffffffffffffff169080600301805461155690614539565b80601f016020809104026020016040519081016040528092919081815260200182805461158290614539565b80156115cf5780601f106115a4576101008083540402835291602001916115cf565b820191906000526020600020905b8154815290600101906020018083116115b257829003601f168201915b5050505050908060040180546115e490614539565b80601f016020809104026020016040519081016040528092919081815260200182805461161090614539565b801561165d5780601f106116325761010080835404028352916020019161165d565b820191906000526020600020905b81548152906001019060200180831161164057829003601f168201915b5050505050908060050154908060060160009054906101000a900460ff16908060060160019054906101000a90046effffffffffffffffffffffffffffff16905088565b600080600033600a60009054906101000a900473ffffffffffffffffffffffffffffffffffffffff1673ffffffffffffffffffffffffffffffffffffffff168173ffffffffffffffffffffffffffffffffffffffff16148061175557506001600e60008373ffffffffffffffffffffffffffffffffffffffff1673ffffffffffffffffffffffffffffffffffffffff16815260200190815260200160002060000160169054906101000a900460ff1660ff16145b611794576040517f08c379a000000000000000000000000000000000000000000000000000000000815260040161178b9061476d565b60405180910390fd5b60019350600a60009054906101000a900473ffffffffffffffffffffffffffffffffffffffff1673ffffffffffffffffffffffffffffffffffffffff163373ffffffffffffffffffffffffffffffffffffffff1614156117f357600192505b600e60003373ffffffffffffffffffffffffffffffffffffffff1673ffffffffffffffffffffffffffffffffffffffff16815260200190815260200160002060000160149054906101000a900460ff16915050909192565b600083600e60008273ffffffffffffffffffffffffffffffffffffffff1673ffffffffffffffffffffffffffffffffffffffff16815260200190815260200160002060000160149054906101000a900460ff1680156118f65750600e60008273ffffffffffffffffffffffffffffffffffffffff1673ffffffffffffffffffffffffffffffffffffffff16815260200190815260200160002060000160159054906101000a900460ff165b611935576040517f08c379a000000000000000000000000000000000000000000000000000000000815260040161192c90614a5d565b60405180910390fd5b6001600b856040516119479190614ab9565b908152602001604051809103902060009054906101000a900460ff1660ff16141561197157600080fd5b6001600b856040516119839190614ab9565b908152602001604051809103902060006101000a81548160ff021916908360ff1602179055506119b36008612f2c565b60006119bf6008612f42565b90506119cb8682612f50565b6119d5818561311e565b7f84fedafd9490d60ff476d007409fc8709ce33b506d702cddbf1e37b1dc5fc2ef81604051611a049190614b1c565b60405180910390a180925050509392505050565b6000600760009054906101000a900473ffffffffffffffffffffffffffffffffffffffff16905090565b6000600760009054906101000a900473ffffffffffffffffffffffffffffffffffffffff1673ffffffffffffffffffffffffffffffffffffffff163373ffffffffffffffffffffffffffffffffffffffff1614905090565b606060018054611aa990614539565b80601f0160208091040260200160405190810160405280929190818152602001828054611ad590614539565b8015611b225780601f10611af757610100808354040283529160200191611b22565b820191906000526020600020905b815481529060010190602001808311611b0557829003601f168201915b5050505050905090565b611b34611a42565b611b3d57600080fd5b600073ffffffffffffffffffffffffffffffffffffffff168273ffffffffffffffffffffffffffffffffffffffff1614158015611ba657503073ffffffffffffffffffffffffffffffffffffffff168273ffffffffffffffffffffffffffffffffffffffff1614155b611baf57600080fd5b600081118015611bbf5750478111155b611bc857600080fd5b8173ffffffffffffffffffffffffffffffffffffffff166108fc829081150290604051600060405180830381858888f19350505050158015611c0e573d6000803e3d6000fd5b507f6356739d963da01dc3533acba7203430fcc14f2175d48a8dd0973d7db49c785e828247604051611c4293929190614b6b565b60405180910390a15050565b611c56612b31565b73ffffffffffffffffffffffffffffffffffffffff168273ffffffffffffffffffffffffffffffffffffffff161415611cc4576040517f08c379a0000000000000000000000000000000000000000000000000000000008152600401611cbb90614bee565b60405180910390fd5b8060056000611cd1612b31565b73ffffffffffffffffffffffffffffffffffffffff1673ffffffffffffffffffffffffffffffffffffffff16815260200190815260200160002060008473ffffffffffffffffffffffffffffffffffffffff1673ffffffffffffffffffffffffffffffffffffffff16815260200190815260200160002060006101000a81548160ff0219169083151502179055508173ffffffffffffffffffffffffffffffffffffffff16611d7e612b31565b73ffffffffffffffffffffffffffffffffffffffff167f17307eab39ab6107e8899845ad3d59bd9653f200f220920489ca2b5937696c3183604051611dc3919061388b565b60405180910390a35050565b33600e60008273ffffffffffffffffffffffffffffffffffffffff1673ffffffffffffffffffffffffffffffffffffffff16815260200190815260200160002060000160149054906101000a900460ff168015611e785750600e60008273ffffffffffffffffffffffffffffffffffffffff1673ffffffffffffffffffffffffffffffffffffffff16815260200190815260200160002060000160159054906101000a900460ff165b611eb7576040517f08c379a0000000000000000000000000000000000000000000000000000000008152600401611eae90614a5d565b60405180910390fd5b843373ffffffffffffffffffffffffffffffffffffffff16611ed8826112a3565b73ffffffffffffffffffffffffffffffffffffffff1614611ef857600080fd5b3373ffffffffffffffffffffffffffffffffffffffff16611f18876112a3565b73ffffffffffffffffffffffffffffffffffffffff1614611f6e576040517f08c379a0000000000000000000000000000000000000000000000000000000008152600401611f6590614c80565b60405180910390fd5b611f79306001611c4e565b601160003373ffffffffffffffffffffffffffffffffffffffff1673ffffffffffffffffffffffffffffffffffffffff16815260200190815260200160002086908060018154018082558091505060019003906000526020600020016000909190919091505560006001601260003373ffffffffffffffffffffffffffffffffffffffff1673ffffffffffffffffffffffffffffffffffffffff168152602001908152602001600020805490506120309190614ca0565b905061203a6136b6565b8781600001818152505081816020018181525050868160a001818152505085816060018190525084816080018190525060008160c00190600381111561208357612082613abc565b5b9081600381111561209757612096613abc565b5b8152505033816040019073ffffffffffffffffffffffffffffffffffffffff16908173ffffffffffffffffffffffffffffffffffffffff168152505060008160e001906effffffffffffffffffffffffffffff1690816effffffffffffffffffffffffffffff1681525050601260003373ffffffffffffffffffffffffffffffffffffffff1673ffffffffffffffffffffffffffffffffffffffff168152602001908152602001600020819080600181540180825580915050600190039060005260206000209060070201600090919091909150600082015181600001556020820151816001015560408201518160020160006101000a81548173ffffffffffffffffffffffffffffffffffffffff021916908373ffffffffffffffffffffffffffffffffffffffff16021790555060608201518160030190805190602001906121e2929190613734565b5060808201518160040190805190602001906121ff929190613734565b5060a0820151816005015560c08201518160060160006101000a81548160ff0219169083600381111561223557612234613abc565b5b021790555060e08201518160060160016101000a8154816effffffffffffffffffffffffffffff02191690836effffffffffffffffffffffffffffff160217905550505086601360008a8152602001908152602001600020600501819055507f1b55ca7f37767d5d7dde158941a1eb3a0e6885bb07d4b83423842bfad99597ce82336040516122c5929190614d42565b60405180910390a15050505050505050565b6122e86122e2612b31565b83612bf2565b612327576040517f08c379a000000000000000000000000000000000000000000000000000000000815260040161231e906148a7565b60405180910390fd5b61233384848484613192565b50505050565b600080600e60003373ffffffffffffffffffffffffffffffffffffffff1673ffffffffffffffffffffffffffffffffffffffff16815260200190815260200160002060000160169054906101000a900460ff1660ff16146123cf576040517f08c379a00000000000000000000000000000000000000000000000000000000081526004016123c690614dca565b60405180910390fd5b6000806001905060405180608001604052803373ffffffffffffffffffffffffffffffffffffffff168152602001851515815260200183151581526020018260ff16815250600e60003373ffffffffffffffffffffffffffffffffffffffff1673ffffffffffffffffffffffffffffffffffffffff16815260200190815260200160002060008201518160000160006101000a81548173ffffffffffffffffffffffffffffffffffffffff021916908373ffffffffffffffffffffffffffffffffffffffff16021790555060208201518160000160146101000a81548160ff02191690831515021790555060408201518160000160156101000a81548160ff02191690831515021790555060608201518160000160166101000a81548160ff021916908360ff1602179055509050507f6ed7fd9c095d25702b515b4fc3c80ddda04a36adc0a6619c93fe1a306784f51e338560405161252f929190614e36565b60405180910390a1600192505050919050565b606061254d82612ac5565b61258c576040517f08c379a000000000000000000000000000000000000000000000000000000000815260040161258390614ee4565b60405180910390fd5b60006006600084815260200190815260200160002080546125ac90614539565b80601f01602080910402602001604051908101604052809291908181526020018280546125d890614539565b80156126255780601f106125fa57610100808354040283529160200191612625565b820191906000526020600020905b81548152906001019060200180831161260857829003601f168201915b5050505050905060006126366131ee565b905060008151141561264c57819250505061268f565b600082511115612681578082604051602001612669929190614f04565b6040516020818303038152906040529250505061268f565b61268a84613205565b925050505b919050565b6060816001600e60008373ffffffffffffffffffffffffffffffffffffffff1673ffffffffffffffffffffffffffffffffffffffff16815260200190815260200160002060000160169054906101000a900460ff1660ff161461272c576040517f08c379a00000000000000000000000000000000000000000000000000000000081526004016127239061476d565b60405180910390fd5b601160008473ffffffffffffffffffffffffffffffffffffffff1673ffffffffffffffffffffffffffffffffffffffff1681526020019081526020016000208054806020026020016040519081016040528092919081815260200182805480156127b557602002820191906000526020600020905b8154815260200190600101908083116127a1575b5050505050915050919050565b6000600560008473ffffffffffffffffffffffffffffffffffffffff1673ffffffffffffffffffffffffffffffffffffffff16815260200190815260200160002060008373ffffffffffffffffffffffffffffffffffffffff1673ffffffffffffffffffffffffffffffffffffffff16815260200190815260200160002060009054906101000a900460ff16905092915050565b33600a60009054906101000a900473ffffffffffffffffffffffffffffffffffffffff1673ffffffffffffffffffffffffffffffffffffffff168173ffffffffffffffffffffffffffffffffffffffff16146128e7576040517f08c379a00000000000000000000000000000000000000000000000000000000081526004016128de90614f74565b60405180910390fd5b600e60008373ffffffffffffffffffffffffffffffffffffffff1673ffffffffffffffffffffffffffffffffffffffff16815260200190815260200160002060000160149054906101000a900460ff16156129d9576000600e60008473ffffffffffffffffffffffffffffffffffffffff1673ffffffffffffffffffffffffffffffffffffffff168152602001908152602001600020905060018160000160156101000a81548160ff0219169083151502179055507f3505fc606cb13a8df40c7bd1833b8f90b0440b83aa897dfd69927aa28955eb09836040516129cb9190614fe0565b60405180910390a150612a14565b6040517f08c379a0000000000000000000000000000000000000000000000000000000008152600401612a0b9061505a565b60405180910390fd5b5050565b612a20611a42565b612a2957600080fd5b612a32816132ac565b50565b600a60009054906101000a900473ffffffffffffffffffffffffffffffffffffffff1681565b60007f01ffc9a7000000000000000000000000000000000000000000000000000000007bffffffffffffffffffffffffffffffffffffffffffffffffffffffff1916827bffffffffffffffffffffffffffffffffffffffffffffffffffffffff1916149050919050565b60008073ffffffffffffffffffffffffffffffffffffffff166002600084815260200190815260200160002060009054906101000a900473ffffffffffffffffffffffffffffffffffffffff1673ffffffffffffffffffffffffffffffffffffffff1614159050919050565b600033905090565b816004600083815260200190815260200160002060006101000a81548173ffffffffffffffffffffffffffffffffffffffff021916908373ffffffffffffffffffffffffffffffffffffffff160217905550808273ffffffffffffffffffffffffffffffffffffffff16612bac836112a3565b73ffffffffffffffffffffffffffffffffffffffff167f8c5be1e5ebec7d5bd14f71427d1e84f3dd0314c0f7b2291e5b200ac8c7c3b92560405160405180910390a45050565b6000612bfd82612ac5565b612c3c576040517f08c379a0000000000000000000000000000000000000000000000000000000008152600401612c33906150ec565b60405180910390fd5b6000612c47836112a3565b90508073ffffffffffffffffffffffffffffffffffffffff168473ffffffffffffffffffffffffffffffffffffffff161480612cb657508373ffffffffffffffffffffffffffffffffffffffff16612c9e84610988565b73ffffffffffffffffffffffffffffffffffffffff16145b80612cc75750612cc681856127c2565b5b91505092915050565b8273ffffffffffffffffffffffffffffffffffffffff16612cf0826112a3565b73ffffffffffffffffffffffffffffffffffffffff1614612d46576040517f08c379a0000000000000000000000000000000000000000000000000000000008152600401612d3d9061517e565b60405180910390fd5b600073ffffffffffffffffffffffffffffffffffffffff168273ffffffffffffffffffffffffffffffffffffffff161415612db6576040517f08c379a0000000000000000000000000000000000000000000000000000000008152600401612dad90615210565b60405180910390fd5b612dc18383836133a6565b612dcc600082612b39565b6001600360008573ffffffffffffffffffffffffffffffffffffffff1673ffffffffffffffffffffffffffffffffffffffff1681526020019081526020016000206000828254612e1c9190614801565b925050819055506001600360008473ffffffffffffffffffffffffffffffffffffffff1673ffffffffffffffffffffffffffffffffffffffff1681526020019081526020016000206000828254612e739190614ca0565b92505081905550816002600083815260200190815260200160002060006101000a81548173ffffffffffffffffffffffffffffffffffffffff021916908373ffffffffffffffffffffffffffffffffffffffff160217905550808273ffffffffffffffffffffffffffffffffffffffff168473ffffffffffffffffffffffffffffffffffffffff167fddf252ad1be2c89b69c2b068fc378daa952ba7f163c4a11628f55a4df523b3ef60405160405180910390a4505050565b6001816000016000828254019250508190555050565b600081600001549050919050565b600073ffffffffffffffffffffffffffffffffffffffff168273ffffffffffffffffffffffffffffffffffffffff161415612fc0576040517f08c379a0000000000000000000000000000000000000000000000000000000008152600401612fb79061527c565b60405180910390fd5b612fc981612ac5565b15613009576040517f08c379a0000000000000000000000000000000000000000000000000000000008152600401613000906152e8565b60405180910390fd5b613015600083836133a6565b6001600360008473ffffffffffffffffffffffffffffffffffffffff1673ffffffffffffffffffffffffffffffffffffffff16815260200190815260200160002060008282546130659190614ca0565b92505081905550816002600083815260200190815260200160002060006101000a81548173ffffffffffffffffffffffffffffffffffffffff021916908373ffffffffffffffffffffffffffffffffffffffff160217905550808273ffffffffffffffffffffffffffffffffffffffff16600073ffffffffffffffffffffffffffffffffffffffff167fddf252ad1be2c89b69c2b068fc378daa952ba7f163c4a11628f55a4df523b3ef60405160405180910390a45050565b61312782612ac5565b613166576040517f08c379a000000000000000000000000000000000000000000000000000000000815260040161315d9061537a565b60405180910390fd5b8060066000848152602001908152602001600020908051906020019061318d929190613734565b505050565b61319d848484612cd0565b6131a9848484846133ab565b6131e8576040517f08c379a00000000000000000000000000000000000000000000000000000000081526004016131df9061540c565b60405180910390fd5b50505050565b606060405180602001604052806000815250905090565b606061321082612ac5565b61324f576040517f08c379a00000000000000000000000000000000000000000000000000000000081526004016132469061549e565b60405180910390fd5b60006132596131ee565b9050600081511161327957604051806020016040528060008152506132a4565b8061328384613542565b604051602001613294929190614f04565b6040516020818303038152906040525b915050919050565b600073ffffffffffffffffffffffffffffffffffffffff168173ffffffffffffffffffffffffffffffffffffffff1614156132e657600080fd5b8073ffffffffffffffffffffffffffffffffffffffff16600760009054906101000a900473ffffffffffffffffffffffffffffffffffffffff1673ffffffffffffffffffffffffffffffffffffffff167f8be0079c531659141344cd1fd0a4f28419497f9722a3daafe3b4186f6b6457e060405160405180910390a380600760006101000a81548173ffffffffffffffffffffffffffffffffffffffff021916908373ffffffffffffffffffffffffffffffffffffffff16021790555050565b505050565b60006133cc8473ffffffffffffffffffffffffffffffffffffffff166136a3565b15613535578373ffffffffffffffffffffffffffffffffffffffff1663150b7a026133f5612b31565b8786866040518563ffffffff1660e01b81526004016134179493929190615513565b602060405180830381600087803b15801561343157600080fd5b505af192505050801561346257506040513d601f19601f8201168201806040525081019061345f9190615574565b60015b6134e5573d8060008114613492576040519150601f19603f3d011682016040523d82523d6000602084013e613497565b606091505b506000815114156134dd576040517f08c379a00000000000000000000000000000000000000000000000000000000081526004016134d49061540c565b60405180910390fd5b805181602001fd5b63150b7a0260e01b7bffffffffffffffffffffffffffffffffffffffffffffffffffffffff1916817bffffffffffffffffffffffffffffffffffffffffffffffffffffffff19161491505061353a565b600190505b949350505050565b6060600082141561358a576040518060400160405280600181526020017f3000000000000000000000000000000000000000000000000000000000000000815250905061369e565b600082905060005b600082146135bc5780806135a5906155a1565b915050600a826135b59190615619565b9150613592565b60008167ffffffffffffffff8111156135d8576135d7614031565b5b6040519080825280601f01601f19166020018201604052801561360a5781602001600182028036833780820191505090505b5090505b60008514613697576001826136239190614801565b9150600a85613632919061564a565b603061363e9190614ca0565b60f81b8183815181106136545761365361567b565b5b60200101907effffffffffffffffffffffffffffffffffffffffffffffffffffffffffffff1916908160001a905350600a856136909190615619565b945061360e565b8093505050505b919050565b600080823b905060008111915050919050565b6040518061010001604052806000815260200160008152602001600073ffffffffffffffffffffffffffffffffffffffff1681526020016060815260200160608152602001600081526020016000600381111561371657613715613abc565b5b815260200160006effffffffffffffffffffffffffffff1681525090565b82805461374090614539565b90600052602060002090601f01602090048101928261376257600085556137a9565b82601f1061377b57805160ff19168380011785556137a9565b828001600101855582156137a9579182015b828111156137a857825182559160200191906001019061378d565b5b5090506137b691906137ba565b5090565b5b808211156137d35760008160009055506001016137bb565b5090565b6000604051905090565b600080fd5b600080fd5b60007fffffffff0000000000000000000000000000000000000000000000000000000082169050919050565b613820816137eb565b811461382b57600080fd5b50565b60008135905061383d81613817565b92915050565b600060208284031215613859576138586137e1565b5b60006138678482850161382e565b91505092915050565b60008115159050919050565b61388581613870565b82525050565b60006020820190506138a0600083018461387c565b92915050565b600081519050919050565b600082825260208201905092915050565b60005b838110156138e05780820151818401526020810190506138c5565b838111156138ef576000848401525b50505050565b6000601f19601f8301169050919050565b6000613911826138a6565b61391b81856138b1565b935061392b8185602086016138c2565b613934816138f5565b840191505092915050565b600060208201905081810360008301526139598184613906565b905092915050565b6000819050919050565b61397481613961565b811461397f57600080fd5b50565b6000813590506139918161396b565b92915050565b6000602082840312156139ad576139ac6137e1565b5b60006139bb84828501613982565b91505092915050565b600073ffffffffffffffffffffffffffffffffffffffff82169050919050565b60006139ef826139c4565b9050919050565b6139ff816139e4565b82525050565b6000602082019050613a1a60008301846139f6565b92915050565b613a29816139e4565b8114613a3457600080fd5b50565b600081359050613a4681613a20565b92915050565b60008060408385031215613a6357613a626137e1565b5b6000613a7185828601613a37565b9250506020613a8285828601613982565b9150509250929050565b613a9581613961565b82525050565b6000613aa6826139c4565b9050919050565b613ab681613a9b565b82525050565b7f4e487b7100000000000000000000000000000000000000000000000000000000600052602160045260246000fd5b60048110613afc57613afb613abc565b5b50565b6000819050613b0d82613aeb565b919050565b6000613b1d82613aff565b9050919050565b613b2d81613b12565b82525050565b60006effffffffffffffffffffffffffffff82169050919050565b613b5781613b33565b82525050565b600061010082019050613b73600083018b613a8c565b613b80602083018a613a8c565b613b8d6040830189613aad565b8181036060830152613b9f8188613906565b90508181036080830152613bb38187613906565b9050613bc260a0830186613a8c565b613bcf60c0830185613b24565b613bdc60e0830184613b4e565b9998505050505050505050565b600080600060608486031215613c0257613c016137e1565b5b6000613c1086828701613a37565b9350506020613c2186828701613a37565b9250506040613c3286828701613982565b9150509250925092565b600060208284031215613c5257613c516137e1565b5b6000613c6084828501613a37565b91505092915050565b600081519050919050565b600082825260208201905092915050565b6000819050602082019050919050565b613c9e81613961565b82525050565b6000613cb08383613c95565b60208301905092915050565b6000602082019050919050565b6000613cd482613c69565b613cde8185613c74565b9350613ce983613c85565b8060005b83811015613d1a578151613d018882613ca4565b9750613d0c83613cbc565b925050600181019050613ced565b5085935050505092915050565b60006020820190508181036000830152613d418184613cc9565b905092915050565b6000819050919050565b6000613d6e613d69613d64846139c4565b613d49565b6139c4565b9050919050565b6000613d8082613d53565b9050919050565b6000613d9282613d75565b9050919050565b613da281613d87565b82525050565b6000602082019050613dbd6000830184613d99565b92915050565b6000602082019050613dd86000830184613a8c565b92915050565b600081519050919050565b600082825260208201905092915050565b6000819050602082019050919050565b613e1381613a9b565b82525050565b600082825260208201905092915050565b6000613e35826138a6565b613e3f8185613e19565b9350613e4f8185602086016138c2565b613e58816138f5565b840191505092915050565b613e6c81613b12565b82525050565b613e7b81613b33565b82525050565b600061010083016000830151613e9a6000860182613c95565b506020830151613ead6020860182613c95565b506040830151613ec06040860182613e0a565b5060608301518482036060860152613ed88282613e2a565b91505060808301518482036080860152613ef28282613e2a565b91505060a0830151613f0760a0860182613c95565b5060c0830151613f1a60c0860182613e63565b5060e0830151613f2d60e0860182613e72565b508091505092915050565b6000613f448383613e81565b905092915050565b6000602082019050919050565b6000613f6482613dde565b613f6e8185613de9565b935083602082028501613f8085613dfa565b8060005b85811015613fbc5784840389528151613f9d8582613f38565b9450613fa883613f4c565b925060208a01995050600181019050613f84565b50829750879550505050505092915050565b60006020820190508181036000830152613fe88184613f59565b905092915050565b6000606082019050614005600083018661387c565b614012602083018561387c565b61401f604083018461387c565b949350505050565b600080fd5b600080fd5b7f4e487b7100000000000000000000000000000000000000000000000000000000600052604160045260246000fd5b614069826138f5565b810181811067ffffffffffffffff8211171561408857614087614031565b5b80604052505050565b600061409b6137d7565b90506140a78282614060565b919050565b600067ffffffffffffffff8211156140c7576140c6614031565b5b6140d0826138f5565b9050602081019050919050565b82818337600083830152505050565b60006140ff6140fa846140ac565b614091565b90508281526020810184848401111561411b5761411a61402c565b5b6141268482856140dd565b509392505050565b600082601f83011261414357614142614027565b5b81356141538482602086016140ec565b91505092915050565b600080600060608486031215614175576141746137e1565b5b600061418386828701613a37565b935050602084013567ffffffffffffffff8111156141a4576141a36137e6565b5b6141b08682870161412e565b925050604084013567ffffffffffffffff8111156141d1576141d06137e6565b5b6141dd8682870161412e565b9150509250925092565b6141f081613a9b565b81146141fb57600080fd5b50565b60008135905061420d816141e7565b92915050565b6000806040838503121561422a576142296137e1565b5b6000614238858286016141fe565b925050602061424985828601613982565b9150509250929050565b61425c81613870565b811461426757600080fd5b50565b60008135905061427981614253565b92915050565b60008060408385031215614296576142956137e1565b5b60006142a485828601613a37565b92505060206142b58582860161426a565b9150509250929050565b600080600080608085870312156142d9576142d86137e1565b5b60006142e787828801613982565b94505060206142f887828801613982565b935050604085013567ffffffffffffffff811115614319576143186137e6565b5b6143258782880161412e565b925050606085013567ffffffffffffffff811115614346576143456137e6565b5b6143528782880161412e565b91505092959194509250565b600067ffffffffffffffff82111561437957614378614031565b5b614382826138f5565b9050602081019050919050565b60006143a261439d8461435e565b614091565b9050828152602081018484840111156143be576143bd61402c565b5b6143c98482856140dd565b509392505050565b600082601f8301126143e6576143e5614027565b5b81356143f684826020860161438f565b91505092915050565b60008060008060808587031215614419576144186137e1565b5b600061442787828801613a37565b945050602061443887828801613a37565b935050604061444987828801613982565b925050606085013567ffffffffffffffff81111561446a576144696137e6565b5b614476878288016143d1565b91505092959194509250565b600060208284031215614498576144976137e1565b5b60006144a68482850161426a565b91505092915050565b600080604083850312156144c6576144c56137e1565b5b60006144d485828601613a37565b92505060206144e585828601613a37565b9150509250929050565b60006020820190506145046000830184613aad565b92915050565b7f4e487b7100000000000000000000000000000000000000000000000000000000600052602260045260246000fd5b6000600282049050600182168061455157607f821691505b602082108114156145655761456461450a565b5b50919050565b7f4552433732313a20617070726f76656420717565727920666f72206e6f6e657860008201527f697374656e7420746f6b656e0000000000000000000000000000000000000000602082015250565b60006145c7602c836138b1565b91506145d28261456b565b604082019050919050565b600060208201905081810360008301526145f6816145ba565b9050919050565b7f4552433732313a20617070726f76616c20746f2063757272656e74206f776e6560008201527f7200000000000000000000000000000000000000000000000000000000000000602082015250565b60006146596021836138b1565b9150614664826145fd565b604082019050919050565b600060208201905081810360008301526146888161464c565b9050919050565b7f4552433732313a20617070726f76652063616c6c6572206973206e6f74206f7760008201527f6e6572206e6f7220617070726f76656420666f7220616c6c0000000000000000602082015250565b60006146eb6038836138b1565b91506146f68261468f565b604082019050919050565b6000602082019050818103600083015261471a816146de565b9050919050565b7f7573657220646f6573206e6f7420657869737400000000000000000000000000600082015250565b60006147576013836138b1565b915061476282614721565b602082019050919050565b600060208201905081810360008301526147868161474a565b9050919050565b60006080820190506147a260008301876139f6565b6147af6020830186613a8c565b6147bc6040830185613a8c565b6147c96060830184613a8c565b95945050505050565b7f4e487b7100000000000000000000000000000000000000000000000000000000600052601160045260246000fd5b600061480c82613961565b915061481783613961565b92508282101561482a576148296147d2565b5b828203905092915050565b7f4552433732313a207472616e736665722063616c6c6572206973206e6f74206f60008201527f776e6572206e6f7220617070726f766564000000000000000000000000000000602082015250565b60006148916031836138b1565b915061489c82614835565b604082019050919050565b600060208201905081810360008301526148c081614884565b9050919050565b7f4552433732313a206f776e657220717565727920666f72206e6f6e657869737460008201527f656e7420746f6b656e0000000000000000000000000000000000000000000000602082015250565b60006149236029836138b1565b915061492e826148c7565b604082019050919050565b6000602082019050818103600083015261495281614916565b9050919050565b7f4552433732313a2062616c616e636520717565727920666f7220746865207a6560008201527f726f206164647265737300000000000000000000000000000000000000000000602082015250565b60006149b5602a836138b1565b91506149c082614959565b604082019050919050565b600060208201905081810360008301526149e4816149a8565b9050919050565b7f75736572206973206e6f7420612073656c6c6572206f72206973206e6f74207660008201527f6572696669656400000000000000000000000000000000000000000000000000602082015250565b6000614a476027836138b1565b9150614a52826149eb565b604082019050919050565b60006020820190508181036000830152614a7681614a3a565b9050919050565b600081905092915050565b6000614a93826138a6565b614a9d8185614a7d565b9350614aad8185602086016138c2565b80840191505092915050565b6000614ac58284614a88565b915081905092915050565b7f4e4654206d696e746564207375636365737366756c6c79000000000000000000600082015250565b6000614b066017836138b1565b9150614b1182614ad0565b602082019050919050565b60006040820190508181036000830152614b3581614af9565b9050614b446020830184613a8c565b92915050565b6000614b5582613d75565b9050919050565b614b6581614b4a565b82525050565b6000606082019050614b806000830186614b5c565b614b8d6020830185613a8c565b614b9a6040830184613a8c565b949350505050565b7f4552433732313a20617070726f766520746f2063616c6c657200000000000000600082015250565b6000614bd86019836138b1565b9150614be382614ba2565b602082019050919050565b60006020820190508181036000830152614c0781614bcb565b9050919050565b7f4f6e6c7920746f6b656e206f776e65722063616e2070757420757020746f6b6560008201527f6e20666f722073656c6c00000000000000000000000000000000000000000000602082015250565b6000614c6a602a836138b1565b9150614c7582614c0e565b604082019050919050565b60006020820190508181036000830152614c9981614c5d565b9050919050565b6000614cab82613961565b9150614cb683613961565b9250827fffffffffffffffffffffffffffffffffffffffffffffffffffffffffffffffff03821115614ceb57614cea6147d2565b5b828201905092915050565b7f43617220466f722073616c650000000000000000000000000000000000000000600082015250565b6000614d2c600c836138b1565b9150614d3782614cf6565b602082019050919050565b60006060820190508181036000830152614d5b81614d1f565b9050614d6a6020830185613a8c565b614d7760408301846139f6565b9392505050565b7f7573657220616c72656164792065786973740000000000000000000000000000600082015250565b6000614db46012836138b1565b9150614dbf82614d7e565b602082019050919050565b60006020820190508181036000830152614de381614da7565b9050919050565b7f557365722063726561746564207375636365737366756c6c7900000000000000600082015250565b6000614e206019836138b1565b9150614e2b82614dea565b602082019050919050565b60006060820190508181036000830152614e4f81614e13565b9050614e5e60208301856139f6565b614e6b604083018461387c565b9392505050565b7f45524337323155524953746f726167653a2055524920717565727920666f722060008201527f6e6f6e6578697374656e7420746f6b656e000000000000000000000000000000602082015250565b6000614ece6031836138b1565b9150614ed982614e72565b604082019050919050565b60006020820190508181036000830152614efd81614ec1565b9050919050565b6000614f108285614a88565b9150614f1c8284614a88565b91508190509392505050565b7f63616c6c6572206d75737420626520616e2061646d696e000000000000000000600082015250565b6000614f5e6017836138b1565b9150614f6982614f28565b602082019050919050565b60006020820190508181036000830152614f8d81614f51565b9050919050565b7f73656c6c6572207665726966696564207375636365737366756c6c7900000000600082015250565b6000614fca601c836138b1565b9150614fd582614f94565b602082019050919050565b60006040820190508181036000830152614ff981614fbd565b905061500860208301846139f6565b92915050565b7f75736572206973206e6f7420612073656c6c6572000000000000000000000000600082015250565b60006150446014836138b1565b915061504f8261500e565b602082019050919050565b6000602082019050818103600083015261507381615037565b9050919050565b7f4552433732313a206f70657261746f7220717565727920666f72206e6f6e657860008201527f697374656e7420746f6b656e0000000000000000000000000000000000000000602082015250565b60006150d6602c836138b1565b91506150e18261507a565b604082019050919050565b60006020820190508181036000830152615105816150c9565b9050919050565b7f4552433732313a207472616e73666572206f6620746f6b656e2074686174206960008201527f73206e6f74206f776e0000000000000000000000000000000000000000000000602082015250565b60006151686029836138b1565b91506151738261510c565b604082019050919050565b600060208201905081810360008301526151978161515b565b9050919050565b7f4552433732313a207472616e7366657220746f20746865207a65726f2061646460008201527f7265737300000000000000000000000000000000000000000000000000000000602082015250565b60006151fa6024836138b1565b91506152058261519e565b604082019050919050565b60006020820190508181036000830152615229816151ed565b9050919050565b7f4552433732313a206d696e7420746f20746865207a65726f2061646472657373600082015250565b60006152666020836138b1565b915061527182615230565b602082019050919050565b6000602082019050818103600083015261529581615259565b9050919050565b7f4552433732313a20746f6b656e20616c7265616479206d696e74656400000000600082015250565b60006152d2601c836138b1565b91506152dd8261529c565b602082019050919050565b60006020820190508181036000830152615301816152c5565b9050919050565b7f45524337323155524953746f726167653a2055524920736574206f66206e6f6e60008201527f6578697374656e7420746f6b656e000000000000000000000000000000000000602082015250565b6000615364602e836138b1565b915061536f82615308565b604082019050919050565b6000602082019050818103600083015261539381615357565b9050919050565b7f4552433732313a207472616e7366657220746f206e6f6e20455243373231526560008201527f63656976657220696d706c656d656e7465720000000000000000000000000000602082015250565b60006153f66032836138b1565b91506154018261539a565b604082019050919050565b60006020820190508181036000830152615425816153e9565b9050919050565b7f4552433732314d657461646174613a2055524920717565727920666f72206e6f60008201527f6e6578697374656e7420746f6b656e0000000000000000000000000000000000602082015250565b6000615488602f836138b1565b91506154938261542c565b604082019050919050565b600060208201905081810360008301526154b78161547b565b9050919050565b600081519050919050565b600082825260208201905092915050565b60006154e5826154be565b6154ef81856154c9565b93506154ff8185602086016138c2565b615508816138f5565b840191505092915050565b600060808201905061552860008301876139f6565b61553560208301866139f6565b6155426040830185613a8c565b818103606083015261555481846154da565b905095945050505050565b60008151905061556e81613817565b92915050565b60006020828403121561558a576155896137e1565b5b60006155988482850161555f565b91505092915050565b60006155ac82613961565b91507fffffffffffffffffffffffffffffffffffffffffffffffffffffffffffffffff8214156155df576155de6147d2565b5b600182019050919050565b7f4e487b7100000000000000000000000000000000000000000000000000000000600052601260045260246000fd5b600061562482613961565b915061562f83613961565b92508261563f5761563e6155ea565b5b828204905092915050565b600061565582613961565b915061566083613961565b9250826156705761566f6155ea565b5b828206905092915050565b7f4e487b7100000000000000000000000000000000000000000000000000000000600052603260045260246000fdfea26469706673582212209d252c41d8c52195c7990d3ab224eca96724c556c822a7993b8d2cb9d7fce1f264736f6c63430008090033",
  "immutableReferences": {},
  "source": "// SPDX-License-Identifier: MIT\npragma solidity >=0.4.22 <0.9.0;  \nimport \"@openzeppelin/contracts/token/ERC721/extensions/ERC721URIStorage.sol\";\nimport \"@openzeppelin/contracts/utils/Counters.sol\";\nimport \"./SafeMath.sol\";\nimport \"./Ownable.sol\";\n\ncontract VintageShop is ERC721URIStorage, Ownable {\n  using SafeMath for uint256;\n  using SafeMath for uint16;\n  using Counters for Counters.Counter;\n\n  // a variable to keep track of all the tokens we have issued\n  Counters.Counter private _tokenIds;\n  ERC721 public nftAddress;\n\n  address payable public admin; //addres of the admin\n\n  constructor()  ERC721(\"VintageCarAsset\", \"VCA\"){\n    admin = payable(owner());\n    \n    \n  }\n  //a mapping for all IPFSHashes associated with a unique token\n  mapping(string => uint8) hashes;\n\n  uint8 private _VintangeShopMinimumCommision;\n  //mappings\n\n  //each car owner has anuni\n  mapping (uint => bytes32) carToHash; \n\n  // every user should have ab address\n  mapping (address => User) users;\n\n  // the list of cars indexed by car hash -> numerical id\n  mapping (bytes32 => uint) private carHashes;\n\n  // list of cars bought by users [buyers]\n  mapping (address => uint256[]) private boughtTokens;\n    \n  // lists of cars owned by users [sellers]\n  mapping (address => uint256[]) private ownedTokens;\n\n  mapping(address => Car[]) public carDatabase;\n\n  mapping(uint256 => Car) public carToken;\n\n  mapping(uint256 => Car) public carSale;\n\n  // <enum State: ForSale, Sold, Shipped, Received>\n  // the state tells the current state of the car \n  enum State {ForSale, Sold, Shipped, Received}\n\n  // all users can buy  and sell but needs admin approval to be a seller\n  struct User {\n    address userAddress; \n    bool isSeller; // is the user a seller or a buyer\n    bool isSellerVerified; //a user can be verified as a seller by the admin\n    uint8 userExists; //each user is assigned an id\n  }\n\n\n  struct Car {\n    uint256 tokenId; // nftID id of the car \n    uint carId; //id of the car\n    address payable owner; //address of the vintage car owner to receive funds after pament is being made\n    string name; // name of the car\n    string model; //model or year of the car\n    uint price; // price of the car\n    State state;\n    uint120  purchasedCount; //number of car purchases\n\n  }  \n  \n  \n\n  //events\n    //user creation\n    event UserCreated(string message, address _userAddress, bool _isSeller);\n\n    //approve a user as a seller\n    event SellerVerified(string message, address _userAddress);\n\n    //logforsale for car added\n    event ForSale(string message, uint _carId, address seller);\n\n    event Sold(string message, uint _carId, address buyer);\n\n    event Minted(string message , uint _tokenId);\n\n    event Received(address buyer, uint _tokenId, uint amount, uint balance);\n\n    event Sent(address seller, uint256 amount, uint256 balance);\n\n  //modifiers\n  //verify that the caller of the function is an admin\n  modifier isAdmin(address _address){\n    require(_address == admin, \"caller must be an admin\");\n    _;\n  }\n\n  //verify if the caller of the function is an admin or user;\n   /** \n     * @dev checks if the caller is a user or an admin\n     * @param _address Is new user a car owner?\n     */\n  modifier isUserOrAdmin(address _address){\n    require(_address == admin || users[_address].userExists == 1, \"user does not exist\");\n    _;\n  }\n\n   /** \n     * @dev checks is seller is verified to sell\n     * @param _address Is new user a car owner?\n     */\n  modifier IsSellerVerified(address _address){\n    require(users[_address].isSeller && users[_address].isSellerVerified, \"user is not a seller or is not verified\" );\n    _;\n  }\n\n  /** \n     * @dev checks the owner of the token is the caller\n     * @param _tokenId Id of the token\n     */\n     modifier VerifyNFTOwner(uint256 _tokenId){\n      require(ownerOf(_tokenId) == msg.sender);\n      _;\n     }\n\n      /** \n     * @dev checks the buyer has enough money to buy the Car\n     * @param _tokenId Id of the token to get exact price of the token\n     */\n     modifier hasEnough(uint256 _tokenId){\n      address seller = ownerOf(_tokenId);\n       uint sellerPrice = carToken[_tokenId].price;\n      //  console.log(\"sellerPrice\", sellerPrice);\n       require(msg.value >= sellerPrice);  \n       _;\n     }\n\n      /** \n     * @dev checks the value is higher than the price and refunds the buyer is there is an extra\n     * @param _tokenId Id of the token to get exact price of the token\n     */\n     modifier checkValue(uint256 _tokenId) {\n      //refund them after pay for NFT (why it is before, _ checks for logic before func)\n      _;\n      address seller = ownerOf(_tokenId);\n      uint _price = carToken[_tokenId].price;\n      uint amountToRefund = msg.value - _price;\n      address payable buyer = payable(msg.sender);\n      buyer.transfer(amountToRefund);\n    }\n\n     /** \n     * @dev Checks if user exists in Bookshop record\n     * @param userAddress Address of user\n     */\n     modifier userExists(address userAddress){\n      require(users[userAddress].userExists == 1, \"user does not exist\");\n      _;\n  }\n\n\n\n\n\n\n\n  //functions\n\n   /** \n     * @dev Registers new user\n     * @param _isSeller Is new user a car owner?\n     */\n  function addUser(bool _isSeller) external returns (bool){\n    require(users[msg.sender].userExists == 0, \"user already exist\");\n      bool _isSellerVerified = false;\n      uint8 _userExists = 1;\n      users[msg.sender] = User({\n        userAddress: msg.sender,\n        isSeller: _isSeller,\n        isSellerVerified:_isSellerVerified,\n        userExists: _userExists\n      });\n\n      emit UserCreated(\"User created successfully\", msg.sender, _isSeller);\n\n      return true;\n  }\n\n   /** \n     * @dev Admin verifies a user by assigning isSeller verified to a seller\n     * @param _userAddress Is new user a car owner?\n     */\n  function assignAsSeller(address _userAddress) isAdmin(msg.sender) external {\n    if(users[_userAddress].isSeller){\n      User storage user = users[_userAddress];\n      user.isSellerVerified = true;\n\n      emit SellerVerified(\"seller verified successfully\", _userAddress);\n    }\n    else{\n      revert(\"user is not a seller\");\n    }\n  }\n\n  /** \n     * @dev Seller Mints vintage car as NFT after being verified as seller by the admin for particul\n     * @param recipient address of the seller minting the NFT\n     * @param hash IPFS Hash of car\n     * @param metadata IPFurl of car hash\n     */\n     function awardItem(address recipient, string memory hash, string memory metadata)\n      IsSellerVerified(recipient) external\n        returns (uint256)\n      {\n        require(hashes[hash] != 1);\n        hashes[hash] = 1;\n        _tokenIds.increment();\n        uint256 newItemId = _tokenIds.current();\n        _mint(recipient, newItemId);\n        _setTokenURI(newItemId, metadata);\n        emit Minted(\"NFT minted successfully\", newItemId);\n\n        return newItemId;\n}\n\n  /** \n     * @dev Seller Puts the NFT up forsale\n     * @param _tokenId Token to be Sold\n     * @param price price the seller wants to sell\n     * @param name Name of the car the seller wants to sell\n     * @param model model of the car the seller wants to sell\n     */\n     function addNFT(uint256 _tokenId, uint price, string memory name, string memory model)\n      IsSellerVerified(msg.sender) VerifyNFTOwner(_tokenId) external{\n        require(ownerOf(_tokenId) == msg.sender, \"Only token owner can put up token for sell\");\n        setApprovalForAll(address(this), true);\n        ownedTokens[msg.sender].push(_tokenId);\n        uint newCarId = carDatabase[msg.sender].length + 1;\n        Car memory car;\n\n        car.tokenId = _tokenId;\n        car.carId = newCarId;\n        car.price = price;\n        car.name = name;\n        car.model = model;\n        car.state = State.ForSale;\n        car.owner = payable(msg.sender);\n        car.purchasedCount = 0;\n\n        carDatabase[msg.sender].push(car);\n        carToken[_tokenId].price = price;\n        emit ForSale(\"Car For sale\", newCarId, msg.sender);\n\n\n      \n     } \n\n       /** \n     * @dev Seller tranfers ownership token to the buyer\n     * @param from address of the seller\n     * @param to address of buyer\n     * @param tokenId Id of the token being sold\n     */\n\n      function transferFrom(\n        address from,\n        address to,\n        uint256 tokenId\n      ) public virtual override {\n          //solhint-disable-next-line max-line-length\n          require(_isApprovedOrOwner(address(this), tokenId), \"ERC721: transfer caller is not owner nor approved\");\n\n          _transfer(from, to, tokenId);\n      }\n\n\n      /** \n     * @dev Buyer buys the NFT up forsale\n     * @dev the state is updated to sold\n     * @param tokenId Token to be Sold\n\n     */\n     function purchaseNFT (uint256 tokenId)\n      isUserOrAdmin(msg.sender) hasEnough(tokenId) checkValue(tokenId) payable external {\n        address payable seller = payable(ownerOf(tokenId));\n       \n        transferFrom(seller, msg.sender, tokenId);\n        boughtTokens[msg.sender].push(tokenId);\n        // carDatabase[seller][tokenId].state = State.Sold;\n        emit Received(msg.sender, tokenId, msg.value, address(this).balance);\n\n     }\n\n    //  functi  on getCarPrice(uint)\n\n    \n    /**\n    * @dev send / withdraw _amount to seller\n    */\n    function sendTo(address payable _seller, uint256 _amount) public onlyOwner {\n      require(_seller != address(0) && _seller != address(this));\n      require(_amount > 0 && _amount <= address(this).balance);\n      _seller.transfer(_amount);\n      emit Sent(_seller, _amount, address(this).balance);\n      }\n  \n\n        /**\n    * @dev gets the cars forsale\n    */ \n      function getCarForSale() public view returns(Car[] memory ){\n\n      }\n        /**\n     * @dev requests for tokens paid for by an existion user\n     */\n      function getPurchasedTokens(address _user) userExists(_user) view public returns(uint256[] memory _boughtTokens ){\n        _boughtTokens = boughtTokens[_user];\n      }\n      \n          /**\n     * @dev requests for tokens owned by an existion user\n     */\n     function getOwnedTokens(address _user) userExists(_user) view public returns(uint256[] memory _ownedTokens ){\n      _ownedTokens = ownedTokens[_user];\n    }\n\n      /**\n     * @dev Verify/Authenticate existing user \n     */\n    function getUser() isUserOrAdmin(msg.sender) view external returns (bool _isAuth, bool _isAdmin, bool _isSeller) {\n      _isAuth = true;\n      if(msg.sender == admin){\n        _isAdmin = true;\n      }\n      _isSeller = users[msg.sender].isSeller;\n    }\n  \n\n  \n}\n",
  "sourcePath": "/home/thobby/academy/thobby/blockchain-developer-bootcamp-final-project/contracts/VintageShop.sol",
  "compiler": {
    "name": "solc",
    "version": "0.8.9+commit.e5eed63a.Emscripten.clang"
  },
  "schemaVersion": "3.4.3",
  "updatedAt": "2021-11-06T19:27:57.728Z",
  "networkType": "ethereum",
  "devdoc": {
    "kind": "dev",
    "methods": {
      "addNFT(uint256,uint256,string,string)": {
        "details": "Seller Puts the NFT up forsale",
        "params": {
          "_tokenId": "Token to be Sold",
          "model": "model of the car the seller wants to sell",
          "name": "Name of the car the seller wants to sell",
          "price": "price the seller wants to sell"
        }
      },
      "addUser(bool)": {
        "details": "Registers new user",
        "params": {
          "_isSeller": "Is new user a car owner?"
        }
      },
      "approve(address,uint256)": {
        "details": "See {IERC721-approve}."
      },
      "assignAsSeller(address)": {
        "details": "Admin verifies a user by assigning isSeller verified to a seller",
        "params": {
          "_userAddress": "Is new user a car owner?"
        }
      },
      "awardItem(address,string,string)": {
        "details": "Seller Mints vintage car as NFT after being verified as seller by the admin for particul",
        "params": {
          "hash": "IPFS Hash of car",
          "metadata": "IPFurl of car hash",
          "recipient": "address of the seller minting the NFT"
        }
      },
      "balanceOf(address)": {
        "details": "See {IERC721-balanceOf}."
      },
      "getApproved(uint256)": {
        "details": "See {IERC721-getApproved}."
      },
      "getCarForSale()": {
        "details": "gets the cars forsale"
      },
      "getOwnedTokens(address)": {
        "details": "requests for tokens owned by an existion user"
      },
      "getPurchasedTokens(address)": {
        "details": "requests for tokens paid for by an existion user"
      },
      "getUser()": {
        "details": "Verify/Authenticate existing user "
      },
      "isApprovedForAll(address,address)": {
        "details": "See {IERC721-isApprovedForAll}."
      },
      "isOwner()": {
        "returns": {
          "_0": "true if `msg.sender` is the owner of the contract."
        }
      },
      "name()": {
        "details": "See {IERC721Metadata-name}."
      },
      "owner()": {
        "returns": {
          "_0": "the address of the owner."
        }
      },
      "ownerOf(uint256)": {
        "details": "See {IERC721-ownerOf}."
      },
      "purchaseNFT(uint256)": {
        "details": "Buyer buys the NFT up forsalethe state is updated to sold",
        "params": {
          "tokenId": "Token to be Sold"
        }
      },
      "renounceOwnership()": {
        "details": "Allows the current owner to relinquish control of the contract."
      },
      "safeTransferFrom(address,address,uint256)": {
        "details": "See {IERC721-safeTransferFrom}."
      },
      "safeTransferFrom(address,address,uint256,bytes)": {
        "details": "See {IERC721-safeTransferFrom}."
      },
      "sendTo(address,uint256)": {
        "details": "send / withdraw _amount to seller"
      },
      "setApprovalForAll(address,bool)": {
        "details": "See {IERC721-setApprovalForAll}."
      },
      "supportsInterface(bytes4)": {
        "details": "See {IERC165-supportsInterface}."
      },
      "symbol()": {
        "details": "See {IERC721Metadata-symbol}."
      },
      "tokenURI(uint256)": {
        "details": "See {IERC721Metadata-tokenURI}."
      },
      "transferFrom(address,address,uint256)": {
        "details": "Seller tranfers ownership token to the buyer",
        "params": {
          "from": "address of the seller",
          "to": "address of buyer",
          "tokenId": "Id of the token being sold"
        }
      },
      "transferOwnership(address)": {
        "details": "Allows the current owner to transfer control of the contract to a newOwner.",
        "params": {
          "newOwner": "The address to transfer ownership to."
        }
      }
    },
    "version": 1
  },
  "userdoc": {
    "kind": "user",
    "methods": {
      "renounceOwnership()": {
        "notice": "Renouncing to ownership will leave the contract without an owner. It will not be possible to call the functions with the `onlyOwner` modifier anymore."
      }
    },
    "version": 1
  }
}