{
  "contractName": "VintageShop",
  "abi": [
    {
      "inputs": [],
      "stateMutability": "nonpayable",
      "type": "constructor"
    },
    {
      "anonymous": false,
      "inputs": [
        {
          "indexed": true,
          "internalType": "address",
          "name": "owner",
          "type": "address"
        },
        {
          "indexed": true,
          "internalType": "address",
          "name": "approved",
          "type": "address"
        },
        {
          "indexed": true,
          "internalType": "uint256",
          "name": "tokenId",
          "type": "uint256"
        }
      ],
      "name": "Approval",
      "type": "event"
    },
    {
      "anonymous": false,
      "inputs": [
        {
          "indexed": true,
          "internalType": "address",
          "name": "owner",
          "type": "address"
        },
        {
          "indexed": true,
          "internalType": "address",
          "name": "operator",
          "type": "address"
        },
        {
          "indexed": false,
          "internalType": "bool",
          "name": "approved",
          "type": "bool"
        }
      ],
      "name": "ApprovalForAll",
      "type": "event"
    },
    {
      "anonymous": false,
      "inputs": [
        {
          "indexed": false,
          "internalType": "string",
          "name": "message",
          "type": "string"
        },
        {
          "indexed": false,
          "internalType": "uint256",
          "name": "_carId",
          "type": "uint256"
        },
        {
          "indexed": false,
          "internalType": "address",
          "name": "seller",
          "type": "address"
        }
      ],
      "name": "ForSale",
      "type": "event"
    },
    {
      "anonymous": false,
      "inputs": [
        {
          "indexed": false,
          "internalType": "string",
          "name": "message",
          "type": "string"
        },
        {
          "indexed": false,
          "internalType": "uint256",
          "name": "_tokenId",
          "type": "uint256"
        }
      ],
      "name": "Minted",
      "type": "event"
    },
    {
      "anonymous": false,
      "inputs": [
        {
          "indexed": false,
          "internalType": "string",
          "name": "message",
          "type": "string"
        }
      ],
      "name": "NewUser",
      "type": "event"
    },
    {
      "anonymous": false,
      "inputs": [
        {
          "indexed": true,
          "internalType": "address",
          "name": "previousOwner",
          "type": "address"
        },
        {
          "indexed": true,
          "internalType": "address",
          "name": "newOwner",
          "type": "address"
        }
      ],
      "name": "OwnershipTransferred",
      "type": "event"
    },
    {
      "anonymous": false,
      "inputs": [
        {
          "indexed": false,
          "internalType": "address",
          "name": "buyer",
          "type": "address"
        },
        {
          "indexed": false,
          "internalType": "uint256",
          "name": "_tokenId",
          "type": "uint256"
        },
        {
          "indexed": false,
          "internalType": "uint256",
          "name": "amount",
          "type": "uint256"
        },
        {
          "indexed": false,
          "internalType": "uint256",
          "name": "balance",
          "type": "uint256"
        }
      ],
      "name": "Received",
      "type": "event"
    },
    {
      "anonymous": false,
      "inputs": [
        {
          "indexed": false,
          "internalType": "string",
          "name": "message",
          "type": "string"
        },
        {
          "indexed": false,
          "internalType": "address",
          "name": "_userAddress",
          "type": "address"
        }
      ],
      "name": "SellerVerified",
      "type": "event"
    },
    {
      "anonymous": false,
      "inputs": [
        {
          "indexed": false,
          "internalType": "address",
          "name": "seller",
          "type": "address"
        },
        {
          "indexed": false,
          "internalType": "uint256",
          "name": "amount",
          "type": "uint256"
        },
        {
          "indexed": false,
          "internalType": "uint256",
          "name": "balance",
          "type": "uint256"
        }
      ],
      "name": "Sent",
      "type": "event"
    },
    {
      "anonymous": false,
      "inputs": [
        {
          "indexed": false,
          "internalType": "string",
          "name": "message",
          "type": "string"
        },
        {
          "indexed": false,
          "internalType": "uint256",
          "name": "_carId",
          "type": "uint256"
        },
        {
          "indexed": false,
          "internalType": "address",
          "name": "buyer",
          "type": "address"
        }
      ],
      "name": "Sold",
      "type": "event"
    },
    {
      "anonymous": false,
      "inputs": [
        {
          "indexed": true,
          "internalType": "address",
          "name": "from",
          "type": "address"
        },
        {
          "indexed": true,
          "internalType": "address",
          "name": "to",
          "type": "address"
        },
        {
          "indexed": true,
          "internalType": "uint256",
          "name": "tokenId",
          "type": "uint256"
        }
      ],
      "name": "Transfer",
      "type": "event"
    },
    {
      "anonymous": false,
      "inputs": [
        {
          "indexed": false,
          "internalType": "string",
          "name": "message",
          "type": "string"
        },
        {
          "indexed": false,
          "internalType": "address",
          "name": "_userAddress",
          "type": "address"
        },
        {
          "indexed": false,
          "internalType": "bool",
          "name": "_isSeller",
          "type": "bool"
        }
      ],
      "name": "UserCreated",
      "type": "event"
    },
    {
      "anonymous": false,
      "inputs": [
        {
          "indexed": false,
          "internalType": "string",
          "name": "message",
          "type": "string"
        }
      ],
      "name": "UserExists",
      "type": "event"
    },
    {
      "inputs": [],
      "name": "admin",
      "outputs": [
        {
          "internalType": "address payable",
          "name": "",
          "type": "address"
        }
      ],
      "stateMutability": "view",
      "type": "function",
      "constant": true
    },
    {
      "inputs": [
        {
          "internalType": "address",
          "name": "to",
          "type": "address"
        },
        {
          "internalType": "uint256",
          "name": "tokenId",
          "type": "uint256"
        }
      ],
      "name": "approve",
      "outputs": [],
      "stateMutability": "nonpayable",
      "type": "function"
    },
    {
      "inputs": [
        {
          "internalType": "address",
          "name": "owner",
          "type": "address"
        }
      ],
      "name": "balanceOf",
      "outputs": [
        {
          "internalType": "uint256",
          "name": "",
          "type": "uint256"
        }
      ],
      "stateMutability": "view",
      "type": "function",
      "constant": true
    },
    {
      "inputs": [
        {
          "internalType": "address",
          "name": "",
          "type": "address"
        },
        {
          "internalType": "uint256",
          "name": "",
          "type": "uint256"
        }
      ],
      "name": "carDatabase",
      "outputs": [
        {
          "internalType": "uint256",
          "name": "tokenId",
          "type": "uint256"
        },
        {
          "internalType": "uint256",
          "name": "carId",
          "type": "uint256"
        },
        {
          "internalType": "address payable",
          "name": "owner",
          "type": "address"
        },
        {
          "internalType": "string",
          "name": "name",
          "type": "string"
        },
        {
          "internalType": "string",
          "name": "model",
          "type": "string"
        },
        {
          "internalType": "string",
          "name": "carUrl",
          "type": "string"
        },
        {
          "internalType": "uint256",
          "name": "price",
          "type": "uint256"
        },
        {
          "internalType": "enum VintageShop.State",
          "name": "state",
          "type": "uint8"
        },
        {
          "internalType": "uint120",
          "name": "purchasedCount",
          "type": "uint120"
        }
      ],
      "stateMutability": "view",
      "type": "function",
      "constant": true
    },
    {
      "inputs": [
        {
          "internalType": "uint256",
          "name": "",
          "type": "uint256"
        }
      ],
      "name": "carToken",
      "outputs": [
        {
          "internalType": "uint256",
          "name": "tokenId",
          "type": "uint256"
        },
        {
          "internalType": "uint256",
          "name": "carId",
          "type": "uint256"
        },
        {
          "internalType": "address payable",
          "name": "owner",
          "type": "address"
        },
        {
          "internalType": "string",
          "name": "name",
          "type": "string"
        },
        {
          "internalType": "string",
          "name": "model",
          "type": "string"
        },
        {
          "internalType": "string",
          "name": "carUrl",
          "type": "string"
        },
        {
          "internalType": "uint256",
          "name": "price",
          "type": "uint256"
        },
        {
          "internalType": "enum VintageShop.State",
          "name": "state",
          "type": "uint8"
        },
        {
          "internalType": "uint120",
          "name": "purchasedCount",
          "type": "uint120"
        }
      ],
      "stateMutability": "view",
      "type": "function",
      "constant": true
    },
    {
      "inputs": [
        {
          "internalType": "uint256",
          "name": "tokenId",
          "type": "uint256"
        }
      ],
      "name": "getApproved",
      "outputs": [
        {
          "internalType": "address",
          "name": "",
          "type": "address"
        }
      ],
      "stateMutability": "view",
      "type": "function",
      "constant": true
    },
    {
      "inputs": [
        {
          "internalType": "address",
          "name": "owner",
          "type": "address"
        },
        {
          "internalType": "address",
          "name": "operator",
          "type": "address"
        }
      ],
      "name": "isApprovedForAll",
      "outputs": [
        {
          "internalType": "bool",
          "name": "",
          "type": "bool"
        }
      ],
      "stateMutability": "view",
      "type": "function",
      "constant": true
    },
    {
      "inputs": [],
      "name": "isOwner",
      "outputs": [
        {
          "internalType": "bool",
          "name": "",
          "type": "bool"
        }
      ],
      "stateMutability": "view",
      "type": "function",
      "constant": true
    },
    {
      "inputs": [],
      "name": "name",
      "outputs": [
        {
          "internalType": "string",
          "name": "",
          "type": "string"
        }
      ],
      "stateMutability": "view",
      "type": "function",
      "constant": true
    },
    {
      "inputs": [],
      "name": "nftAddress",
      "outputs": [
        {
          "internalType": "contract ERC721",
          "name": "",
          "type": "address"
        }
      ],
      "stateMutability": "view",
      "type": "function",
      "constant": true
    },
    {
      "inputs": [],
      "name": "owner",
      "outputs": [
        {
          "internalType": "address",
          "name": "",
          "type": "address"
        }
      ],
      "stateMutability": "view",
      "type": "function",
      "constant": true
    },
    {
      "inputs": [
        {
          "internalType": "uint256",
          "name": "tokenId",
          "type": "uint256"
        }
      ],
      "name": "ownerOf",
      "outputs": [
        {
          "internalType": "address",
          "name": "",
          "type": "address"
        }
      ],
      "stateMutability": "view",
      "type": "function",
      "constant": true
    },
    {
      "inputs": [],
      "name": "renounceOwnership",
      "outputs": [],
      "stateMutability": "nonpayable",
      "type": "function"
    },
    {
      "inputs": [
        {
          "internalType": "address",
          "name": "from",
          "type": "address"
        },
        {
          "internalType": "address",
          "name": "to",
          "type": "address"
        },
        {
          "internalType": "uint256",
          "name": "tokenId",
          "type": "uint256"
        }
      ],
      "name": "safeTransferFrom",
      "outputs": [],
      "stateMutability": "nonpayable",
      "type": "function"
    },
    {
      "inputs": [
        {
          "internalType": "address",
          "name": "from",
          "type": "address"
        },
        {
          "internalType": "address",
          "name": "to",
          "type": "address"
        },
        {
          "internalType": "uint256",
          "name": "tokenId",
          "type": "uint256"
        },
        {
          "internalType": "bytes",
          "name": "_data",
          "type": "bytes"
        }
      ],
      "name": "safeTransferFrom",
      "outputs": [],
      "stateMutability": "nonpayable",
      "type": "function"
    },
    {
      "inputs": [
        {
          "internalType": "address",
          "name": "operator",
          "type": "address"
        },
        {
          "internalType": "bool",
          "name": "approved",
          "type": "bool"
        }
      ],
      "name": "setApprovalForAll",
      "outputs": [],
      "stateMutability": "nonpayable",
      "type": "function"
    },
    {
      "inputs": [
        {
          "internalType": "bytes4",
          "name": "interfaceId",
          "type": "bytes4"
        }
      ],
      "name": "supportsInterface",
      "outputs": [
        {
          "internalType": "bool",
          "name": "",
          "type": "bool"
        }
      ],
      "stateMutability": "view",
      "type": "function",
      "constant": true
    },
    {
      "inputs": [],
      "name": "symbol",
      "outputs": [
        {
          "internalType": "string",
          "name": "",
          "type": "string"
        }
      ],
      "stateMutability": "view",
      "type": "function",
      "constant": true
    },
    {
      "inputs": [
        {
          "internalType": "uint256",
          "name": "tokenId",
          "type": "uint256"
        }
      ],
      "name": "tokenURI",
      "outputs": [
        {
          "internalType": "string",
          "name": "",
          "type": "string"
        }
      ],
      "stateMutability": "view",
      "type": "function",
      "constant": true
    },
    {
      "inputs": [
        {
          "internalType": "address",
          "name": "newOwner",
          "type": "address"
        }
      ],
      "name": "transferOwnership",
      "outputs": [],
      "stateMutability": "nonpayable",
      "type": "function"
    },
    {
      "inputs": [
        {
          "internalType": "bool",
          "name": "_isSeller",
          "type": "bool"
        }
      ],
      "name": "addUser",
      "outputs": [
        {
          "internalType": "bool",
          "name": "",
          "type": "bool"
        }
      ],
      "stateMutability": "nonpayable",
      "type": "function"
    },
    {
      "inputs": [
        {
          "internalType": "address",
          "name": "_userAddress",
          "type": "address"
        }
      ],
      "name": "assignAsSeller",
      "outputs": [],
      "stateMutability": "nonpayable",
      "type": "function"
    },
    {
      "inputs": [
        {
          "internalType": "address",
          "name": "recipient",
          "type": "address"
        },
        {
          "internalType": "string",
          "name": "hash",
          "type": "string"
        },
        {
          "internalType": "string",
          "name": "metadata",
          "type": "string"
        }
      ],
      "name": "awardItem",
      "outputs": [
        {
          "internalType": "uint256",
          "name": "",
          "type": "uint256"
        }
      ],
      "stateMutability": "nonpayable",
      "type": "function"
    },
    {
      "inputs": [
        {
          "internalType": "uint256",
          "name": "_tokenId",
          "type": "uint256"
        },
        {
          "internalType": "uint256",
          "name": "price",
          "type": "uint256"
        },
        {
          "internalType": "string",
          "name": "name",
          "type": "string"
        },
        {
          "internalType": "string",
          "name": "model",
          "type": "string"
        },
        {
          "internalType": "string",
          "name": "url",
          "type": "string"
        }
      ],
      "name": "addNFT",
      "outputs": [],
      "stateMutability": "nonpayable",
      "type": "function"
    },
    {
      "inputs": [
        {
          "internalType": "address",
          "name": "from",
          "type": "address"
        },
        {
          "internalType": "address",
          "name": "to",
          "type": "address"
        },
        {
          "internalType": "uint256",
          "name": "tokenId",
          "type": "uint256"
        }
      ],
      "name": "transferFrom",
      "outputs": [],
      "stateMutability": "nonpayable",
      "type": "function"
    },
    {
      "inputs": [
        {
          "internalType": "uint256",
          "name": "tokenId",
          "type": "uint256"
        }
      ],
      "name": "purchaseNFT",
      "outputs": [],
      "stateMutability": "payable",
      "type": "function",
      "payable": true
    },
    {
      "inputs": [
        {
          "internalType": "address payable",
          "name": "_seller",
          "type": "address"
        },
        {
          "internalType": "uint256",
          "name": "_amount",
          "type": "uint256"
        }
      ],
      "name": "sendTo",
      "outputs": [],
      "stateMutability": "payable",
      "type": "function",
      "payable": true
    },
    {
      "inputs": [],
      "name": "getCarForSale",
      "outputs": [
        {
          "components": [
            {
              "internalType": "uint256",
              "name": "tokenId",
              "type": "uint256"
            },
            {
              "internalType": "uint256",
              "name": "carId",
              "type": "uint256"
            },
            {
              "internalType": "address payable",
              "name": "owner",
              "type": "address"
            },
            {
              "internalType": "string",
              "name": "name",
              "type": "string"
            },
            {
              "internalType": "string",
              "name": "model",
              "type": "string"
            },
            {
              "internalType": "string",
              "name": "carUrl",
              "type": "string"
            },
            {
              "internalType": "uint256",
              "name": "price",
              "type": "uint256"
            },
            {
              "internalType": "enum VintageShop.State",
              "name": "state",
              "type": "uint8"
            },
            {
              "internalType": "uint120",
              "name": "purchasedCount",
              "type": "uint120"
            }
          ],
          "internalType": "struct VintageShop.Car[]",
          "name": "",
          "type": "tuple[]"
        }
      ],
      "stateMutability": "view",
      "type": "function",
      "constant": true
    },
    {
      "inputs": [
        {
          "internalType": "address",
          "name": "_user",
          "type": "address"
        }
      ],
      "name": "getPurchasedTokens",
      "outputs": [
        {
          "internalType": "uint256[]",
          "name": "_boughtTokens",
          "type": "uint256[]"
        }
      ],
      "stateMutability": "view",
      "type": "function",
      "constant": true
    },
    {
      "inputs": [],
      "name": "checkUser",
      "outputs": [
        {
          "internalType": "bool",
          "name": "_exists",
          "type": "bool"
        }
      ],
      "stateMutability": "view",
      "type": "function",
      "constant": true
    },
    {
      "inputs": [],
      "name": "getAdmin",
      "outputs": [
        {
          "internalType": "bool",
          "name": "_isAuth",
          "type": "bool"
        },
        {
          "internalType": "bool",
          "name": "_isAdmin",
          "type": "bool"
        }
      ],
      "stateMutability": "view",
      "type": "function",
      "constant": true
    }
  ],
  "bytecode": "0x60806040523480156200001157600080fd5b506040518060400160405280600f81526020017f56696e74616765436172417373657400000000000000000000000000000000008152506040518060400160405280600381526020017f5643410000000000000000000000000000000000000000000000000000000000815250816000908051906020019062000096929190620001f0565b508060019080519060200190620000af929190620001f0565b50505033600760006101000a81548173ffffffffffffffffffffffffffffffffffffffff021916908373ffffffffffffffffffffffffffffffffffffffff160217905550600760009054906101000a900473ffffffffffffffffffffffffffffffffffffffff1673ffffffffffffffffffffffffffffffffffffffff16600073ffffffffffffffffffffffffffffffffffffffff167f8be0079c531659141344cd1fd0a4f28419497f9722a3daafe3b4186f6b6457e060405160405180910390a362000180620001c660201b60201c565b600b60006101000a81548173ffffffffffffffffffffffffffffffffffffffff021916908373ffffffffffffffffffffffffffffffffffffffff16021790555062000305565b6000600760009054906101000a900473ffffffffffffffffffffffffffffffffffffffff16905090565b828054620001fe90620002cf565b90600052602060002090601f0160209004810192826200022257600085556200026e565b82601f106200023d57805160ff19168380011785556200026e565b828001600101855582156200026e579182015b828111156200026d57825182559160200191906001019062000250565b5b5090506200027d919062000281565b5090565b5b808211156200029c57600081600090555060010162000282565b5090565b7f4e487b7100000000000000000000000000000000000000000000000000000000600052602260045260246000fd5b60006002820490506001821680620002e857607f821691505b60208210811415620002ff57620002fe620002a0565b5b50919050565b6157e580620003156000396000f3fe6080604052600436106101d85760003560e01c806376de94e611610102578063b88d4fde11610095578063e985e9c511610064578063e985e9c5146106ed578063ee316b6c1461072a578063f2fde38b14610753578063f851a4401461077c576101d8565b8063b88d4fde1461061f578063c156254714610648578063c35b28b214610673578063c87b56dd146106b0576101d8565b806395d89b41116100d157806395d89b41146105865780639b389f0c146105b15780639e1a00aa146105da578063a22cb465146105f6576101d8565b806376de94e6146104ae5780638bfaf101146104f35780638da5cb5b146105305780638f32d59b1461055b576101d8565b806342842e0e1161017a5780636e9960c3116101495780636e9960c31461040357806370a082311461042f578063715018a61461046c57806374f909bb14610483576101d8565b806342842e0e1461033557806354ed08c81461035e5780635bf8633a1461039b5780636352211e146103c6576101d8565b8063095ea7b3116101b6578063095ea7b314610282578063150bde03146102ab5780631e3e222b146102c757806323b872dd1461030c576101d8565b806301ffc9a7146101dd57806306fdde031461021a578063081812fc14610245575b600080fd5b3480156101e957600080fd5b5061020460048036038101906101ff91906138f4565b6107a7565b604051610211919061393c565b60405180910390f35b34801561022657600080fd5b5061022f610889565b60405161023c91906139f0565b60405180910390f35b34801561025157600080fd5b5061026c60048036038101906102679190613a48565b61091b565b6040516102799190613ab6565b60405180910390f35b34801561028e57600080fd5b506102a960048036038101906102a49190613afd565b6109a0565b005b6102c560048036038101906102c09190613a48565b610ab8565b005b3480156102d357600080fd5b506102ee60048036038101906102e99190613a48565b610dae565b60405161030399989796959493929190613c0e565b60405180910390f35b34801561031857600080fd5b50610333600480360381019061032e9190613cb0565b610fdc565b005b34801561034157600080fd5b5061035c60048036038101906103579190613cb0565b611035565b005b34801561036a57600080fd5b5061038560048036038101906103809190613d03565b611055565b6040516103929190613dee565b60405180910390f35b3480156103a757600080fd5b506103b0611183565b6040516103bd9190613e6f565b60405180910390f35b3480156103d257600080fd5b506103ed60048036038101906103e89190613a48565b6111a9565b6040516103fa9190613ab6565b60405180910390f35b34801561040f57600080fd5b5061041861125b565b604051610426929190613e8a565b60405180910390f35b34801561043b57600080fd5b5061045660048036038101906104519190613d03565b6112c1565b6040516104639190613eb3565b60405180910390f35b34801561047857600080fd5b50610481611379565b005b34801561048f57600080fd5b5061049861144b565b6040516104a591906140da565b60405180910390f35b3480156104ba57600080fd5b506104d560048036038101906104d09190613afd565b6117dc565b6040516104ea99989796959493929190613c0e565b60405180910390f35b3480156104ff57600080fd5b5061051a60048036038101906105159190614231565b611a27565b6040516105279190613eb3565b60405180910390f35b34801561053c57600080fd5b50610545611bf4565b6040516105529190613ab6565b60405180910390f35b34801561056757600080fd5b50610570611c1e565b60405161057d919061393c565b60405180910390f35b34801561059257600080fd5b5061059b611c76565b6040516105a891906139f0565b60405180910390f35b3480156105bd57600080fd5b506105d860048036038101906105d391906142bc565b611d08565b005b6105f460048036038101906105ef91906143b7565b6121ad565b005b34801561060257600080fd5b5061061d60048036038101906106189190614423565b6122cf565b005b34801561062b57600080fd5b5061064660048036038101906106419190614504565b612450565b005b34801561065457600080fd5b5061065d6124b2565b60405161066a919061393c565b60405180910390f35b34801561067f57600080fd5b5061069a60048036038101906106959190614587565b612520565b6040516106a7919061393c565b60405180910390f35b3480156106bc57600080fd5b506106d760048036038101906106d29190613a48565b612729565b6040516106e491906139f0565b60405180910390f35b3480156106f957600080fd5b50610714600480360381019061070f91906145b4565b61287b565b604051610721919061393c565b60405180910390f35b34801561073657600080fd5b50610751600480360381019061074c9190613d03565b61290f565b005b34801561075f57600080fd5b5061077a60048036038101906107759190613d03565b612ad1565b005b34801561078857600080fd5b50610791612aee565b60405161079e91906145f4565b60405180910390f35b60007f80ac58cd000000000000000000000000000000000000000000000000000000007bffffffffffffffffffffffffffffffffffffffffffffffffffffffff1916827bffffffffffffffffffffffffffffffffffffffffffffffffffffffff1916148061087257507f5b5e139f000000000000000000000000000000000000000000000000000000007bffffffffffffffffffffffffffffffffffffffffffffffffffffffff1916827bffffffffffffffffffffffffffffffffffffffffffffffffffffffff1916145b80610882575061088182612b14565b5b9050919050565b6060600080546108989061463e565b80601f01602080910402602001604051908101604052809291908181526020018280546108c49061463e565b80156109115780601f106108e657610100808354040283529160200191610911565b820191906000526020600020905b8154815290600101906020018083116108f457829003601f168201915b5050505050905090565b600061092682612b7e565b610965576040517f08c379a000000000000000000000000000000000000000000000000000000000815260040161095c906146e2565b60405180910390fd5b6004600083815260200190815260200160002060009054906101000a900473ffffffffffffffffffffffffffffffffffffffff169050919050565b60006109ab826111a9565b90508073ffffffffffffffffffffffffffffffffffffffff168373ffffffffffffffffffffffffffffffffffffffff161415610a1c576040517f08c379a0000000000000000000000000000000000000000000000000000000008152600401610a1390614774565b60405180910390fd5b8073ffffffffffffffffffffffffffffffffffffffff16610a3b612bea565b73ffffffffffffffffffffffffffffffffffffffff161480610a6a5750610a6981610a64612bea565b61287b565b5b610aa9576040517f08c379a0000000000000000000000000000000000000000000000000000000008152600401610aa090614806565b60405180910390fd5b610ab38383612bf2565b505050565b33600b60009054906101000a900473ffffffffffffffffffffffffffffffffffffffff1673ffffffffffffffffffffffffffffffffffffffff168173ffffffffffffffffffffffffffffffffffffffff161480610b6757506001600f60008373ffffffffffffffffffffffffffffffffffffffff1673ffffffffffffffffffffffffffffffffffffffff16815260200190815260200160002060000160169054906101000a900460ff1660ff16145b610ba6576040517f08c379a0000000000000000000000000000000000000000000000000000000008152600401610b9d90614872565b60405180910390fd5b816000610bb2826111a9565b905060006014600084815260200190815260200160002060060154905080341015610bdc57600080fd5b846000610be8876111a9565b9050600060146000898152602001908152602001600020600601549050600b60009054906101000a900473ffffffffffffffffffffffffffffffffffffffff1673ffffffffffffffffffffffffffffffffffffffff166108fc829081150290604051600060405180830381858888f19350505050158015610c6d573d6000803e3d6000fd5b50610c7982338a610fdc565b601160003373ffffffffffffffffffffffffffffffffffffffff1673ffffffffffffffffffffffffffffffffffffffff1681526020019081526020016000208890806001815401808255809150506001900390600052602060002001600090919091909150557f02d08db2db312fc60b41a046c46a7772a6c2dcdca0c32a9d3423c6dcbde693e933893447604051610d149493929190614892565b60405180910390a150506000610d29826111a9565b905060006014600084815260200190815260200160002060060154905060008134610d549190614906565b905060003390508073ffffffffffffffffffffffffffffffffffffffff166108fc839081150290604051600060405180830381858888f19350505050158015610da1573d6000803e3d6000fd5b5050505050505050505050565b60146020528060005260406000206000915090508060000154908060010154908060020160009054906101000a900473ffffffffffffffffffffffffffffffffffffffff1690806003018054610e039061463e565b80601f0160208091040260200160405190810160405280929190818152602001828054610e2f9061463e565b8015610e7c5780601f10610e5157610100808354040283529160200191610e7c565b820191906000526020600020905b815481529060010190602001808311610e5f57829003601f168201915b505050505090806004018054610e919061463e565b80601f0160208091040260200160405190810160405280929190818152602001828054610ebd9061463e565b8015610f0a5780601f10610edf57610100808354040283529160200191610f0a565b820191906000526020600020905b815481529060010190602001808311610eed57829003601f168201915b505050505090806005018054610f1f9061463e565b80601f0160208091040260200160405190810160405280929190818152602001828054610f4b9061463e565b8015610f985780601f10610f6d57610100808354040283529160200191610f98565b820191906000526020600020905b815481529060010190602001808311610f7b57829003601f168201915b5050505050908060060154908060070160009054906101000a900460ff16908060070160019054906101000a90046effffffffffffffffffffffffffffff16905089565b610fe63082612cab565b611025576040517f08c379a000000000000000000000000000000000000000000000000000000000815260040161101c906149ac565b60405180910390fd5b611030838383612d89565b505050565b61105083838360405180602001604052806000815250612450565b505050565b6060816001600f60008373ffffffffffffffffffffffffffffffffffffffff1673ffffffffffffffffffffffffffffffffffffffff16815260200190815260200160002060000160169054906101000a900460ff1660ff16146110ed576040517f08c379a00000000000000000000000000000000000000000000000000000000081526004016110e490614872565b60405180910390fd5b601160008473ffffffffffffffffffffffffffffffffffffffff1673ffffffffffffffffffffffffffffffffffffffff16815260200190815260200160002080548060200260200160405190810160405280929190818152602001828054801561117657602002820191906000526020600020905b815481526020019060010190808311611162575b5050505050915050919050565b600960009054906101000a900473ffffffffffffffffffffffffffffffffffffffff1681565b6000806002600084815260200190815260200160002060009054906101000a900473ffffffffffffffffffffffffffffffffffffffff169050600073ffffffffffffffffffffffffffffffffffffffff168173ffffffffffffffffffffffffffffffffffffffff161415611252576040517f08c379a000000000000000000000000000000000000000000000000000000000815260040161124990614a3e565b60405180910390fd5b80915050919050565b60008060019150600b60009054906101000a900473ffffffffffffffffffffffffffffffffffffffff1673ffffffffffffffffffffffffffffffffffffffff163373ffffffffffffffffffffffffffffffffffffffff1614156112bd57600190505b9091565b60008073ffffffffffffffffffffffffffffffffffffffff168273ffffffffffffffffffffffffffffffffffffffff161415611332576040517f08c379a000000000000000000000000000000000000000000000000000000000815260040161132990614ad0565b60405180910390fd5b600360008373ffffffffffffffffffffffffffffffffffffffff1673ffffffffffffffffffffffffffffffffffffffff168152602001908152602001600020549050919050565b611381611c1e565b61138a57600080fd5b600073ffffffffffffffffffffffffffffffffffffffff16600760009054906101000a900473ffffffffffffffffffffffffffffffffffffffff1673ffffffffffffffffffffffffffffffffffffffff167f8be0079c531659141344cd1fd0a4f28419497f9722a3daafe3b4186f6b6457e060405160405180910390a36000600760006101000a81548173ffffffffffffffffffffffffffffffffffffffff021916908373ffffffffffffffffffffffffffffffffffffffff160217905550565b60606000600a8054905067ffffffffffffffff81111561146e5761146d614106565b5b6040519080825280602002602001820160405280156114a757816020015b611494613760565b81526020019060019003908161148c5790505b50905060005b600a805490508110156117d45760156000600a83815481106114d2576114d1614af0565b5b906000526020600020015481526020019081526020016000206040518061012001604052908160008201548152602001600182015481526020016002820160009054906101000a900473ffffffffffffffffffffffffffffffffffffffff1673ffffffffffffffffffffffffffffffffffffffff1673ffffffffffffffffffffffffffffffffffffffff1681526020016003820180546115719061463e565b80601f016020809104026020016040519081016040528092919081815260200182805461159d9061463e565b80156115ea5780601f106115bf576101008083540402835291602001916115ea565b820191906000526020600020905b8154815290600101906020018083116115cd57829003601f168201915b505050505081526020016004820180546116039061463e565b80601f016020809104026020016040519081016040528092919081815260200182805461162f9061463e565b801561167c5780601f106116515761010080835404028352916020019161167c565b820191906000526020600020905b81548152906001019060200180831161165f57829003601f168201915b505050505081526020016005820180546116959061463e565b80601f01602080910402602001604051908101604052809291908181526020018280546116c19061463e565b801561170e5780601f106116e35761010080835404028352916020019161170e565b820191906000526020600020905b8154815290600101906020018083116116f157829003601f168201915b50505050508152602001600682015481526020016007820160009054906101000a900460ff16600381111561174657611745613b6d565b5b600381111561175857611757613b6d565b5b81526020016007820160019054906101000a90046effffffffffffffffffffffffffffff166effffffffffffffffffffffffffffff166effffffffffffffffffffffffffffff16815250508282815181106117b6576117b5614af0565b5b602002602001018190525080806117cc90614b1f565b9150506114ad565b508091505090565b601360205281600052604060002081815481106117f857600080fd5b9060005260206000209060080201600091509150508060000154908060010154908060020160009054906101000a900473ffffffffffffffffffffffffffffffffffffffff169080600301805461184e9061463e565b80601f016020809104026020016040519081016040528092919081815260200182805461187a9061463e565b80156118c75780601f1061189c576101008083540402835291602001916118c7565b820191906000526020600020905b8154815290600101906020018083116118aa57829003601f168201915b5050505050908060040180546118dc9061463e565b80601f01602080910402602001604051908101604052809291908181526020018280546119089061463e565b80156119555780601f1061192a57610100808354040283529160200191611955565b820191906000526020600020905b81548152906001019060200180831161193857829003601f168201915b50505050509080600501805461196a9061463e565b80601f01602080910402602001604051908101604052809291908181526020018280546119969061463e565b80156119e35780601f106119b8576101008083540402835291602001916119e3565b820191906000526020600020905b8154815290600101906020018083116119c657829003601f168201915b5050505050908060060154908060070160009054906101000a900460ff16908060070160019054906101000a90046effffffffffffffffffffffffffffff16905089565b600083600f60008273ffffffffffffffffffffffffffffffffffffffff1673ffffffffffffffffffffffffffffffffffffffff16815260200190815260200160002060000160149054906101000a900460ff168015611ad25750600f60008273ffffffffffffffffffffffffffffffffffffffff1673ffffffffffffffffffffffffffffffffffffffff16815260200190815260200160002060000160159054906101000a900460ff165b611b11576040517f08c379a0000000000000000000000000000000000000000000000000000000008152600401611b0890614bda565b60405180910390fd5b6001600c85604051611b239190614c36565b908152602001604051809103902060009054906101000a900460ff1660ff161415611b4d57600080fd5b6001600c85604051611b5f9190614c36565b908152602001604051809103902060006101000a81548160ff021916908360ff160217905550611b8f6008612fe5565b6000611b9b6008612ffb565b9050611ba78682613009565b611bb181856131d7565b7f84fedafd9490d60ff476d007409fc8709ce33b506d702cddbf1e37b1dc5fc2ef81604051611be09190614c99565b60405180910390a180925050509392505050565b6000600760009054906101000a900473ffffffffffffffffffffffffffffffffffffffff16905090565b6000600760009054906101000a900473ffffffffffffffffffffffffffffffffffffffff1673ffffffffffffffffffffffffffffffffffffffff163373ffffffffffffffffffffffffffffffffffffffff1614905090565b606060018054611c859061463e565b80601f0160208091040260200160405190810160405280929190818152602001828054611cb19061463e565b8015611cfe5780601f10611cd357610100808354040283529160200191611cfe565b820191906000526020600020905b815481529060010190602001808311611ce157829003601f168201915b5050505050905090565b33600f60008273ffffffffffffffffffffffffffffffffffffffff1673ffffffffffffffffffffffffffffffffffffffff16815260200190815260200160002060000160149054906101000a900460ff168015611db15750600f60008273ffffffffffffffffffffffffffffffffffffffff1673ffffffffffffffffffffffffffffffffffffffff16815260200190815260200160002060000160159054906101000a900460ff165b611df0576040517f08c379a0000000000000000000000000000000000000000000000000000000008152600401611de790614bda565b60405180910390fd5b853373ffffffffffffffffffffffffffffffffffffffff16611e11826111a9565b73ffffffffffffffffffffffffffffffffffffffff1614611e3157600080fd5b3373ffffffffffffffffffffffffffffffffffffffff16611e51886111a9565b73ffffffffffffffffffffffffffffffffffffffff1614611ea7576040517f08c379a0000000000000000000000000000000000000000000000000000000008152600401611e9e90614d39565b60405180910390fd5b611eb23060016122cf565b601260003373ffffffffffffffffffffffffffffffffffffffff1673ffffffffffffffffffffffffffffffffffffffff16815260200190815260200160002087908060018154018082558091505060019003906000526020600020016000909190919091505560006001601360003373ffffffffffffffffffffffffffffffffffffffff1673ffffffffffffffffffffffffffffffffffffffff16815260200190815260200160002080549050611f699190614d59565b905086601460008a8152602001908152602001600020600601819055506040518061012001604052808981526020018281526020013373ffffffffffffffffffffffffffffffffffffffff16815260200187815260200186815260200185815260200188815260200160006003811115611fe657611fe5613b6d565b5b815260200160006effffffffffffffffffffffffffffff1681525060156000838152602001908152602001600020600082015181600001556020820151816001015560408201518160020160006101000a81548173ffffffffffffffffffffffffffffffffffffffff021916908373ffffffffffffffffffffffffffffffffffffffff160217905550606082015181600301908051906020019061208b9291906137e5565b5060808201518160040190805190602001906120a89291906137e5565b5060a08201518160050190805190602001906120c59291906137e5565b5060c0820151816006015560e08201518160070160006101000a81548160ff021916908360038111156120fb576120fa613b6d565b5b02179055506101008201518160070160016101000a8154816effffffffffffffffffffffffffffff02191690836effffffffffffffffffffffffffffff160217905550905050600a8890806001815401808255809150506001900390600052602060002001600090919091909150557f1b55ca7f37767d5d7dde158941a1eb3a0e6885bb07d4b83423842bfad99597ce813360405161219b929190614dfb565b60405180910390a15050505050505050565b6121b5611c1e565b6121be57600080fd5b600073ffffffffffffffffffffffffffffffffffffffff168273ffffffffffffffffffffffffffffffffffffffff161415801561222757503073ffffffffffffffffffffffffffffffffffffffff168273ffffffffffffffffffffffffffffffffffffffff1614155b61223057600080fd5b6000811180156122405750478111155b61224957600080fd5b8173ffffffffffffffffffffffffffffffffffffffff166108fc829081150290604051600060405180830381858888f1935050505015801561228f573d6000803e3d6000fd5b507f6356739d963da01dc3533acba7203430fcc14f2175d48a8dd0973d7db49c785e8282476040516122c393929190614e58565b60405180910390a15050565b6122d7612bea565b73ffffffffffffffffffffffffffffffffffffffff168273ffffffffffffffffffffffffffffffffffffffff161415612345576040517f08c379a000000000000000000000000000000000000000000000000000000000815260040161233c90614edb565b60405180910390fd5b8060056000612352612bea565b73ffffffffffffffffffffffffffffffffffffffff1673ffffffffffffffffffffffffffffffffffffffff16815260200190815260200160002060008473ffffffffffffffffffffffffffffffffffffffff1673ffffffffffffffffffffffffffffffffffffffff16815260200190815260200160002060006101000a81548160ff0219169083151502179055508173ffffffffffffffffffffffffffffffffffffffff166123ff612bea565b73ffffffffffffffffffffffffffffffffffffffff167f17307eab39ab6107e8899845ad3d59bd9653f200f220920489ca2b5937696c3183604051612444919061393c565b60405180910390a35050565b61246161245b612bea565b83612cab565b6124a0576040517f08c379a0000000000000000000000000000000000000000000000000000000008152600401612497906149ac565b60405180910390fd5b6124ac8484848461324b565b50505050565b60006001600f60003373ffffffffffffffffffffffffffffffffffffffff1673ffffffffffffffffffffffffffffffffffffffff16815260200190815260200160002060000160169054906101000a900460ff1660ff161415612518576001905061251d565b600090505b90565b600080600f60003373ffffffffffffffffffffffffffffffffffffffff1673ffffffffffffffffffffffffffffffffffffffff16815260200190815260200160002060000160169054906101000a900460ff1660ff16146125b6576040517f08c379a00000000000000000000000000000000000000000000000000000000081526004016125ad90614f47565b60405180910390fd5b6000806001905060405180608001604052803373ffffffffffffffffffffffffffffffffffffffff168152602001851515815260200183151581526020018260ff16815250600f60003373ffffffffffffffffffffffffffffffffffffffff1673ffffffffffffffffffffffffffffffffffffffff16815260200190815260200160002060008201518160000160006101000a81548173ffffffffffffffffffffffffffffffffffffffff021916908373ffffffffffffffffffffffffffffffffffffffff16021790555060208201518160000160146101000a81548160ff02191690831515021790555060408201518160000160156101000a81548160ff02191690831515021790555060608201518160000160166101000a81548160ff021916908360ff1602179055509050507f6ed7fd9c095d25702b515b4fc3c80ddda04a36adc0a6619c93fe1a306784f51e3385604051612716929190614fb3565b60405180910390a1600192505050919050565b606061273482612b7e565b612773576040517f08c379a000000000000000000000000000000000000000000000000000000000815260040161276a90615061565b60405180910390fd5b60006006600084815260200190815260200160002080546127939061463e565b80601f01602080910402602001604051908101604052809291908181526020018280546127bf9061463e565b801561280c5780601f106127e15761010080835404028352916020019161280c565b820191906000526020600020905b8154815290600101906020018083116127ef57829003601f168201915b50505050509050600061281d6132a7565b9050600081511415612833578192505050612876565b600082511115612868578082604051602001612850929190615081565b60405160208183030381529060405292505050612876565b612871846132be565b925050505b919050565b6000600560008473ffffffffffffffffffffffffffffffffffffffff1673ffffffffffffffffffffffffffffffffffffffff16815260200190815260200160002060008373ffffffffffffffffffffffffffffffffffffffff1673ffffffffffffffffffffffffffffffffffffffff16815260200190815260200160002060009054906101000a900460ff16905092915050565b33600b60009054906101000a900473ffffffffffffffffffffffffffffffffffffffff1673ffffffffffffffffffffffffffffffffffffffff168173ffffffffffffffffffffffffffffffffffffffff16146129a0576040517f08c379a0000000000000000000000000000000000000000000000000000000008152600401612997906150f1565b60405180910390fd5b600f60008373ffffffffffffffffffffffffffffffffffffffff1673ffffffffffffffffffffffffffffffffffffffff16815260200190815260200160002060000160149054906101000a900460ff1615612a92576000600f60008473ffffffffffffffffffffffffffffffffffffffff1673ffffffffffffffffffffffffffffffffffffffff168152602001908152602001600020905060018160000160156101000a81548160ff0219169083151502179055507f3505fc606cb13a8df40c7bd1833b8f90b0440b83aa897dfd69927aa28955eb0983604051612a84919061515d565b60405180910390a150612acd565b6040517f08c379a0000000000000000000000000000000000000000000000000000000008152600401612ac4906151d7565b60405180910390fd5b5050565b612ad9611c1e565b612ae257600080fd5b612aeb81613365565b50565b600b60009054906101000a900473ffffffffffffffffffffffffffffffffffffffff1681565b60007f01ffc9a7000000000000000000000000000000000000000000000000000000007bffffffffffffffffffffffffffffffffffffffffffffffffffffffff1916827bffffffffffffffffffffffffffffffffffffffffffffffffffffffff1916149050919050565b60008073ffffffffffffffffffffffffffffffffffffffff166002600084815260200190815260200160002060009054906101000a900473ffffffffffffffffffffffffffffffffffffffff1673ffffffffffffffffffffffffffffffffffffffff1614159050919050565b600033905090565b816004600083815260200190815260200160002060006101000a81548173ffffffffffffffffffffffffffffffffffffffff021916908373ffffffffffffffffffffffffffffffffffffffff160217905550808273ffffffffffffffffffffffffffffffffffffffff16612c65836111a9565b73ffffffffffffffffffffffffffffffffffffffff167f8c5be1e5ebec7d5bd14f71427d1e84f3dd0314c0f7b2291e5b200ac8c7c3b92560405160405180910390a45050565b6000612cb682612b7e565b612cf5576040517f08c379a0000000000000000000000000000000000000000000000000000000008152600401612cec90615269565b60405180910390fd5b6000612d00836111a9565b90508073ffffffffffffffffffffffffffffffffffffffff168473ffffffffffffffffffffffffffffffffffffffff161480612d6f57508373ffffffffffffffffffffffffffffffffffffffff16612d578461091b565b73ffffffffffffffffffffffffffffffffffffffff16145b80612d805750612d7f818561287b565b5b91505092915050565b8273ffffffffffffffffffffffffffffffffffffffff16612da9826111a9565b73ffffffffffffffffffffffffffffffffffffffff1614612dff576040517f08c379a0000000000000000000000000000000000000000000000000000000008152600401612df6906152fb565b60405180910390fd5b600073ffffffffffffffffffffffffffffffffffffffff168273ffffffffffffffffffffffffffffffffffffffff161415612e6f576040517f08c379a0000000000000000000000000000000000000000000000000000000008152600401612e669061538d565b60405180910390fd5b612e7a83838361345f565b612e85600082612bf2565b6001600360008573ffffffffffffffffffffffffffffffffffffffff1673ffffffffffffffffffffffffffffffffffffffff1681526020019081526020016000206000828254612ed59190614906565b925050819055506001600360008473ffffffffffffffffffffffffffffffffffffffff1673ffffffffffffffffffffffffffffffffffffffff1681526020019081526020016000206000828254612f2c9190614d59565b92505081905550816002600083815260200190815260200160002060006101000a81548173ffffffffffffffffffffffffffffffffffffffff021916908373ffffffffffffffffffffffffffffffffffffffff160217905550808273ffffffffffffffffffffffffffffffffffffffff168473ffffffffffffffffffffffffffffffffffffffff167fddf252ad1be2c89b69c2b068fc378daa952ba7f163c4a11628f55a4df523b3ef60405160405180910390a4505050565b6001816000016000828254019250508190555050565b600081600001549050919050565b600073ffffffffffffffffffffffffffffffffffffffff168273ffffffffffffffffffffffffffffffffffffffff161415613079576040517f08c379a0000000000000000000000000000000000000000000000000000000008152600401613070906153f9565b60405180910390fd5b61308281612b7e565b156130c2576040517f08c379a00000000000000000000000000000000000000000000000000000000081526004016130b990615465565b60405180910390fd5b6130ce6000838361345f565b6001600360008473ffffffffffffffffffffffffffffffffffffffff1673ffffffffffffffffffffffffffffffffffffffff168152602001908152602001600020600082825461311e9190614d59565b92505081905550816002600083815260200190815260200160002060006101000a81548173ffffffffffffffffffffffffffffffffffffffff021916908373ffffffffffffffffffffffffffffffffffffffff160217905550808273ffffffffffffffffffffffffffffffffffffffff16600073ffffffffffffffffffffffffffffffffffffffff167fddf252ad1be2c89b69c2b068fc378daa952ba7f163c4a11628f55a4df523b3ef60405160405180910390a45050565b6131e082612b7e565b61321f576040517f08c379a0000000000000000000000000000000000000000000000000000000008152600401613216906154f7565b60405180910390fd5b806006600084815260200190815260200160002090805190602001906132469291906137e5565b505050565b613256848484612d89565b61326284848484613464565b6132a1576040517f08c379a000000000000000000000000000000000000000000000000000000000815260040161329890615589565b60405180910390fd5b50505050565b606060405180602001604052806000815250905090565b60606132c982612b7e565b613308576040517f08c379a00000000000000000000000000000000000000000000000000000000081526004016132ff9061561b565b60405180910390fd5b60006133126132a7565b90506000815111613332576040518060200160405280600081525061335d565b8061333c846135ec565b60405160200161334d929190615081565b6040516020818303038152906040525b915050919050565b600073ffffffffffffffffffffffffffffffffffffffff168173ffffffffffffffffffffffffffffffffffffffff16141561339f57600080fd5b8073ffffffffffffffffffffffffffffffffffffffff16600760009054906101000a900473ffffffffffffffffffffffffffffffffffffffff1673ffffffffffffffffffffffffffffffffffffffff167f8be0079c531659141344cd1fd0a4f28419497f9722a3daafe3b4186f6b6457e060405160405180910390a380600760006101000a81548173ffffffffffffffffffffffffffffffffffffffff021916908373ffffffffffffffffffffffffffffffffffffffff16021790555050565b505050565b60006134858473ffffffffffffffffffffffffffffffffffffffff1661374d565b156135df578373ffffffffffffffffffffffffffffffffffffffff1663150b7a026134ae612bea565b8786866040518563ffffffff1660e01b81526004016134d09493929190615690565b6020604051808303816000875af192505050801561350c57506040513d601f19601f8201168201806040525081019061350991906156f1565b60015b61358f573d806000811461353c576040519150601f19603f3d011682016040523d82523d6000602084013e613541565b606091505b50600081511415613587576040517f08c379a000000000000000000000000000000000000000000000000000000000815260040161357e90615589565b60405180910390fd5b805181602001fd5b63150b7a0260e01b7bffffffffffffffffffffffffffffffffffffffffffffffffffffffff1916817bffffffffffffffffffffffffffffffffffffffffffffffffffffffff1916149150506135e4565b600190505b949350505050565b60606000821415613634576040518060400160405280600181526020017f30000000000000000000000000000000000000000000000000000000000000008152509050613748565b600082905060005b6000821461366657808061364f90614b1f565b915050600a8261365f919061574d565b915061363c565b60008167ffffffffffffffff81111561368257613681614106565b5b6040519080825280601f01601f1916602001820160405280156136b45781602001600182028036833780820191505090505b5090505b60008514613741576001826136cd9190614906565b9150600a856136dc919061577e565b60306136e89190614d59565b60f81b8183815181106136fe576136fd614af0565b5b60200101907effffffffffffffffffffffffffffffffffffffffffffffffffffffffffffff1916908160001a905350600a8561373a919061574d565b94506136b8565b8093505050505b919050565b600080823b905060008111915050919050565b6040518061012001604052806000815260200160008152602001600073ffffffffffffffffffffffffffffffffffffffff16815260200160608152602001606081526020016060815260200160008152602001600060038111156137c7576137c6613b6d565b5b815260200160006effffffffffffffffffffffffffffff1681525090565b8280546137f19061463e565b90600052602060002090601f016020900481019282613813576000855561385a565b82601f1061382c57805160ff191683800117855561385a565b8280016001018555821561385a579182015b8281111561385957825182559160200191906001019061383e565b5b509050613867919061386b565b5090565b5b8082111561388457600081600090555060010161386c565b5090565b6000604051905090565b600080fd5b600080fd5b60007fffffffff0000000000000000000000000000000000000000000000000000000082169050919050565b6138d18161389c565b81146138dc57600080fd5b50565b6000813590506138ee816138c8565b92915050565b60006020828403121561390a57613909613892565b5b6000613918848285016138df565b91505092915050565b60008115159050919050565b61393681613921565b82525050565b6000602082019050613951600083018461392d565b92915050565b600081519050919050565b600082825260208201905092915050565b60005b83811015613991578082015181840152602081019050613976565b838111156139a0576000848401525b50505050565b6000601f19601f8301169050919050565b60006139c282613957565b6139cc8185613962565b93506139dc818560208601613973565b6139e5816139a6565b840191505092915050565b60006020820190508181036000830152613a0a81846139b7565b905092915050565b6000819050919050565b613a2581613a12565b8114613a3057600080fd5b50565b600081359050613a4281613a1c565b92915050565b600060208284031215613a5e57613a5d613892565b5b6000613a6c84828501613a33565b91505092915050565b600073ffffffffffffffffffffffffffffffffffffffff82169050919050565b6000613aa082613a75565b9050919050565b613ab081613a95565b82525050565b6000602082019050613acb6000830184613aa7565b92915050565b613ada81613a95565b8114613ae557600080fd5b50565b600081359050613af781613ad1565b92915050565b60008060408385031215613b1457613b13613892565b5b6000613b2285828601613ae8565b9250506020613b3385828601613a33565b9150509250929050565b613b4681613a12565b82525050565b6000613b5782613a75565b9050919050565b613b6781613b4c565b82525050565b7f4e487b7100000000000000000000000000000000000000000000000000000000600052602160045260246000fd5b60048110613bad57613bac613b6d565b5b50565b6000819050613bbe82613b9c565b919050565b6000613bce82613bb0565b9050919050565b613bde81613bc3565b82525050565b60006effffffffffffffffffffffffffffff82169050919050565b613c0881613be4565b82525050565b600061012082019050613c24600083018c613b3d565b613c31602083018b613b3d565b613c3e604083018a613b5e565b8181036060830152613c5081896139b7565b90508181036080830152613c6481886139b7565b905081810360a0830152613c7881876139b7565b9050613c8760c0830186613b3d565b613c9460e0830185613bd5565b613ca2610100830184613bff565b9a9950505050505050505050565b600080600060608486031215613cc957613cc8613892565b5b6000613cd786828701613ae8565b9350506020613ce886828701613ae8565b9250506040613cf986828701613a33565b9150509250925092565b600060208284031215613d1957613d18613892565b5b6000613d2784828501613ae8565b91505092915050565b600081519050919050565b600082825260208201905092915050565b6000819050602082019050919050565b613d6581613a12565b82525050565b6000613d778383613d5c565b60208301905092915050565b6000602082019050919050565b6000613d9b82613d30565b613da58185613d3b565b9350613db083613d4c565b8060005b83811015613de1578151613dc88882613d6b565b9750613dd383613d83565b925050600181019050613db4565b5085935050505092915050565b60006020820190508181036000830152613e088184613d90565b905092915050565b6000819050919050565b6000613e35613e30613e2b84613a75565b613e10565b613a75565b9050919050565b6000613e4782613e1a565b9050919050565b6000613e5982613e3c565b9050919050565b613e6981613e4e565b82525050565b6000602082019050613e846000830184613e60565b92915050565b6000604082019050613e9f600083018561392d565b613eac602083018461392d565b9392505050565b6000602082019050613ec86000830184613b3d565b92915050565b600081519050919050565b600082825260208201905092915050565b6000819050602082019050919050565b613f0381613b4c565b82525050565b600082825260208201905092915050565b6000613f2582613957565b613f2f8185613f09565b9350613f3f818560208601613973565b613f48816139a6565b840191505092915050565b613f5c81613bc3565b82525050565b613f6b81613be4565b82525050565b600061012083016000830151613f8a6000860182613d5c565b506020830151613f9d6020860182613d5c565b506040830151613fb06040860182613efa565b5060608301518482036060860152613fc88282613f1a565b91505060808301518482036080860152613fe28282613f1a565b91505060a083015184820360a0860152613ffc8282613f1a565b91505060c083015161401160c0860182613d5c565b5060e083015161402460e0860182613f53565b50610100830151614039610100860182613f62565b508091505092915050565b60006140508383613f71565b905092915050565b6000602082019050919050565b600061407082613ece565b61407a8185613ed9565b93508360208202850161408c85613eea565b8060005b858110156140c857848403895281516140a98582614044565b94506140b483614058565b925060208a01995050600181019050614090565b50829750879550505050505092915050565b600060208201905081810360008301526140f48184614065565b905092915050565b600080fd5b600080fd5b7f4e487b7100000000000000000000000000000000000000000000000000000000600052604160045260246000fd5b61413e826139a6565b810181811067ffffffffffffffff8211171561415d5761415c614106565b5b80604052505050565b6000614170613888565b905061417c8282614135565b919050565b600067ffffffffffffffff82111561419c5761419b614106565b5b6141a5826139a6565b9050602081019050919050565b82818337600083830152505050565b60006141d46141cf84614181565b614166565b9050828152602081018484840111156141f0576141ef614101565b5b6141fb8482856141b2565b509392505050565b600082601f830112614218576142176140fc565b5b81356142288482602086016141c1565b91505092915050565b60008060006060848603121561424a57614249613892565b5b600061425886828701613ae8565b935050602084013567ffffffffffffffff81111561427957614278613897565b5b61428586828701614203565b925050604084013567ffffffffffffffff8111156142a6576142a5613897565b5b6142b286828701614203565b9150509250925092565b600080600080600060a086880312156142d8576142d7613892565b5b60006142e688828901613a33565b95505060206142f788828901613a33565b945050604086013567ffffffffffffffff81111561431857614317613897565b5b61432488828901614203565b935050606086013567ffffffffffffffff81111561434557614344613897565b5b61435188828901614203565b925050608086013567ffffffffffffffff81111561437257614371613897565b5b61437e88828901614203565b9150509295509295909350565b61439481613b4c565b811461439f57600080fd5b50565b6000813590506143b18161438b565b92915050565b600080604083850312156143ce576143cd613892565b5b60006143dc858286016143a2565b92505060206143ed85828601613a33565b9150509250929050565b61440081613921565b811461440b57600080fd5b50565b60008135905061441d816143f7565b92915050565b6000806040838503121561443a57614439613892565b5b600061444885828601613ae8565b92505060206144598582860161440e565b9150509250929050565b600067ffffffffffffffff82111561447e5761447d614106565b5b614487826139a6565b9050602081019050919050565b60006144a76144a284614463565b614166565b9050828152602081018484840111156144c3576144c2614101565b5b6144ce8482856141b2565b509392505050565b600082601f8301126144eb576144ea6140fc565b5b81356144fb848260208601614494565b91505092915050565b6000806000806080858703121561451e5761451d613892565b5b600061452c87828801613ae8565b945050602061453d87828801613ae8565b935050604061454e87828801613a33565b925050606085013567ffffffffffffffff81111561456f5761456e613897565b5b61457b878288016144d6565b91505092959194509250565b60006020828403121561459d5761459c613892565b5b60006145ab8482850161440e565b91505092915050565b600080604083850312156145cb576145ca613892565b5b60006145d985828601613ae8565b92505060206145ea85828601613ae8565b9150509250929050565b60006020820190506146096000830184613b5e565b92915050565b7f4e487b7100000000000000000000000000000000000000000000000000000000600052602260045260246000fd5b6000600282049050600182168061465657607f821691505b6020821081141561466a5761466961460f565b5b50919050565b7f4552433732313a20617070726f76656420717565727920666f72206e6f6e657860008201527f697374656e7420746f6b656e0000000000000000000000000000000000000000602082015250565b60006146cc602c83613962565b91506146d782614670565b604082019050919050565b600060208201905081810360008301526146fb816146bf565b9050919050565b7f4552433732313a20617070726f76616c20746f2063757272656e74206f776e6560008201527f7200000000000000000000000000000000000000000000000000000000000000602082015250565b600061475e602183613962565b915061476982614702565b604082019050919050565b6000602082019050818103600083015261478d81614751565b9050919050565b7f4552433732313a20617070726f76652063616c6c6572206973206e6f74206f7760008201527f6e6572206e6f7220617070726f76656420666f7220616c6c0000000000000000602082015250565b60006147f0603883613962565b91506147fb82614794565b604082019050919050565b6000602082019050818103600083015261481f816147e3565b9050919050565b7f7573657220646f6573206e6f7420657869737400000000000000000000000000600082015250565b600061485c601383613962565b915061486782614826565b602082019050919050565b6000602082019050818103600083015261488b8161484f565b9050919050565b60006080820190506148a76000830187613aa7565b6148b46020830186613b3d565b6148c16040830185613b3d565b6148ce6060830184613b3d565b95945050505050565b7f4e487b7100000000000000000000000000000000000000000000000000000000600052601160045260246000fd5b600061491182613a12565b915061491c83613a12565b92508282101561492f5761492e6148d7565b5b828203905092915050565b7f4552433732313a207472616e736665722063616c6c6572206973206e6f74206f60008201527f776e6572206e6f7220617070726f766564000000000000000000000000000000602082015250565b6000614996603183613962565b91506149a18261493a565b604082019050919050565b600060208201905081810360008301526149c581614989565b9050919050565b7f4552433732313a206f776e657220717565727920666f72206e6f6e657869737460008201527f656e7420746f6b656e0000000000000000000000000000000000000000000000602082015250565b6000614a28602983613962565b9150614a33826149cc565b604082019050919050565b60006020820190508181036000830152614a5781614a1b565b9050919050565b7f4552433732313a2062616c616e636520717565727920666f7220746865207a6560008201527f726f206164647265737300000000000000000000000000000000000000000000602082015250565b6000614aba602a83613962565b9150614ac582614a5e565b604082019050919050565b60006020820190508181036000830152614ae981614aad565b9050919050565b7f4e487b7100000000000000000000000000000000000000000000000000000000600052603260045260246000fd5b6000614b2a82613a12565b91507fffffffffffffffffffffffffffffffffffffffffffffffffffffffffffffffff821415614b5d57614b5c6148d7565b5b600182019050919050565b7f75736572206973206e6f7420612073656c6c6572206f72206973206e6f74207660008201527f6572696669656400000000000000000000000000000000000000000000000000602082015250565b6000614bc4602783613962565b9150614bcf82614b68565b604082019050919050565b60006020820190508181036000830152614bf381614bb7565b9050919050565b600081905092915050565b6000614c1082613957565b614c1a8185614bfa565b9350614c2a818560208601613973565b80840191505092915050565b6000614c428284614c05565b915081905092915050565b7f4e4654206d696e746564207375636365737366756c6c79000000000000000000600082015250565b6000614c83601783613962565b9150614c8e82614c4d565b602082019050919050565b60006040820190508181036000830152614cb281614c76565b9050614cc16020830184613b3d565b92915050565b7f4f6e6c7920746f6b656e206f776e65722063616e2070757420757020746f6b6560008201527f6e20666f722073656c6c00000000000000000000000000000000000000000000602082015250565b6000614d23602a83613962565b9150614d2e82614cc7565b604082019050919050565b60006020820190508181036000830152614d5281614d16565b9050919050565b6000614d6482613a12565b9150614d6f83613a12565b9250827fffffffffffffffffffffffffffffffffffffffffffffffffffffffffffffffff03821115614da457614da36148d7565b5b828201905092915050565b7f43617220466f722073616c650000000000000000000000000000000000000000600082015250565b6000614de5600c83613962565b9150614df082614daf565b602082019050919050565b60006060820190508181036000830152614e1481614dd8565b9050614e236020830185613b3d565b614e306040830184613aa7565b9392505050565b6000614e4282613e3c565b9050919050565b614e5281614e37565b82525050565b6000606082019050614e6d6000830186614e49565b614e7a6020830185613b3d565b614e876040830184613b3d565b949350505050565b7f4552433732313a20617070726f766520746f2063616c6c657200000000000000600082015250565b6000614ec5601983613962565b9150614ed082614e8f565b602082019050919050565b60006020820190508181036000830152614ef481614eb8565b9050919050565b7f7573657220616c72656164792065786973740000000000000000000000000000600082015250565b6000614f31601283613962565b9150614f3c82614efb565b602082019050919050565b60006020820190508181036000830152614f6081614f24565b9050919050565b7f557365722063726561746564207375636365737366756c6c7900000000000000600082015250565b6000614f9d601983613962565b9150614fa882614f67565b602082019050919050565b60006060820190508181036000830152614fcc81614f90565b9050614fdb6020830185613aa7565b614fe8604083018461392d565b9392505050565b7f45524337323155524953746f726167653a2055524920717565727920666f722060008201527f6e6f6e6578697374656e7420746f6b656e000000000000000000000000000000602082015250565b600061504b603183613962565b915061505682614fef565b604082019050919050565b6000602082019050818103600083015261507a8161503e565b9050919050565b600061508d8285614c05565b91506150998284614c05565b91508190509392505050565b7f63616c6c6572206d75737420626520616e2061646d696e000000000000000000600082015250565b60006150db601783613962565b91506150e6826150a5565b602082019050919050565b6000602082019050818103600083015261510a816150ce565b9050919050565b7f73656c6c6572207665726966696564207375636365737366756c6c7900000000600082015250565b6000615147601c83613962565b915061515282615111565b602082019050919050565b600060408201905081810360008301526151768161513a565b90506151856020830184613aa7565b92915050565b7f75736572206973206e6f7420612073656c6c6572000000000000000000000000600082015250565b60006151c1601483613962565b91506151cc8261518b565b602082019050919050565b600060208201905081810360008301526151f0816151b4565b9050919050565b7f4552433732313a206f70657261746f7220717565727920666f72206e6f6e657860008201527f697374656e7420746f6b656e0000000000000000000000000000000000000000602082015250565b6000615253602c83613962565b915061525e826151f7565b604082019050919050565b6000602082019050818103600083015261528281615246565b9050919050565b7f4552433732313a207472616e73666572206f6620746f6b656e2074686174206960008201527f73206e6f74206f776e0000000000000000000000000000000000000000000000602082015250565b60006152e5602983613962565b91506152f082615289565b604082019050919050565b60006020820190508181036000830152615314816152d8565b9050919050565b7f4552433732313a207472616e7366657220746f20746865207a65726f2061646460008201527f7265737300000000000000000000000000000000000000000000000000000000602082015250565b6000615377602483613962565b91506153828261531b565b604082019050919050565b600060208201905081810360008301526153a68161536a565b9050919050565b7f4552433732313a206d696e7420746f20746865207a65726f2061646472657373600082015250565b60006153e3602083613962565b91506153ee826153ad565b602082019050919050565b60006020820190508181036000830152615412816153d6565b9050919050565b7f4552433732313a20746f6b656e20616c7265616479206d696e74656400000000600082015250565b600061544f601c83613962565b915061545a82615419565b602082019050919050565b6000602082019050818103600083015261547e81615442565b9050919050565b7f45524337323155524953746f726167653a2055524920736574206f66206e6f6e60008201527f6578697374656e7420746f6b656e000000000000000000000000000000000000602082015250565b60006154e1602e83613962565b91506154ec82615485565b604082019050919050565b60006020820190508181036000830152615510816154d4565b9050919050565b7f4552433732313a207472616e7366657220746f206e6f6e20455243373231526560008201527f63656976657220696d706c656d656e7465720000000000000000000000000000602082015250565b6000615573603283613962565b915061557e82615517565b604082019050919050565b600060208201905081810360008301526155a281615566565b9050919050565b7f4552433732314d657461646174613a2055524920717565727920666f72206e6f60008201527f6e6578697374656e7420746f6b656e0000000000000000000000000000000000602082015250565b6000615605602f83613962565b9150615610826155a9565b604082019050919050565b60006020820190508181036000830152615634816155f8565b9050919050565b600081519050919050565b600082825260208201905092915050565b60006156628261563b565b61566c8185615646565b935061567c818560208601613973565b615685816139a6565b840191505092915050565b60006080820190506156a56000830187613aa7565b6156b26020830186613aa7565b6156bf6040830185613b3d565b81810360608301526156d18184615657565b905095945050505050565b6000815190506156eb816138c8565b92915050565b60006020828403121561570757615706613892565b5b6000615715848285016156dc565b91505092915050565b7f4e487b7100000000000000000000000000000000000000000000000000000000600052601260045260246000fd5b600061575882613a12565b915061576383613a12565b9250826157735761577261571e565b5b828204905092915050565b600061578982613a12565b915061579483613a12565b9250826157a4576157a361571e565b5b82820690509291505056fea264697066735822122005c876a7df798c1e435ab5532bebd9b98f8ebba4139d6fdc83845968d244760564736f6c634300080a0033",
  "immutableReferences": {},
  "source": "// SPDX-License-Identifier: MIT\npragma solidity >=0.4.22 <0.9.0;  \nimport \"@openzeppelin/contracts/token/ERC721/extensions/ERC721URIStorage.sol\";\nimport \"@openzeppelin/contracts/utils/Counters.sol\";\nimport \"./SafeMath.sol\";\nimport \"./Ownable.sol\";\n\ncontract VintageShop is ERC721URIStorage, Ownable {\n  using SafeMath for uint256;\n  using SafeMath for uint16;\n  using Counters for Counters.Counter;\n\n  // a variable to keep track of all the tokens we have issued\n  Counters.Counter private _tokenIds;\n  ERC721 public nftAddress;\n  uint256[] carsForsale;\n\n  address payable public admin; //addres of the admin\n\n  constructor()  ERC721(\"VintageCarAsset\", \"VCA\"){\n    admin = payable(owner());\n    \n    \n  }\n  //a mapping for all IPFSHashes associated with a unique token\n  mapping(string => uint8) hashes;\n\n  uint8 private _VintangeShopMinimumCommision;\n  //mappings\n\n  //each car owner has anuni\n  mapping (uint => bytes32) carToHash; \n\n  // every user should have ab address\n  mapping (address => User) users;\n\n  // the list of cars indexed by car hash -> numerical id\n  mapping (bytes32 => uint) private carHashes;\n\n  // list of cars bought by users [buyers]\n  mapping (address => uint256[]) private boughtTokens;\n    \n  // lists of cars owned by users [sellers]\n  mapping (address => uint256[]) private ownedTokens;\n\n  //maps each car minted as NFT is stored in the car database\n  mapping(address => Car[]) public carDatabase;\n\n  mapping(uint256 => Car) public carToken;\n\n  //maps each car minted as NFT to its details such as: name, imageurl,model asnd price\n  mapping(uint256=> Car) mappedDetails;\n\n  //maps a users address to a users balance\n  mapping(address => uint) balances;\n\n  // <enum State: ForSale, Sold, Shipped, Received>\n  // the state tells the current state of the car \n  enum State {ForSale, Sold, Shipped, Received}\n\n  // all users can buy  and sell but needs admin approval to be a seller\n  struct User {\n    address userAddress; \n    bool isSeller; // is the user a seller or a buyer\n    bool isSellerVerified; //a user can be verified as a seller by the admin\n    uint8 userExists; //each user is assigned an id\n  }\n\n\n  struct Car {\n    uint256 tokenId; // nftID id of the car \n    uint carId; //id of the car\n    address payable owner; //address of the vintage car owner to receive funds after pament is being made\n    string name; // name of the car\n    string model; //model or year of the car\n    string carUrl; //imageurl of the car\n    uint price; // price of the car\n    State state;\n    uint120  purchasedCount; //number of car purchases\n\n  }  \n  \n  \n\n  //events\n    //user creation\n    event UserCreated(string message, address _userAddress, bool _isSeller);\n\n    //approve a user as a seller\n    event SellerVerified(string message, address _userAddress);\n\n    //logforsale for car added\n    event ForSale(string message, uint _carId, address seller);\n\n    //check if user exists or is a new user\n    event UserExists(string message);\n\n    //emits when the users is a new user\n    event NewUser(string message);\n   //emits when a car is sold\n    event Sold(string message, uint _carId, address buyer);\n    //emits when a car is successfully minted as an NFT\n    event Minted(string message , uint _tokenId);\n    //emits when the car price is recieved by the contract address\n    event Received(address buyer, uint _tokenId, uint amount, uint balance);\n   \n    //emits when a seller is credited by the the admin from the contract\n    event Sent(address seller, uint256 amount, uint256 balance);\n\n  //modifiers\n  //verify that the caller of the function is an admin\n  /** \n     \n     * @param _address address of user\n     */\n  modifier isAdmin(address _address){\n    require(_address == admin, \"caller must be an admin\");\n    _;\n  }\n\n  //verify if the caller of the function is an admin or user;\n   /** \n     * @dev checks if the caller is a user or an admin\n     * @param _address address of user\n     */\n  modifier isUserOrAdmin(address _address){\n    require(_address == admin || users[_address].userExists == 1, \"user does not exist\");\n    _;\n  }\n\n   /** \n     * @dev checks is seller is verified to sell\n     * @param _address address of user?\n     */\n  modifier IsSellerVerified(address _address){\n    require(users[_address].isSeller && users[_address].isSellerVerified, \"user is not a seller or is not verified\" );\n    _;\n  }\n\n  /** \n     * @dev checks the owner of the token is the caller\n     * @param _tokenId Id of the token\n     */\n     modifier VerifyNFTOwner(uint256 _tokenId){\n      require(ownerOf(_tokenId) == msg.sender);\n      _;\n     }\n\n      /** \n     * @dev checks the buyer has enough money to buy the Car\n     * @param _tokenId Id of the token to get exact price of the token\n     */\n     modifier hasEnough(uint256 _tokenId){\n      address seller = ownerOf(_tokenId);\n       uint sellerPrice = carToken[_tokenId].price;\n      //  console.log(\"sellerPrice\", sellerPrice);\n       require(msg.value >= sellerPrice);  \n       _;\n     }\n\n      /** \n     * @dev checks the value is higher than the price and refunds the buyer is there is an extra\n     * @param _tokenId Id of the token to get exact price of the token\n     */\n     modifier checkValue(uint256 _tokenId) {\n      //refund them after pay for NFT (why it is before, _ checks for logic before func)\n      _;\n      address seller = ownerOf(_tokenId);\n      uint _price = carToken[_tokenId].price;\n      uint amountToRefund = msg.value - _price;\n      address payable buyer = payable(msg.sender);\n      buyer.transfer(amountToRefund);\n    }\n\n     /** \n     * @dev Checks if user exists in Bookshop record\n     * @param userAddress Address of user\n     */\n     modifier userExists(address userAddress){\n      require(users[userAddress].userExists == 1, \"user does not exist\");\n      _;\n  }\n\n\n\n\n\n\n\n  //functions\n\n   /** \n     * @dev Registers new user\n     * @param _isSeller Is new user a car owner?\n     */\n  function addUser(bool _isSeller) external returns (bool){\n    require(users[msg.sender].userExists == 0, \"user already exist\");\n      bool _isSellerVerified = false;\n      uint8 _userExists = 1;\n      users[msg.sender] = User({\n        userAddress: msg.sender,\n        isSeller: _isSeller,\n        isSellerVerified:_isSellerVerified,\n        userExists: _userExists\n      });\n\n      emit UserCreated(\"User created successfully\", msg.sender, _isSeller);\n\n      return true;\n  }\n\n   /** \n     * @dev Admin verifies a user by assigning isSeller verified to a seller\n     * @param _userAddress address of user to be assigned as seller\n     */\n  function assignAsSeller(address _userAddress) isAdmin(msg.sender) external {\n    if(users[_userAddress].isSeller){\n      User storage user = users[_userAddress];\n      user.isSellerVerified = true;\n\n      emit SellerVerified(\"seller verified successfully\", _userAddress);\n    }\n    else{\n      revert(\"user is not a seller\");\n    }\n  }\n\n  /** \n     * @dev Seller Mints vintage car as NFT after being verified as seller by the admin for particul\n     * @param recipient address of the seller minting the NFT\n     * @param hash IPFS Hash of car\n     * @param metadata IPFurl of car hash\n     */\n     function awardItem(address recipient, string memory hash, string memory metadata)\n      IsSellerVerified(recipient) external\n        returns (uint256)\n      {\n        require(hashes[hash] != 1);\n        hashes[hash] = 1;\n        _tokenIds.increment();\n        uint256 newItemId = _tokenIds.current();\n        _mint(recipient, newItemId);\n        _setTokenURI(newItemId, metadata);\n        emit Minted(\"NFT minted successfully\", newItemId);\n\n        return newItemId;\n}\n\n  /** \n     * @dev Seller Puts the NFT up forsale\n     * @param _tokenId Token to be Sold\n     * @param price price the seller wants to sell\n     * @param name Name of the car the seller wants to sell\n     * @param model model of the car the seller wants to sell\n     */\n     function addNFT(uint256 _tokenId, uint price, string memory name, string memory model, string memory url)\n      IsSellerVerified(msg.sender) VerifyNFTOwner(_tokenId) external{\n        require(ownerOf(_tokenId) == msg.sender, \"Only token owner can put up token for sell\");\n        setApprovalForAll(address(this), true);\n        ownedTokens[msg.sender].push(_tokenId);\n        uint newCarId = carDatabase[msg.sender].length + 1;\n        \n        carToken[_tokenId].price = price;\n        mappedDetails[newCarId] = Car({\n          tokenId: _tokenId,\n          carId: newCarId,\n          price: price,\n          name: name,\n          carUrl: url,\n          model: model,\n          state: State.ForSale,\n          owner: payable(msg.sender),\n          purchasedCount: 0\n        });\n        carsForsale.push(_tokenId);\n        emit ForSale(\"Car For sale\", newCarId, msg.sender);\n\n\n      \n     } \n\n       /** \n     * @dev Seller tranfers ownership token to the buyer\n     * @param from address of the seller\n     * @param to address of buyer\n     * @param tokenId Id of the token being sold\n     */\n\n      function transferFrom(\n        address from,\n        address to,\n        uint256 tokenId\n      ) public virtual override {\n          //solhint-disable-next-line max-line-length\n          require(_isApprovedOrOwner(address(this), tokenId), \"ERC721: transfer caller is not owner nor approved\");\n\n          _transfer(from, to, tokenId);\n      }\n\n\n      /** \n     * @dev Buyer buys the NFT up forsale\n     * @dev the state is updated to sold\n     * @param tokenId Id of Token to be Sold\n\n     */\n     function purchaseNFT (uint256 tokenId)\n      isUserOrAdmin(msg.sender) hasEnough(tokenId) checkValue(tokenId) payable external {\n        address payable seller = payable(ownerOf(tokenId));\n        uint _price = carToken[tokenId].price;\n        // balances[address(this)] +=_price;\n        admin.transfer(_price);\n        transferFrom(seller, msg.sender, tokenId);\n        boughtTokens[msg.sender].push(tokenId);\n        // carDatabase[seller][tokenId].state = State.Sold;\n        emit Received(msg.sender, tokenId, msg.value, address(this).balance);\n\n     }\n\n    //  functi  on getCarPrice(uint)\n\n    \n    /**\n    * @dev admin sends / withdraw _amount to seller\n       * @param _seller Address of the seller\n       * @param _amount Amount to send to the seller\n    */\n    function sendTo(address payable _seller, uint256 _amount) payable external onlyOwner {\n      require(_seller != address(0) && _seller != address(this));\n      require(_amount > 0 && _amount <= address(this).balance);\n      _seller.transfer(_amount);\n      emit Sent(_seller, _amount, address(this).balance);\n      }\n  \n\n        /**\n    * @dev gets the cars avaialable  forsale\n    */ \n      function getCarForSale() public view returns(Car[] memory ){\n        Car[] memory details = new Car[](carsForsale.length);\n\n        for(uint256 x=0;x<carsForsale.length;x++){\n          details[x] = mappedDetails[carsForsale[x]];\n        }\n     \n      return details;\n      }\n        /**\n     * @dev requests for tokens paid for by an existion user\n     */\n      // TO DO: fetching images tied to each token  and returning it whith the array\n      function getPurchasedTokens(address _user) userExists(_user) view public returns(uint256[] memory _boughtTokens ){\n        _boughtTokens = boughtTokens[_user];\n      }\n      \n   \n         /**\n     * @dev Checks if User exists before signing in user \n     */\n    function checkUser() view external returns (bool _exists) {\n      if(users[msg.sender].userExists == 1){\n        _exists = true;\n      } else{\n        _exists = false;\n        // emit NewUser(\"this is a new user\");\n      }\n      return _exists;\n      \n    }\n\n      /**\n     * @dev Verify/Authenticate Admin\n     */\n    function getAdmin() view external returns (bool _isAuth, bool _isAdmin ) {\n      _isAuth = true;\n      if(msg.sender == admin){\n        _isAdmin = true;\n      }\n     \n    }\n  \n\n  \n}\n",
  "sourcePath": "/home/thobby/academy/thobby/blockchain-developer-bootcamp-final-project/contracts/VintageShop.sol",
  "compiler": {
    "name": "solc",
    "version": "0.8.10+commit.fc410830.Emscripten.clang"
  },
  "schemaVersion": "3.4.3",
  "updatedAt": "2021-11-25T00:17:12.911Z",
  "networkType": "ethereum",
  "devdoc": {
    "kind": "dev",
    "methods": {
      "addNFT(uint256,uint256,string,string,string)": {
        "details": "Seller Puts the NFT up forsale",
        "params": {
          "_tokenId": "Token to be Sold",
          "model": "model of the car the seller wants to sell",
          "name": "Name of the car the seller wants to sell",
          "price": "price the seller wants to sell"
        }
      },
      "addUser(bool)": {
        "details": "Registers new user",
        "params": {
          "_isSeller": "Is new user a car owner?"
        }
      },
      "approve(address,uint256)": {
        "details": "See {IERC721-approve}."
      },
      "assignAsSeller(address)": {
        "details": "Admin verifies a user by assigning isSeller verified to a seller",
        "params": {
          "_userAddress": "address of user to be assigned as seller"
        }
      },
      "awardItem(address,string,string)": {
        "details": "Seller Mints vintage car as NFT after being verified as seller by the admin for particul",
        "params": {
          "hash": "IPFS Hash of car",
          "metadata": "IPFurl of car hash",
          "recipient": "address of the seller minting the NFT"
        }
      },
      "balanceOf(address)": {
        "details": "See {IERC721-balanceOf}."
      },
      "checkUser()": {
        "details": "Checks if User exists before signing in user "
      },
      "getAdmin()": {
        "details": "Verify/Authenticate Admin"
      },
      "getApproved(uint256)": {
        "details": "See {IERC721-getApproved}."
      },
      "getCarForSale()": {
        "details": "gets the cars avaialable  forsale"
      },
      "getPurchasedTokens(address)": {
        "details": "requests for tokens paid for by an existion user"
      },
      "isApprovedForAll(address,address)": {
        "details": "See {IERC721-isApprovedForAll}."
      },
      "isOwner()": {
        "returns": {
          "_0": "true if `msg.sender` is the owner of the contract."
        }
      },
      "name()": {
        "details": "See {IERC721Metadata-name}."
      },
      "owner()": {
        "returns": {
          "_0": "the address of the owner."
        }
      },
      "ownerOf(uint256)": {
        "details": "See {IERC721-ownerOf}."
      },
      "purchaseNFT(uint256)": {
        "details": "Buyer buys the NFT up forsalethe state is updated to sold",
        "params": {
          "tokenId": "Id of Token to be Sold"
        }
      },
      "renounceOwnership()": {
        "details": "Allows the current owner to relinquish control of the contract."
      },
      "safeTransferFrom(address,address,uint256)": {
        "details": "See {IERC721-safeTransferFrom}."
      },
      "safeTransferFrom(address,address,uint256,bytes)": {
        "details": "See {IERC721-safeTransferFrom}."
      },
      "sendTo(address,uint256)": {
        "details": "admin sends / withdraw _amount to seller",
        "params": {
          "_amount": "Amount to send to the seller",
          "_seller": "Address of the seller"
        }
      },
      "setApprovalForAll(address,bool)": {
        "details": "See {IERC721-setApprovalForAll}."
      },
      "supportsInterface(bytes4)": {
        "details": "See {IERC165-supportsInterface}."
      },
      "symbol()": {
        "details": "See {IERC721Metadata-symbol}."
      },
      "tokenURI(uint256)": {
        "details": "See {IERC721Metadata-tokenURI}."
      },
      "transferFrom(address,address,uint256)": {
        "details": "Seller tranfers ownership token to the buyer",
        "params": {
          "from": "address of the seller",
          "to": "address of buyer",
          "tokenId": "Id of the token being sold"
        }
      },
      "transferOwnership(address)": {
        "details": "Allows the current owner to transfer control of the contract to a newOwner.",
        "params": {
          "newOwner": "The address to transfer ownership to."
        }
      }
    },
    "version": 1
  },
  "userdoc": {
    "kind": "user",
    "methods": {
      "renounceOwnership()": {
        "notice": "Renouncing to ownership will leave the contract without an owner. It will not be possible to call the functions with the `onlyOwner` modifier anymore."
      }
    },
    "version": 1
  }
}