{
  "contractName": "VintageShop",
  "abi": [
    {
      "inputs": [],
      "stateMutability": "nonpayable",
      "type": "constructor"
    },
    {
      "anonymous": false,
      "inputs": [
        {
          "indexed": true,
          "internalType": "address",
          "name": "owner",
          "type": "address"
        },
        {
          "indexed": true,
          "internalType": "address",
          "name": "approved",
          "type": "address"
        },
        {
          "indexed": true,
          "internalType": "uint256",
          "name": "tokenId",
          "type": "uint256"
        }
      ],
      "name": "Approval",
      "type": "event"
    },
    {
      "anonymous": false,
      "inputs": [
        {
          "indexed": true,
          "internalType": "address",
          "name": "owner",
          "type": "address"
        },
        {
          "indexed": true,
          "internalType": "address",
          "name": "operator",
          "type": "address"
        },
        {
          "indexed": false,
          "internalType": "bool",
          "name": "approved",
          "type": "bool"
        }
      ],
      "name": "ApprovalForAll",
      "type": "event"
    },
    {
      "anonymous": false,
      "inputs": [
        {
          "indexed": false,
          "internalType": "string",
          "name": "message",
          "type": "string"
        },
        {
          "indexed": false,
          "internalType": "uint256",
          "name": "_carId",
          "type": "uint256"
        },
        {
          "indexed": false,
          "internalType": "address",
          "name": "seller",
          "type": "address"
        }
      ],
      "name": "ForSale",
      "type": "event"
    },
    {
      "anonymous": false,
      "inputs": [
        {
          "indexed": false,
          "internalType": "string",
          "name": "message",
          "type": "string"
        },
        {
          "indexed": false,
          "internalType": "uint256",
          "name": "_tokenId",
          "type": "uint256"
        }
      ],
      "name": "Minted",
      "type": "event"
    },
    {
      "anonymous": false,
      "inputs": [
        {
          "indexed": false,
          "internalType": "string",
          "name": "message",
          "type": "string"
        }
      ],
      "name": "NewUser",
      "type": "event"
    },
    {
      "anonymous": false,
      "inputs": [
        {
          "indexed": true,
          "internalType": "address",
          "name": "previousOwner",
          "type": "address"
        },
        {
          "indexed": true,
          "internalType": "address",
          "name": "newOwner",
          "type": "address"
        }
      ],
      "name": "OwnershipTransferred",
      "type": "event"
    },
    {
      "anonymous": false,
      "inputs": [
        {
          "indexed": false,
          "internalType": "address",
          "name": "buyer",
          "type": "address"
        },
        {
          "indexed": false,
          "internalType": "uint256",
          "name": "_tokenId",
          "type": "uint256"
        },
        {
          "indexed": false,
          "internalType": "uint256",
          "name": "amount",
          "type": "uint256"
        },
        {
          "indexed": false,
          "internalType": "uint256",
          "name": "balance",
          "type": "uint256"
        }
      ],
      "name": "Received",
      "type": "event"
    },
    {
      "anonymous": false,
      "inputs": [
        {
          "indexed": false,
          "internalType": "string",
          "name": "message",
          "type": "string"
        },
        {
          "indexed": false,
          "internalType": "address",
          "name": "_userAddress",
          "type": "address"
        }
      ],
      "name": "SellerVerified",
      "type": "event"
    },
    {
      "anonymous": false,
      "inputs": [
        {
          "indexed": false,
          "internalType": "address",
          "name": "seller",
          "type": "address"
        },
        {
          "indexed": false,
          "internalType": "uint256",
          "name": "amount",
          "type": "uint256"
        },
        {
          "indexed": false,
          "internalType": "uint256",
          "name": "balance",
          "type": "uint256"
        }
      ],
      "name": "Sent",
      "type": "event"
    },
    {
      "anonymous": false,
      "inputs": [
        {
          "indexed": false,
          "internalType": "string",
          "name": "message",
          "type": "string"
        },
        {
          "indexed": false,
          "internalType": "uint256",
          "name": "_carId",
          "type": "uint256"
        },
        {
          "indexed": false,
          "internalType": "address",
          "name": "buyer",
          "type": "address"
        }
      ],
      "name": "Sold",
      "type": "event"
    },
    {
      "anonymous": false,
      "inputs": [
        {
          "indexed": true,
          "internalType": "address",
          "name": "from",
          "type": "address"
        },
        {
          "indexed": true,
          "internalType": "address",
          "name": "to",
          "type": "address"
        },
        {
          "indexed": true,
          "internalType": "uint256",
          "name": "tokenId",
          "type": "uint256"
        }
      ],
      "name": "Transfer",
      "type": "event"
    },
    {
      "anonymous": false,
      "inputs": [
        {
          "indexed": false,
          "internalType": "string",
          "name": "message",
          "type": "string"
        },
        {
          "indexed": false,
          "internalType": "address",
          "name": "_userAddress",
          "type": "address"
        },
        {
          "indexed": false,
          "internalType": "bool",
          "name": "_isSeller",
          "type": "bool"
        }
      ],
      "name": "UserCreated",
      "type": "event"
    },
    {
      "anonymous": false,
      "inputs": [
        {
          "indexed": false,
          "internalType": "string",
          "name": "message",
          "type": "string"
        }
      ],
      "name": "UserExists",
      "type": "event"
    },
    {
      "inputs": [],
      "name": "admin",
      "outputs": [
        {
          "internalType": "address payable",
          "name": "",
          "type": "address"
        }
      ],
      "stateMutability": "view",
      "type": "function",
      "constant": true
    },
    {
      "inputs": [
        {
          "internalType": "address",
          "name": "to",
          "type": "address"
        },
        {
          "internalType": "uint256",
          "name": "tokenId",
          "type": "uint256"
        }
      ],
      "name": "approve",
      "outputs": [],
      "stateMutability": "nonpayable",
      "type": "function"
    },
    {
      "inputs": [
        {
          "internalType": "address",
          "name": "owner",
          "type": "address"
        }
      ],
      "name": "balanceOf",
      "outputs": [
        {
          "internalType": "uint256",
          "name": "",
          "type": "uint256"
        }
      ],
      "stateMutability": "view",
      "type": "function",
      "constant": true
    },
    {
      "inputs": [
        {
          "internalType": "address",
          "name": "",
          "type": "address"
        },
        {
          "internalType": "uint256",
          "name": "",
          "type": "uint256"
        }
      ],
      "name": "carDatabase",
      "outputs": [
        {
          "internalType": "uint256",
          "name": "tokenId",
          "type": "uint256"
        },
        {
          "internalType": "uint256",
          "name": "carId",
          "type": "uint256"
        },
        {
          "internalType": "address payable",
          "name": "owner",
          "type": "address"
        },
        {
          "internalType": "string",
          "name": "name",
          "type": "string"
        },
        {
          "internalType": "string",
          "name": "model",
          "type": "string"
        },
        {
          "internalType": "string",
          "name": "carUrl",
          "type": "string"
        },
        {
          "internalType": "uint256",
          "name": "price",
          "type": "uint256"
        },
        {
          "internalType": "enum VintageShop.State",
          "name": "state",
          "type": "uint8"
        },
        {
          "internalType": "uint120",
          "name": "purchasedCount",
          "type": "uint120"
        }
      ],
      "stateMutability": "view",
      "type": "function",
      "constant": true
    },
    {
      "inputs": [
        {
          "internalType": "uint256",
          "name": "",
          "type": "uint256"
        }
      ],
      "name": "carToken",
      "outputs": [
        {
          "internalType": "uint256",
          "name": "tokenId",
          "type": "uint256"
        },
        {
          "internalType": "uint256",
          "name": "carId",
          "type": "uint256"
        },
        {
          "internalType": "address payable",
          "name": "owner",
          "type": "address"
        },
        {
          "internalType": "string",
          "name": "name",
          "type": "string"
        },
        {
          "internalType": "string",
          "name": "model",
          "type": "string"
        },
        {
          "internalType": "string",
          "name": "carUrl",
          "type": "string"
        },
        {
          "internalType": "uint256",
          "name": "price",
          "type": "uint256"
        },
        {
          "internalType": "enum VintageShop.State",
          "name": "state",
          "type": "uint8"
        },
        {
          "internalType": "uint120",
          "name": "purchasedCount",
          "type": "uint120"
        }
      ],
      "stateMutability": "view",
      "type": "function",
      "constant": true
    },
    {
      "inputs": [
        {
          "internalType": "uint256",
          "name": "tokenId",
          "type": "uint256"
        }
      ],
      "name": "getApproved",
      "outputs": [
        {
          "internalType": "address",
          "name": "",
          "type": "address"
        }
      ],
      "stateMutability": "view",
      "type": "function",
      "constant": true
    },
    {
      "inputs": [
        {
          "internalType": "address",
          "name": "owner",
          "type": "address"
        },
        {
          "internalType": "address",
          "name": "operator",
          "type": "address"
        }
      ],
      "name": "isApprovedForAll",
      "outputs": [
        {
          "internalType": "bool",
          "name": "",
          "type": "bool"
        }
      ],
      "stateMutability": "view",
      "type": "function",
      "constant": true
    },
    {
      "inputs": [],
      "name": "isOwner",
      "outputs": [
        {
          "internalType": "bool",
          "name": "",
          "type": "bool"
        }
      ],
      "stateMutability": "view",
      "type": "function",
      "constant": true
    },
    {
      "inputs": [],
      "name": "name",
      "outputs": [
        {
          "internalType": "string",
          "name": "",
          "type": "string"
        }
      ],
      "stateMutability": "view",
      "type": "function",
      "constant": true
    },
    {
      "inputs": [],
      "name": "nftAddress",
      "outputs": [
        {
          "internalType": "contract ERC721",
          "name": "",
          "type": "address"
        }
      ],
      "stateMutability": "view",
      "type": "function",
      "constant": true
    },
    {
      "inputs": [],
      "name": "owner",
      "outputs": [
        {
          "internalType": "address",
          "name": "",
          "type": "address"
        }
      ],
      "stateMutability": "view",
      "type": "function",
      "constant": true
    },
    {
      "inputs": [
        {
          "internalType": "uint256",
          "name": "tokenId",
          "type": "uint256"
        }
      ],
      "name": "ownerOf",
      "outputs": [
        {
          "internalType": "address",
          "name": "",
          "type": "address"
        }
      ],
      "stateMutability": "view",
      "type": "function",
      "constant": true
    },
    {
      "inputs": [],
      "name": "renounceOwnership",
      "outputs": [],
      "stateMutability": "nonpayable",
      "type": "function"
    },
    {
      "inputs": [
        {
          "internalType": "address",
          "name": "from",
          "type": "address"
        },
        {
          "internalType": "address",
          "name": "to",
          "type": "address"
        },
        {
          "internalType": "uint256",
          "name": "tokenId",
          "type": "uint256"
        }
      ],
      "name": "safeTransferFrom",
      "outputs": [],
      "stateMutability": "nonpayable",
      "type": "function"
    },
    {
      "inputs": [
        {
          "internalType": "address",
          "name": "from",
          "type": "address"
        },
        {
          "internalType": "address",
          "name": "to",
          "type": "address"
        },
        {
          "internalType": "uint256",
          "name": "tokenId",
          "type": "uint256"
        },
        {
          "internalType": "bytes",
          "name": "_data",
          "type": "bytes"
        }
      ],
      "name": "safeTransferFrom",
      "outputs": [],
      "stateMutability": "nonpayable",
      "type": "function"
    },
    {
      "inputs": [
        {
          "internalType": "address",
          "name": "operator",
          "type": "address"
        },
        {
          "internalType": "bool",
          "name": "approved",
          "type": "bool"
        }
      ],
      "name": "setApprovalForAll",
      "outputs": [],
      "stateMutability": "nonpayable",
      "type": "function"
    },
    {
      "inputs": [
        {
          "internalType": "bytes4",
          "name": "interfaceId",
          "type": "bytes4"
        }
      ],
      "name": "supportsInterface",
      "outputs": [
        {
          "internalType": "bool",
          "name": "",
          "type": "bool"
        }
      ],
      "stateMutability": "view",
      "type": "function",
      "constant": true
    },
    {
      "inputs": [],
      "name": "symbol",
      "outputs": [
        {
          "internalType": "string",
          "name": "",
          "type": "string"
        }
      ],
      "stateMutability": "view",
      "type": "function",
      "constant": true
    },
    {
      "inputs": [
        {
          "internalType": "uint256",
          "name": "tokenId",
          "type": "uint256"
        }
      ],
      "name": "tokenURI",
      "outputs": [
        {
          "internalType": "string",
          "name": "",
          "type": "string"
        }
      ],
      "stateMutability": "view",
      "type": "function",
      "constant": true
    },
    {
      "inputs": [
        {
          "internalType": "address",
          "name": "newOwner",
          "type": "address"
        }
      ],
      "name": "transferOwnership",
      "outputs": [],
      "stateMutability": "nonpayable",
      "type": "function"
    },
    {
      "inputs": [
        {
          "internalType": "bool",
          "name": "_isSeller",
          "type": "bool"
        }
      ],
      "name": "addUser",
      "outputs": [
        {
          "internalType": "bool",
          "name": "",
          "type": "bool"
        }
      ],
      "stateMutability": "nonpayable",
      "type": "function"
    },
    {
      "inputs": [
        {
          "internalType": "address",
          "name": "_userAddress",
          "type": "address"
        }
      ],
      "name": "assignAsSeller",
      "outputs": [],
      "stateMutability": "nonpayable",
      "type": "function"
    },
    {
      "inputs": [
        {
          "internalType": "address",
          "name": "recipient",
          "type": "address"
        },
        {
          "internalType": "string",
          "name": "hash",
          "type": "string"
        },
        {
          "internalType": "string",
          "name": "metadata",
          "type": "string"
        }
      ],
      "name": "awardItem",
      "outputs": [
        {
          "internalType": "uint256",
          "name": "",
          "type": "uint256"
        }
      ],
      "stateMutability": "nonpayable",
      "type": "function"
    },
    {
      "inputs": [
        {
          "internalType": "uint256",
          "name": "_tokenId",
          "type": "uint256"
        },
        {
          "internalType": "uint256",
          "name": "price",
          "type": "uint256"
        },
        {
          "internalType": "string",
          "name": "name",
          "type": "string"
        },
        {
          "internalType": "string",
          "name": "model",
          "type": "string"
        },
        {
          "internalType": "string",
          "name": "url",
          "type": "string"
        }
      ],
      "name": "addNFT",
      "outputs": [],
      "stateMutability": "nonpayable",
      "type": "function"
    },
    {
      "inputs": [
        {
          "internalType": "address",
          "name": "from",
          "type": "address"
        },
        {
          "internalType": "address",
          "name": "to",
          "type": "address"
        },
        {
          "internalType": "uint256",
          "name": "tokenId",
          "type": "uint256"
        }
      ],
      "name": "transferFrom",
      "outputs": [],
      "stateMutability": "nonpayable",
      "type": "function"
    },
    {
      "inputs": [
        {
          "internalType": "uint256",
          "name": "tokenId",
          "type": "uint256"
        }
      ],
      "name": "purchaseNFT",
      "outputs": [],
      "stateMutability": "payable",
      "type": "function",
      "payable": true
    },
    {
      "inputs": [
        {
          "internalType": "address payable",
          "name": "_seller",
          "type": "address"
        },
        {
          "internalType": "uint256",
          "name": "_amount",
          "type": "uint256"
        }
      ],
      "name": "sendTo",
      "outputs": [],
      "stateMutability": "nonpayable",
      "type": "function"
    },
    {
      "inputs": [],
      "name": "getCarForSale",
      "outputs": [
        {
          "components": [
            {
              "internalType": "uint256",
              "name": "tokenId",
              "type": "uint256"
            },
            {
              "internalType": "uint256",
              "name": "carId",
              "type": "uint256"
            },
            {
              "internalType": "address payable",
              "name": "owner",
              "type": "address"
            },
            {
              "internalType": "string",
              "name": "name",
              "type": "string"
            },
            {
              "internalType": "string",
              "name": "model",
              "type": "string"
            },
            {
              "internalType": "string",
              "name": "carUrl",
              "type": "string"
            },
            {
              "internalType": "uint256",
              "name": "price",
              "type": "uint256"
            },
            {
              "internalType": "enum VintageShop.State",
              "name": "state",
              "type": "uint8"
            },
            {
              "internalType": "uint120",
              "name": "purchasedCount",
              "type": "uint120"
            }
          ],
          "internalType": "struct VintageShop.Car[]",
          "name": "",
          "type": "tuple[]"
        }
      ],
      "stateMutability": "view",
      "type": "function",
      "constant": true
    },
    {
      "inputs": [
        {
          "internalType": "address",
          "name": "_user",
          "type": "address"
        }
      ],
      "name": "getPurchasedTokens",
      "outputs": [
        {
          "internalType": "uint256[]",
          "name": "_boughtTokens",
          "type": "uint256[]"
        }
      ],
      "stateMutability": "view",
      "type": "function",
      "constant": true
    },
    {
      "inputs": [
        {
          "internalType": "address",
          "name": "_user",
          "type": "address"
        }
      ],
      "name": "getOwnedTokens",
      "outputs": [
        {
          "internalType": "uint256[]",
          "name": "_ownedTokens",
          "type": "uint256[]"
        }
      ],
      "stateMutability": "view",
      "type": "function",
      "constant": true
    },
    {
      "inputs": [],
      "name": "checkUser",
      "outputs": [
        {
          "internalType": "bool",
          "name": "_exists",
          "type": "bool"
        }
      ],
      "stateMutability": "view",
      "type": "function",
      "constant": true
    },
    {
      "inputs": [],
      "name": "getAdmin",
      "outputs": [
        {
          "internalType": "bool",
          "name": "_isAuth",
          "type": "bool"
        },
        {
          "internalType": "bool",
          "name": "_isAdmin",
          "type": "bool"
        }
      ],
      "stateMutability": "view",
      "type": "function",
      "constant": true
    }
  ],
  "bytecode": "0x60806040523480156200001157600080fd5b506040518060400160405280600f81526020017f56696e74616765436172417373657400000000000000000000000000000000008152506040518060400160405280600381526020017f5643410000000000000000000000000000000000000000000000000000000000815250816000908051906020019062000096929190620001f0565b508060019080519060200190620000af929190620001f0565b50505033600760006101000a81548173ffffffffffffffffffffffffffffffffffffffff021916908373ffffffffffffffffffffffffffffffffffffffff160217905550600760009054906101000a900473ffffffffffffffffffffffffffffffffffffffff1673ffffffffffffffffffffffffffffffffffffffff16600073ffffffffffffffffffffffffffffffffffffffff167f8be0079c531659141344cd1fd0a4f28419497f9722a3daafe3b4186f6b6457e060405160405180910390a362000180620001c660201b60201c565b600b60006101000a81548173ffffffffffffffffffffffffffffffffffffffff021916908373ffffffffffffffffffffffffffffffffffffffff16021790555062000305565b6000600760009054906101000a900473ffffffffffffffffffffffffffffffffffffffff16905090565b828054620001fe90620002cf565b90600052602060002090601f0160209004810192826200022257600085556200026e565b82601f106200023d57805160ff19168380011785556200026e565b828001600101855582156200026e579182015b828111156200026d57825182559160200191906001019062000250565b5b5090506200027d919062000281565b5090565b5b808211156200029c57600081600090555060010162000282565b5090565b7f4e487b7100000000000000000000000000000000000000000000000000000000600052602260045260246000fd5b60006002820490506001821680620002e857607f821691505b60208210811415620002ff57620002fe620002a0565b5b50919050565b61596880620003156000396000f3fe6080604052600436106101e35760003560e01c80638bfaf10111610102578063c156254711610095578063e985e9c511610064578063e985e9c514610742578063ee316b6c1461077f578063f2fde38b146107a8578063f851a440146107d1576101e3565b8063c156254714610660578063c35b28b21461068b578063c87b56dd146106c8578063d9d6165514610705576101e3565b80639b389f0c116100d15780639b389f0c146105bc5780639e1a00aa146105e5578063a22cb4651461060e578063b88d4fde14610637576101e3565b80638bfaf101146104fe5780638da5cb5b1461053b5780638f32d59b1461056657806395d89b4114610591576101e3565b806354ed08c81161017a57806370a082311161014957806370a082311461043a578063715018a61461047757806374f909bb1461048e57806376de94e6146104b9576101e3565b806354ed08c8146103695780635bf8633a146103a65780636352211e146103d15780636e9960c31461040e576101e3565b8063150bde03116101b6578063150bde03146102b65780631e3e222b146102d257806323b872dd1461031757806342842e0e14610340576101e3565b806301ffc9a7146101e857806306fdde0314610225578063081812fc14610250578063095ea7b31461028d575b600080fd5b3480156101f457600080fd5b5061020f600480360381019061020a9190613a77565b6107fc565b60405161021c9190613abf565b60405180910390f35b34801561023157600080fd5b5061023a6108de565b6040516102479190613b73565b60405180910390f35b34801561025c57600080fd5b5061027760048036038101906102729190613bcb565b610970565b6040516102849190613c39565b60405180910390f35b34801561029957600080fd5b506102b460048036038101906102af9190613c80565b6109f5565b005b6102d060048036038101906102cb9190613bcb565b610b0d565b005b3480156102de57600080fd5b506102f960048036038101906102f49190613bcb565b610e03565b60405161030e99989796959493929190613d91565b60405180910390f35b34801561032357600080fd5b5061033e60048036038101906103399190613e33565b611031565b005b34801561034c57600080fd5b5061036760048036038101906103629190613e33565b61108a565b005b34801561037557600080fd5b50610390600480360381019061038b9190613e86565b6110aa565b60405161039d9190613f71565b60405180910390f35b3480156103b257600080fd5b506103bb6111d8565b6040516103c89190613ff2565b60405180910390f35b3480156103dd57600080fd5b506103f860048036038101906103f39190613bcb565b6111fe565b6040516104059190613c39565b60405180910390f35b34801561041a57600080fd5b506104236112b0565b60405161043192919061400d565b60405180910390f35b34801561044657600080fd5b50610461600480360381019061045c9190613e86565b611316565b60405161046e9190614036565b60405180910390f35b34801561048357600080fd5b5061048c6113ce565b005b34801561049a57600080fd5b506104a36114a0565b6040516104b0919061425d565b60405180910390f35b3480156104c557600080fd5b506104e060048036038101906104db9190613c80565b611831565b6040516104f599989796959493929190613d91565b60405180910390f35b34801561050a57600080fd5b50610525600480360381019061052091906143b4565b611a7c565b6040516105329190614036565b60405180910390f35b34801561054757600080fd5b50610550611c49565b60405161055d9190613c39565b60405180910390f35b34801561057257600080fd5b5061057b611c73565b6040516105889190613abf565b60405180910390f35b34801561059d57600080fd5b506105a6611ccb565b6040516105b39190613b73565b60405180910390f35b3480156105c857600080fd5b506105e360048036038101906105de919061443f565b611d5d565b005b3480156105f157600080fd5b5061060c6004803603810190610607919061453a565b612202565b005b34801561061a57600080fd5b50610635600480360381019061063091906145a6565b612324565b005b34801561064357600080fd5b5061065e60048036038101906106599190614687565b6124a5565b005b34801561066c57600080fd5b50610675612507565b6040516106829190613abf565b60405180910390f35b34801561069757600080fd5b506106b260048036038101906106ad919061470a565b612575565b6040516106bf9190613abf565b60405180910390f35b3480156106d457600080fd5b506106ef60048036038101906106ea9190613bcb565b61277e565b6040516106fc9190613b73565b60405180910390f35b34801561071157600080fd5b5061072c60048036038101906107279190613e86565b6128d0565b6040516107399190613f71565b60405180910390f35b34801561074e57600080fd5b5061076960048036038101906107649190614737565b6129fe565b6040516107769190613abf565b60405180910390f35b34801561078b57600080fd5b506107a660048036038101906107a19190613e86565b612a92565b005b3480156107b457600080fd5b506107cf60048036038101906107ca9190613e86565b612c54565b005b3480156107dd57600080fd5b506107e6612c71565b6040516107f39190614777565b60405180910390f35b60007f80ac58cd000000000000000000000000000000000000000000000000000000007bffffffffffffffffffffffffffffffffffffffffffffffffffffffff1916827bffffffffffffffffffffffffffffffffffffffffffffffffffffffff191614806108c757507f5b5e139f000000000000000000000000000000000000000000000000000000007bffffffffffffffffffffffffffffffffffffffffffffffffffffffff1916827bffffffffffffffffffffffffffffffffffffffffffffffffffffffff1916145b806108d757506108d682612c97565b5b9050919050565b6060600080546108ed906147c1565b80601f0160208091040260200160405190810160405280929190818152602001828054610919906147c1565b80156109665780601f1061093b57610100808354040283529160200191610966565b820191906000526020600020905b81548152906001019060200180831161094957829003601f168201915b5050505050905090565b600061097b82612d01565b6109ba576040517f08c379a00000000000000000000000000000000000000000000000000000000081526004016109b190614865565b60405180910390fd5b6004600083815260200190815260200160002060009054906101000a900473ffffffffffffffffffffffffffffffffffffffff169050919050565b6000610a00826111fe565b90508073ffffffffffffffffffffffffffffffffffffffff168373ffffffffffffffffffffffffffffffffffffffff161415610a71576040517f08c379a0000000000000000000000000000000000000000000000000000000008152600401610a68906148f7565b60405180910390fd5b8073ffffffffffffffffffffffffffffffffffffffff16610a90612d6d565b73ffffffffffffffffffffffffffffffffffffffff161480610abf5750610abe81610ab9612d6d565b6129fe565b5b610afe576040517f08c379a0000000000000000000000000000000000000000000000000000000008152600401610af590614989565b60405180910390fd5b610b088383612d75565b505050565b33600b60009054906101000a900473ffffffffffffffffffffffffffffffffffffffff1673ffffffffffffffffffffffffffffffffffffffff168173ffffffffffffffffffffffffffffffffffffffff161480610bbc57506001600f60008373ffffffffffffffffffffffffffffffffffffffff1673ffffffffffffffffffffffffffffffffffffffff16815260200190815260200160002060000160169054906101000a900460ff1660ff16145b610bfb576040517f08c379a0000000000000000000000000000000000000000000000000000000008152600401610bf2906149f5565b60405180910390fd5b816000610c07826111fe565b905060006014600084815260200190815260200160002060060154905080341015610c3157600080fd5b846000610c3d876111fe565b9050600060146000898152602001908152602001600020600601549050600b60009054906101000a900473ffffffffffffffffffffffffffffffffffffffff1673ffffffffffffffffffffffffffffffffffffffff166108fc829081150290604051600060405180830381858888f19350505050158015610cc2573d6000803e3d6000fd5b50610cce82338a611031565b601160003373ffffffffffffffffffffffffffffffffffffffff1673ffffffffffffffffffffffffffffffffffffffff1681526020019081526020016000208890806001815401808255809150506001900390600052602060002001600090919091909150557f02d08db2db312fc60b41a046c46a7772a6c2dcdca0c32a9d3423c6dcbde693e933893447604051610d699493929190614a15565b60405180910390a150506000610d7e826111fe565b905060006014600084815260200190815260200160002060060154905060008134610da99190614a89565b905060003390508073ffffffffffffffffffffffffffffffffffffffff166108fc839081150290604051600060405180830381858888f19350505050158015610df6573d6000803e3d6000fd5b5050505050505050505050565b60146020528060005260406000206000915090508060000154908060010154908060020160009054906101000a900473ffffffffffffffffffffffffffffffffffffffff1690806003018054610e58906147c1565b80601f0160208091040260200160405190810160405280929190818152602001828054610e84906147c1565b8015610ed15780601f10610ea657610100808354040283529160200191610ed1565b820191906000526020600020905b815481529060010190602001808311610eb457829003601f168201915b505050505090806004018054610ee6906147c1565b80601f0160208091040260200160405190810160405280929190818152602001828054610f12906147c1565b8015610f5f5780601f10610f3457610100808354040283529160200191610f5f565b820191906000526020600020905b815481529060010190602001808311610f4257829003601f168201915b505050505090806005018054610f74906147c1565b80601f0160208091040260200160405190810160405280929190818152602001828054610fa0906147c1565b8015610fed5780601f10610fc257610100808354040283529160200191610fed565b820191906000526020600020905b815481529060010190602001808311610fd057829003601f168201915b5050505050908060060154908060070160009054906101000a900460ff16908060070160019054906101000a90046effffffffffffffffffffffffffffff16905089565b61103b3082612e2e565b61107a576040517f08c379a000000000000000000000000000000000000000000000000000000000815260040161107190614b2f565b60405180910390fd5b611085838383612f0c565b505050565b6110a5838383604051806020016040528060008152506124a5565b505050565b6060816001600f60008373ffffffffffffffffffffffffffffffffffffffff1673ffffffffffffffffffffffffffffffffffffffff16815260200190815260200160002060000160169054906101000a900460ff1660ff1614611142576040517f08c379a0000000000000000000000000000000000000000000000000000000008152600401611139906149f5565b60405180910390fd5b601160008473ffffffffffffffffffffffffffffffffffffffff1673ffffffffffffffffffffffffffffffffffffffff1681526020019081526020016000208054806020026020016040519081016040528092919081815260200182805480156111cb57602002820191906000526020600020905b8154815260200190600101908083116111b7575b5050505050915050919050565b600960009054906101000a900473ffffffffffffffffffffffffffffffffffffffff1681565b6000806002600084815260200190815260200160002060009054906101000a900473ffffffffffffffffffffffffffffffffffffffff169050600073ffffffffffffffffffffffffffffffffffffffff168173ffffffffffffffffffffffffffffffffffffffff1614156112a7576040517f08c379a000000000000000000000000000000000000000000000000000000000815260040161129e90614bc1565b60405180910390fd5b80915050919050565b60008060019150600b60009054906101000a900473ffffffffffffffffffffffffffffffffffffffff1673ffffffffffffffffffffffffffffffffffffffff163373ffffffffffffffffffffffffffffffffffffffff16141561131257600190505b9091565b60008073ffffffffffffffffffffffffffffffffffffffff168273ffffffffffffffffffffffffffffffffffffffff161415611387576040517f08c379a000000000000000000000000000000000000000000000000000000000815260040161137e90614c53565b60405180910390fd5b600360008373ffffffffffffffffffffffffffffffffffffffff1673ffffffffffffffffffffffffffffffffffffffff168152602001908152602001600020549050919050565b6113d6611c73565b6113df57600080fd5b600073ffffffffffffffffffffffffffffffffffffffff16600760009054906101000a900473ffffffffffffffffffffffffffffffffffffffff1673ffffffffffffffffffffffffffffffffffffffff167f8be0079c531659141344cd1fd0a4f28419497f9722a3daafe3b4186f6b6457e060405160405180910390a36000600760006101000a81548173ffffffffffffffffffffffffffffffffffffffff021916908373ffffffffffffffffffffffffffffffffffffffff160217905550565b60606000600a8054905067ffffffffffffffff8111156114c3576114c2614289565b5b6040519080825280602002602001820160405280156114fc57816020015b6114e96138e3565b8152602001906001900390816114e15790505b50905060005b600a805490508110156118295760156000600a838154811061152757611526614c73565b5b906000526020600020015481526020019081526020016000206040518061012001604052908160008201548152602001600182015481526020016002820160009054906101000a900473ffffffffffffffffffffffffffffffffffffffff1673ffffffffffffffffffffffffffffffffffffffff1673ffffffffffffffffffffffffffffffffffffffff1681526020016003820180546115c6906147c1565b80601f01602080910402602001604051908101604052809291908181526020018280546115f2906147c1565b801561163f5780601f106116145761010080835404028352916020019161163f565b820191906000526020600020905b81548152906001019060200180831161162257829003601f168201915b50505050508152602001600482018054611658906147c1565b80601f0160208091040260200160405190810160405280929190818152602001828054611684906147c1565b80156116d15780601f106116a6576101008083540402835291602001916116d1565b820191906000526020600020905b8154815290600101906020018083116116b457829003601f168201915b505050505081526020016005820180546116ea906147c1565b80601f0160208091040260200160405190810160405280929190818152602001828054611716906147c1565b80156117635780601f1061173857610100808354040283529160200191611763565b820191906000526020600020905b81548152906001019060200180831161174657829003601f168201915b50505050508152602001600682015481526020016007820160009054906101000a900460ff16600381111561179b5761179a613cf0565b5b60038111156117ad576117ac613cf0565b5b81526020016007820160019054906101000a90046effffffffffffffffffffffffffffff166effffffffffffffffffffffffffffff166effffffffffffffffffffffffffffff168152505082828151811061180b5761180a614c73565b5b6020026020010181905250808061182190614ca2565b915050611502565b508091505090565b6013602052816000526040600020818154811061184d57600080fd5b9060005260206000209060080201600091509150508060000154908060010154908060020160009054906101000a900473ffffffffffffffffffffffffffffffffffffffff16908060030180546118a3906147c1565b80601f01602080910402602001604051908101604052809291908181526020018280546118cf906147c1565b801561191c5780601f106118f15761010080835404028352916020019161191c565b820191906000526020600020905b8154815290600101906020018083116118ff57829003601f168201915b505050505090806004018054611931906147c1565b80601f016020809104026020016040519081016040528092919081815260200182805461195d906147c1565b80156119aa5780601f1061197f576101008083540402835291602001916119aa565b820191906000526020600020905b81548152906001019060200180831161198d57829003601f168201915b5050505050908060050180546119bf906147c1565b80601f01602080910402602001604051908101604052809291908181526020018280546119eb906147c1565b8015611a385780601f10611a0d57610100808354040283529160200191611a38565b820191906000526020600020905b815481529060010190602001808311611a1b57829003601f168201915b5050505050908060060154908060070160009054906101000a900460ff16908060070160019054906101000a90046effffffffffffffffffffffffffffff16905089565b600083600f60008273ffffffffffffffffffffffffffffffffffffffff1673ffffffffffffffffffffffffffffffffffffffff16815260200190815260200160002060000160149054906101000a900460ff168015611b275750600f60008273ffffffffffffffffffffffffffffffffffffffff1673ffffffffffffffffffffffffffffffffffffffff16815260200190815260200160002060000160159054906101000a900460ff165b611b66576040517f08c379a0000000000000000000000000000000000000000000000000000000008152600401611b5d90614d5d565b60405180910390fd5b6001600c85604051611b789190614db9565b908152602001604051809103902060009054906101000a900460ff1660ff161415611ba257600080fd5b6001600c85604051611bb49190614db9565b908152602001604051809103902060006101000a81548160ff021916908360ff160217905550611be46008613168565b6000611bf0600861317e565b9050611bfc868261318c565b611c06818561335a565b7f84fedafd9490d60ff476d007409fc8709ce33b506d702cddbf1e37b1dc5fc2ef81604051611c359190614e1c565b60405180910390a180925050509392505050565b6000600760009054906101000a900473ffffffffffffffffffffffffffffffffffffffff16905090565b6000600760009054906101000a900473ffffffffffffffffffffffffffffffffffffffff1673ffffffffffffffffffffffffffffffffffffffff163373ffffffffffffffffffffffffffffffffffffffff1614905090565b606060018054611cda906147c1565b80601f0160208091040260200160405190810160405280929190818152602001828054611d06906147c1565b8015611d535780601f10611d2857610100808354040283529160200191611d53565b820191906000526020600020905b815481529060010190602001808311611d3657829003601f168201915b5050505050905090565b33600f60008273ffffffffffffffffffffffffffffffffffffffff1673ffffffffffffffffffffffffffffffffffffffff16815260200190815260200160002060000160149054906101000a900460ff168015611e065750600f60008273ffffffffffffffffffffffffffffffffffffffff1673ffffffffffffffffffffffffffffffffffffffff16815260200190815260200160002060000160159054906101000a900460ff165b611e45576040517f08c379a0000000000000000000000000000000000000000000000000000000008152600401611e3c90614d5d565b60405180910390fd5b853373ffffffffffffffffffffffffffffffffffffffff16611e66826111fe565b73ffffffffffffffffffffffffffffffffffffffff1614611e8657600080fd5b3373ffffffffffffffffffffffffffffffffffffffff16611ea6886111fe565b73ffffffffffffffffffffffffffffffffffffffff1614611efc576040517f08c379a0000000000000000000000000000000000000000000000000000000008152600401611ef390614ebc565b60405180910390fd5b611f07306001612324565b601260003373ffffffffffffffffffffffffffffffffffffffff1673ffffffffffffffffffffffffffffffffffffffff16815260200190815260200160002087908060018154018082558091505060019003906000526020600020016000909190919091505560006001601360003373ffffffffffffffffffffffffffffffffffffffff1673ffffffffffffffffffffffffffffffffffffffff16815260200190815260200160002080549050611fbe9190614edc565b905086601460008a8152602001908152602001600020600601819055506040518061012001604052808981526020018281526020013373ffffffffffffffffffffffffffffffffffffffff1681526020018781526020018681526020018581526020018881526020016000600381111561203b5761203a613cf0565b5b815260200160006effffffffffffffffffffffffffffff1681525060156000838152602001908152602001600020600082015181600001556020820151816001015560408201518160020160006101000a81548173ffffffffffffffffffffffffffffffffffffffff021916908373ffffffffffffffffffffffffffffffffffffffff16021790555060608201518160030190805190602001906120e0929190613968565b5060808201518160040190805190602001906120fd929190613968565b5060a082015181600501908051906020019061211a929190613968565b5060c0820151816006015560e08201518160070160006101000a81548160ff021916908360038111156121505761214f613cf0565b5b02179055506101008201518160070160016101000a8154816effffffffffffffffffffffffffffff02191690836effffffffffffffffffffffffffffff160217905550905050600a8890806001815401808255809150506001900390600052602060002001600090919091909150557f1b55ca7f37767d5d7dde158941a1eb3a0e6885bb07d4b83423842bfad99597ce81336040516121f0929190614f7e565b60405180910390a15050505050505050565b61220a611c73565b61221357600080fd5b600073ffffffffffffffffffffffffffffffffffffffff168273ffffffffffffffffffffffffffffffffffffffff161415801561227c57503073ffffffffffffffffffffffffffffffffffffffff168273ffffffffffffffffffffffffffffffffffffffff1614155b61228557600080fd5b6000811180156122955750478111155b61229e57600080fd5b8173ffffffffffffffffffffffffffffffffffffffff166108fc829081150290604051600060405180830381858888f193505050501580156122e4573d6000803e3d6000fd5b507f6356739d963da01dc3533acba7203430fcc14f2175d48a8dd0973d7db49c785e82824760405161231893929190614fdb565b60405180910390a15050565b61232c612d6d565b73ffffffffffffffffffffffffffffffffffffffff168273ffffffffffffffffffffffffffffffffffffffff16141561239a576040517f08c379a00000000000000000000000000000000000000000000000000000000081526004016123919061505e565b60405180910390fd5b80600560006123a7612d6d565b73ffffffffffffffffffffffffffffffffffffffff1673ffffffffffffffffffffffffffffffffffffffff16815260200190815260200160002060008473ffffffffffffffffffffffffffffffffffffffff1673ffffffffffffffffffffffffffffffffffffffff16815260200190815260200160002060006101000a81548160ff0219169083151502179055508173ffffffffffffffffffffffffffffffffffffffff16612454612d6d565b73ffffffffffffffffffffffffffffffffffffffff167f17307eab39ab6107e8899845ad3d59bd9653f200f220920489ca2b5937696c31836040516124999190613abf565b60405180910390a35050565b6124b66124b0612d6d565b83612e2e565b6124f5576040517f08c379a00000000000000000000000000000000000000000000000000000000081526004016124ec90614b2f565b60405180910390fd5b612501848484846133ce565b50505050565b60006001600f60003373ffffffffffffffffffffffffffffffffffffffff1673ffffffffffffffffffffffffffffffffffffffff16815260200190815260200160002060000160169054906101000a900460ff1660ff16141561256d5760019050612572565b600090505b90565b600080600f60003373ffffffffffffffffffffffffffffffffffffffff1673ffffffffffffffffffffffffffffffffffffffff16815260200190815260200160002060000160169054906101000a900460ff1660ff161461260b576040517f08c379a0000000000000000000000000000000000000000000000000000000008152600401612602906150ca565b60405180910390fd5b6000806001905060405180608001604052803373ffffffffffffffffffffffffffffffffffffffff168152602001851515815260200183151581526020018260ff16815250600f60003373ffffffffffffffffffffffffffffffffffffffff1673ffffffffffffffffffffffffffffffffffffffff16815260200190815260200160002060008201518160000160006101000a81548173ffffffffffffffffffffffffffffffffffffffff021916908373ffffffffffffffffffffffffffffffffffffffff16021790555060208201518160000160146101000a81548160ff02191690831515021790555060408201518160000160156101000a81548160ff02191690831515021790555060608201518160000160166101000a81548160ff021916908360ff1602179055509050507f6ed7fd9c095d25702b515b4fc3c80ddda04a36adc0a6619c93fe1a306784f51e338560405161276b929190615136565b60405180910390a1600192505050919050565b606061278982612d01565b6127c8576040517f08c379a00000000000000000000000000000000000000000000000000000000081526004016127bf906151e4565b60405180910390fd5b60006006600084815260200190815260200160002080546127e8906147c1565b80601f0160208091040260200160405190810160405280929190818152602001828054612814906147c1565b80156128615780601f1061283657610100808354040283529160200191612861565b820191906000526020600020905b81548152906001019060200180831161284457829003601f168201915b50505050509050600061287261342a565b90506000815114156128885781925050506128cb565b6000825111156128bd5780826040516020016128a5929190615204565b604051602081830303815290604052925050506128cb565b6128c684613441565b925050505b919050565b6060816001600f60008373ffffffffffffffffffffffffffffffffffffffff1673ffffffffffffffffffffffffffffffffffffffff16815260200190815260200160002060000160169054906101000a900460ff1660ff1614612968576040517f08c379a000000000000000000000000000000000000000000000000000000000815260040161295f906149f5565b60405180910390fd5b601260008473ffffffffffffffffffffffffffffffffffffffff1673ffffffffffffffffffffffffffffffffffffffff1681526020019081526020016000208054806020026020016040519081016040528092919081815260200182805480156129f157602002820191906000526020600020905b8154815260200190600101908083116129dd575b5050505050915050919050565b6000600560008473ffffffffffffffffffffffffffffffffffffffff1673ffffffffffffffffffffffffffffffffffffffff16815260200190815260200160002060008373ffffffffffffffffffffffffffffffffffffffff1673ffffffffffffffffffffffffffffffffffffffff16815260200190815260200160002060009054906101000a900460ff16905092915050565b33600b60009054906101000a900473ffffffffffffffffffffffffffffffffffffffff1673ffffffffffffffffffffffffffffffffffffffff168173ffffffffffffffffffffffffffffffffffffffff1614612b23576040517f08c379a0000000000000000000000000000000000000000000000000000000008152600401612b1a90615274565b60405180910390fd5b600f60008373ffffffffffffffffffffffffffffffffffffffff1673ffffffffffffffffffffffffffffffffffffffff16815260200190815260200160002060000160149054906101000a900460ff1615612c15576000600f60008473ffffffffffffffffffffffffffffffffffffffff1673ffffffffffffffffffffffffffffffffffffffff168152602001908152602001600020905060018160000160156101000a81548160ff0219169083151502179055507f3505fc606cb13a8df40c7bd1833b8f90b0440b83aa897dfd69927aa28955eb0983604051612c0791906152e0565b60405180910390a150612c50565b6040517f08c379a0000000000000000000000000000000000000000000000000000000008152600401612c479061535a565b60405180910390fd5b5050565b612c5c611c73565b612c6557600080fd5b612c6e816134e8565b50565b600b60009054906101000a900473ffffffffffffffffffffffffffffffffffffffff1681565b60007f01ffc9a7000000000000000000000000000000000000000000000000000000007bffffffffffffffffffffffffffffffffffffffffffffffffffffffff1916827bffffffffffffffffffffffffffffffffffffffffffffffffffffffff1916149050919050565b60008073ffffffffffffffffffffffffffffffffffffffff166002600084815260200190815260200160002060009054906101000a900473ffffffffffffffffffffffffffffffffffffffff1673ffffffffffffffffffffffffffffffffffffffff1614159050919050565b600033905090565b816004600083815260200190815260200160002060006101000a81548173ffffffffffffffffffffffffffffffffffffffff021916908373ffffffffffffffffffffffffffffffffffffffff160217905550808273ffffffffffffffffffffffffffffffffffffffff16612de8836111fe565b73ffffffffffffffffffffffffffffffffffffffff167f8c5be1e5ebec7d5bd14f71427d1e84f3dd0314c0f7b2291e5b200ac8c7c3b92560405160405180910390a45050565b6000612e3982612d01565b612e78576040517f08c379a0000000000000000000000000000000000000000000000000000000008152600401612e6f906153ec565b60405180910390fd5b6000612e83836111fe565b90508073ffffffffffffffffffffffffffffffffffffffff168473ffffffffffffffffffffffffffffffffffffffff161480612ef257508373ffffffffffffffffffffffffffffffffffffffff16612eda84610970565b73ffffffffffffffffffffffffffffffffffffffff16145b80612f035750612f0281856129fe565b5b91505092915050565b8273ffffffffffffffffffffffffffffffffffffffff16612f2c826111fe565b73ffffffffffffffffffffffffffffffffffffffff1614612f82576040517f08c379a0000000000000000000000000000000000000000000000000000000008152600401612f799061547e565b60405180910390fd5b600073ffffffffffffffffffffffffffffffffffffffff168273ffffffffffffffffffffffffffffffffffffffff161415612ff2576040517f08c379a0000000000000000000000000000000000000000000000000000000008152600401612fe990615510565b60405180910390fd5b612ffd8383836135e2565b613008600082612d75565b6001600360008573ffffffffffffffffffffffffffffffffffffffff1673ffffffffffffffffffffffffffffffffffffffff16815260200190815260200160002060008282546130589190614a89565b925050819055506001600360008473ffffffffffffffffffffffffffffffffffffffff1673ffffffffffffffffffffffffffffffffffffffff16815260200190815260200160002060008282546130af9190614edc565b92505081905550816002600083815260200190815260200160002060006101000a81548173ffffffffffffffffffffffffffffffffffffffff021916908373ffffffffffffffffffffffffffffffffffffffff160217905550808273ffffffffffffffffffffffffffffffffffffffff168473ffffffffffffffffffffffffffffffffffffffff167fddf252ad1be2c89b69c2b068fc378daa952ba7f163c4a11628f55a4df523b3ef60405160405180910390a4505050565b6001816000016000828254019250508190555050565b600081600001549050919050565b600073ffffffffffffffffffffffffffffffffffffffff168273ffffffffffffffffffffffffffffffffffffffff1614156131fc576040517f08c379a00000000000000000000000000000000000000000000000000000000081526004016131f39061557c565b60405180910390fd5b61320581612d01565b15613245576040517f08c379a000000000000000000000000000000000000000000000000000000000815260040161323c906155e8565b60405180910390fd5b613251600083836135e2565b6001600360008473ffffffffffffffffffffffffffffffffffffffff1673ffffffffffffffffffffffffffffffffffffffff16815260200190815260200160002060008282546132a19190614edc565b92505081905550816002600083815260200190815260200160002060006101000a81548173ffffffffffffffffffffffffffffffffffffffff021916908373ffffffffffffffffffffffffffffffffffffffff160217905550808273ffffffffffffffffffffffffffffffffffffffff16600073ffffffffffffffffffffffffffffffffffffffff167fddf252ad1be2c89b69c2b068fc378daa952ba7f163c4a11628f55a4df523b3ef60405160405180910390a45050565b61336382612d01565b6133a2576040517f08c379a00000000000000000000000000000000000000000000000000000000081526004016133999061567a565b60405180910390fd5b806006600084815260200190815260200160002090805190602001906133c9929190613968565b505050565b6133d9848484612f0c565b6133e5848484846135e7565b613424576040517f08c379a000000000000000000000000000000000000000000000000000000000815260040161341b9061570c565b60405180910390fd5b50505050565b606060405180602001604052806000815250905090565b606061344c82612d01565b61348b576040517f08c379a00000000000000000000000000000000000000000000000000000000081526004016134829061579e565b60405180910390fd5b600061349561342a565b905060008151116134b557604051806020016040528060008152506134e0565b806134bf8461376f565b6040516020016134d0929190615204565b6040516020818303038152906040525b915050919050565b600073ffffffffffffffffffffffffffffffffffffffff168173ffffffffffffffffffffffffffffffffffffffff16141561352257600080fd5b8073ffffffffffffffffffffffffffffffffffffffff16600760009054906101000a900473ffffffffffffffffffffffffffffffffffffffff1673ffffffffffffffffffffffffffffffffffffffff167f8be0079c531659141344cd1fd0a4f28419497f9722a3daafe3b4186f6b6457e060405160405180910390a380600760006101000a81548173ffffffffffffffffffffffffffffffffffffffff021916908373ffffffffffffffffffffffffffffffffffffffff16021790555050565b505050565b60006136088473ffffffffffffffffffffffffffffffffffffffff166138d0565b15613762578373ffffffffffffffffffffffffffffffffffffffff1663150b7a02613631612d6d565b8786866040518563ffffffff1660e01b81526004016136539493929190615813565b6020604051808303816000875af192505050801561368f57506040513d601f19601f8201168201806040525081019061368c9190615874565b60015b613712573d80600081146136bf576040519150601f19603f3d011682016040523d82523d6000602084013e6136c4565b606091505b5060008151141561370a576040517f08c379a00000000000000000000000000000000000000000000000000000000081526004016137019061570c565b60405180910390fd5b805181602001fd5b63150b7a0260e01b7bffffffffffffffffffffffffffffffffffffffffffffffffffffffff1916817bffffffffffffffffffffffffffffffffffffffffffffffffffffffff191614915050613767565b600190505b949350505050565b606060008214156137b7576040518060400160405280600181526020017f300000000000000000000000000000000000000000000000000000000000000081525090506138cb565b600082905060005b600082146137e95780806137d290614ca2565b915050600a826137e291906158d0565b91506137bf565b60008167ffffffffffffffff81111561380557613804614289565b5b6040519080825280601f01601f1916602001820160405280156138375781602001600182028036833780820191505090505b5090505b600085146138c4576001826138509190614a89565b9150600a8561385f9190615901565b603061386b9190614edc565b60f81b81838151811061388157613880614c73565b5b60200101907effffffffffffffffffffffffffffffffffffffffffffffffffffffffffffff1916908160001a905350600a856138bd91906158d0565b945061383b565b8093505050505b919050565b600080823b905060008111915050919050565b6040518061012001604052806000815260200160008152602001600073ffffffffffffffffffffffffffffffffffffffff168152602001606081526020016060815260200160608152602001600081526020016000600381111561394a57613949613cf0565b5b815260200160006effffffffffffffffffffffffffffff1681525090565b828054613974906147c1565b90600052602060002090601f01602090048101928261399657600085556139dd565b82601f106139af57805160ff19168380011785556139dd565b828001600101855582156139dd579182015b828111156139dc5782518255916020019190600101906139c1565b5b5090506139ea91906139ee565b5090565b5b80821115613a075760008160009055506001016139ef565b5090565b6000604051905090565b600080fd5b600080fd5b60007fffffffff0000000000000000000000000000000000000000000000000000000082169050919050565b613a5481613a1f565b8114613a5f57600080fd5b50565b600081359050613a7181613a4b565b92915050565b600060208284031215613a8d57613a8c613a15565b5b6000613a9b84828501613a62565b91505092915050565b60008115159050919050565b613ab981613aa4565b82525050565b6000602082019050613ad46000830184613ab0565b92915050565b600081519050919050565b600082825260208201905092915050565b60005b83811015613b14578082015181840152602081019050613af9565b83811115613b23576000848401525b50505050565b6000601f19601f8301169050919050565b6000613b4582613ada565b613b4f8185613ae5565b9350613b5f818560208601613af6565b613b6881613b29565b840191505092915050565b60006020820190508181036000830152613b8d8184613b3a565b905092915050565b6000819050919050565b613ba881613b95565b8114613bb357600080fd5b50565b600081359050613bc581613b9f565b92915050565b600060208284031215613be157613be0613a15565b5b6000613bef84828501613bb6565b91505092915050565b600073ffffffffffffffffffffffffffffffffffffffff82169050919050565b6000613c2382613bf8565b9050919050565b613c3381613c18565b82525050565b6000602082019050613c4e6000830184613c2a565b92915050565b613c5d81613c18565b8114613c6857600080fd5b50565b600081359050613c7a81613c54565b92915050565b60008060408385031215613c9757613c96613a15565b5b6000613ca585828601613c6b565b9250506020613cb685828601613bb6565b9150509250929050565b613cc981613b95565b82525050565b6000613cda82613bf8565b9050919050565b613cea81613ccf565b82525050565b7f4e487b7100000000000000000000000000000000000000000000000000000000600052602160045260246000fd5b60048110613d3057613d2f613cf0565b5b50565b6000819050613d4182613d1f565b919050565b6000613d5182613d33565b9050919050565b613d6181613d46565b82525050565b60006effffffffffffffffffffffffffffff82169050919050565b613d8b81613d67565b82525050565b600061012082019050613da7600083018c613cc0565b613db4602083018b613cc0565b613dc1604083018a613ce1565b8181036060830152613dd38189613b3a565b90508181036080830152613de78188613b3a565b905081810360a0830152613dfb8187613b3a565b9050613e0a60c0830186613cc0565b613e1760e0830185613d58565b613e25610100830184613d82565b9a9950505050505050505050565b600080600060608486031215613e4c57613e4b613a15565b5b6000613e5a86828701613c6b565b9350506020613e6b86828701613c6b565b9250506040613e7c86828701613bb6565b9150509250925092565b600060208284031215613e9c57613e9b613a15565b5b6000613eaa84828501613c6b565b91505092915050565b600081519050919050565b600082825260208201905092915050565b6000819050602082019050919050565b613ee881613b95565b82525050565b6000613efa8383613edf565b60208301905092915050565b6000602082019050919050565b6000613f1e82613eb3565b613f288185613ebe565b9350613f3383613ecf565b8060005b83811015613f64578151613f4b8882613eee565b9750613f5683613f06565b925050600181019050613f37565b5085935050505092915050565b60006020820190508181036000830152613f8b8184613f13565b905092915050565b6000819050919050565b6000613fb8613fb3613fae84613bf8565b613f93565b613bf8565b9050919050565b6000613fca82613f9d565b9050919050565b6000613fdc82613fbf565b9050919050565b613fec81613fd1565b82525050565b60006020820190506140076000830184613fe3565b92915050565b60006040820190506140226000830185613ab0565b61402f6020830184613ab0565b9392505050565b600060208201905061404b6000830184613cc0565b92915050565b600081519050919050565b600082825260208201905092915050565b6000819050602082019050919050565b61408681613ccf565b82525050565b600082825260208201905092915050565b60006140a882613ada565b6140b2818561408c565b93506140c2818560208601613af6565b6140cb81613b29565b840191505092915050565b6140df81613d46565b82525050565b6140ee81613d67565b82525050565b60006101208301600083015161410d6000860182613edf565b5060208301516141206020860182613edf565b506040830151614133604086018261407d565b506060830151848203606086015261414b828261409d565b91505060808301518482036080860152614165828261409d565b91505060a083015184820360a086015261417f828261409d565b91505060c083015161419460c0860182613edf565b5060e08301516141a760e08601826140d6565b506101008301516141bc6101008601826140e5565b508091505092915050565b60006141d383836140f4565b905092915050565b6000602082019050919050565b60006141f382614051565b6141fd818561405c565b93508360208202850161420f8561406d565b8060005b8581101561424b578484038952815161422c85826141c7565b9450614237836141db565b925060208a01995050600181019050614213565b50829750879550505050505092915050565b6000602082019050818103600083015261427781846141e8565b905092915050565b600080fd5b600080fd5b7f4e487b7100000000000000000000000000000000000000000000000000000000600052604160045260246000fd5b6142c182613b29565b810181811067ffffffffffffffff821117156142e0576142df614289565b5b80604052505050565b60006142f3613a0b565b90506142ff82826142b8565b919050565b600067ffffffffffffffff82111561431f5761431e614289565b5b61432882613b29565b9050602081019050919050565b82818337600083830152505050565b600061435761435284614304565b6142e9565b90508281526020810184848401111561437357614372614284565b5b61437e848285614335565b509392505050565b600082601f83011261439b5761439a61427f565b5b81356143ab848260208601614344565b91505092915050565b6000806000606084860312156143cd576143cc613a15565b5b60006143db86828701613c6b565b935050602084013567ffffffffffffffff8111156143fc576143fb613a1a565b5b61440886828701614386565b925050604084013567ffffffffffffffff81111561442957614428613a1a565b5b61443586828701614386565b9150509250925092565b600080600080600060a0868803121561445b5761445a613a15565b5b600061446988828901613bb6565b955050602061447a88828901613bb6565b945050604086013567ffffffffffffffff81111561449b5761449a613a1a565b5b6144a788828901614386565b935050606086013567ffffffffffffffff8111156144c8576144c7613a1a565b5b6144d488828901614386565b925050608086013567ffffffffffffffff8111156144f5576144f4613a1a565b5b61450188828901614386565b9150509295509295909350565b61451781613ccf565b811461452257600080fd5b50565b6000813590506145348161450e565b92915050565b6000806040838503121561455157614550613a15565b5b600061455f85828601614525565b925050602061457085828601613bb6565b9150509250929050565b61458381613aa4565b811461458e57600080fd5b50565b6000813590506145a08161457a565b92915050565b600080604083850312156145bd576145bc613a15565b5b60006145cb85828601613c6b565b92505060206145dc85828601614591565b9150509250929050565b600067ffffffffffffffff82111561460157614600614289565b5b61460a82613b29565b9050602081019050919050565b600061462a614625846145e6565b6142e9565b90508281526020810184848401111561464657614645614284565b5b614651848285614335565b509392505050565b600082601f83011261466e5761466d61427f565b5b813561467e848260208601614617565b91505092915050565b600080600080608085870312156146a1576146a0613a15565b5b60006146af87828801613c6b565b94505060206146c087828801613c6b565b93505060406146d187828801613bb6565b925050606085013567ffffffffffffffff8111156146f2576146f1613a1a565b5b6146fe87828801614659565b91505092959194509250565b6000602082840312156147205761471f613a15565b5b600061472e84828501614591565b91505092915050565b6000806040838503121561474e5761474d613a15565b5b600061475c85828601613c6b565b925050602061476d85828601613c6b565b9150509250929050565b600060208201905061478c6000830184613ce1565b92915050565b7f4e487b7100000000000000000000000000000000000000000000000000000000600052602260045260246000fd5b600060028204905060018216806147d957607f821691505b602082108114156147ed576147ec614792565b5b50919050565b7f4552433732313a20617070726f76656420717565727920666f72206e6f6e657860008201527f697374656e7420746f6b656e0000000000000000000000000000000000000000602082015250565b600061484f602c83613ae5565b915061485a826147f3565b604082019050919050565b6000602082019050818103600083015261487e81614842565b9050919050565b7f4552433732313a20617070726f76616c20746f2063757272656e74206f776e6560008201527f7200000000000000000000000000000000000000000000000000000000000000602082015250565b60006148e1602183613ae5565b91506148ec82614885565b604082019050919050565b60006020820190508181036000830152614910816148d4565b9050919050565b7f4552433732313a20617070726f76652063616c6c6572206973206e6f74206f7760008201527f6e6572206e6f7220617070726f76656420666f7220616c6c0000000000000000602082015250565b6000614973603883613ae5565b915061497e82614917565b604082019050919050565b600060208201905081810360008301526149a281614966565b9050919050565b7f7573657220646f6573206e6f7420657869737400000000000000000000000000600082015250565b60006149df601383613ae5565b91506149ea826149a9565b602082019050919050565b60006020820190508181036000830152614a0e816149d2565b9050919050565b6000608082019050614a2a6000830187613c2a565b614a376020830186613cc0565b614a446040830185613cc0565b614a516060830184613cc0565b95945050505050565b7f4e487b7100000000000000000000000000000000000000000000000000000000600052601160045260246000fd5b6000614a9482613b95565b9150614a9f83613b95565b925082821015614ab257614ab1614a5a565b5b828203905092915050565b7f4552433732313a207472616e736665722063616c6c6572206973206e6f74206f60008201527f776e6572206e6f7220617070726f766564000000000000000000000000000000602082015250565b6000614b19603183613ae5565b9150614b2482614abd565b604082019050919050565b60006020820190508181036000830152614b4881614b0c565b9050919050565b7f4552433732313a206f776e657220717565727920666f72206e6f6e657869737460008201527f656e7420746f6b656e0000000000000000000000000000000000000000000000602082015250565b6000614bab602983613ae5565b9150614bb682614b4f565b604082019050919050565b60006020820190508181036000830152614bda81614b9e565b9050919050565b7f4552433732313a2062616c616e636520717565727920666f7220746865207a6560008201527f726f206164647265737300000000000000000000000000000000000000000000602082015250565b6000614c3d602a83613ae5565b9150614c4882614be1565b604082019050919050565b60006020820190508181036000830152614c6c81614c30565b9050919050565b7f4e487b7100000000000000000000000000000000000000000000000000000000600052603260045260246000fd5b6000614cad82613b95565b91507fffffffffffffffffffffffffffffffffffffffffffffffffffffffffffffffff821415614ce057614cdf614a5a565b5b600182019050919050565b7f75736572206973206e6f7420612073656c6c6572206f72206973206e6f74207660008201527f6572696669656400000000000000000000000000000000000000000000000000602082015250565b6000614d47602783613ae5565b9150614d5282614ceb565b604082019050919050565b60006020820190508181036000830152614d7681614d3a565b9050919050565b600081905092915050565b6000614d9382613ada565b614d9d8185614d7d565b9350614dad818560208601613af6565b80840191505092915050565b6000614dc58284614d88565b915081905092915050565b7f4e4654206d696e746564207375636365737366756c6c79000000000000000000600082015250565b6000614e06601783613ae5565b9150614e1182614dd0565b602082019050919050565b60006040820190508181036000830152614e3581614df9565b9050614e446020830184613cc0565b92915050565b7f4f6e6c7920746f6b656e206f776e65722063616e2070757420757020746f6b6560008201527f6e20666f722073656c6c00000000000000000000000000000000000000000000602082015250565b6000614ea6602a83613ae5565b9150614eb182614e4a565b604082019050919050565b60006020820190508181036000830152614ed581614e99565b9050919050565b6000614ee782613b95565b9150614ef283613b95565b9250827fffffffffffffffffffffffffffffffffffffffffffffffffffffffffffffffff03821115614f2757614f26614a5a565b5b828201905092915050565b7f43617220466f722073616c650000000000000000000000000000000000000000600082015250565b6000614f68600c83613ae5565b9150614f7382614f32565b602082019050919050565b60006060820190508181036000830152614f9781614f5b565b9050614fa66020830185613cc0565b614fb36040830184613c2a565b9392505050565b6000614fc582613fbf565b9050919050565b614fd581614fba565b82525050565b6000606082019050614ff06000830186614fcc565b614ffd6020830185613cc0565b61500a6040830184613cc0565b949350505050565b7f4552433732313a20617070726f766520746f2063616c6c657200000000000000600082015250565b6000615048601983613ae5565b915061505382615012565b602082019050919050565b600060208201905081810360008301526150778161503b565b9050919050565b7f7573657220616c72656164792065786973740000000000000000000000000000600082015250565b60006150b4601283613ae5565b91506150bf8261507e565b602082019050919050565b600060208201905081810360008301526150e3816150a7565b9050919050565b7f557365722063726561746564207375636365737366756c6c7900000000000000600082015250565b6000615120601983613ae5565b915061512b826150ea565b602082019050919050565b6000606082019050818103600083015261514f81615113565b905061515e6020830185613c2a565b61516b6040830184613ab0565b9392505050565b7f45524337323155524953746f726167653a2055524920717565727920666f722060008201527f6e6f6e6578697374656e7420746f6b656e000000000000000000000000000000602082015250565b60006151ce603183613ae5565b91506151d982615172565b604082019050919050565b600060208201905081810360008301526151fd816151c1565b9050919050565b60006152108285614d88565b915061521c8284614d88565b91508190509392505050565b7f63616c6c6572206d75737420626520616e2061646d696e000000000000000000600082015250565b600061525e601783613ae5565b915061526982615228565b602082019050919050565b6000602082019050818103600083015261528d81615251565b9050919050565b7f73656c6c6572207665726966696564207375636365737366756c6c7900000000600082015250565b60006152ca601c83613ae5565b91506152d582615294565b602082019050919050565b600060408201905081810360008301526152f9816152bd565b90506153086020830184613c2a565b92915050565b7f75736572206973206e6f7420612073656c6c6572000000000000000000000000600082015250565b6000615344601483613ae5565b915061534f8261530e565b602082019050919050565b6000602082019050818103600083015261537381615337565b9050919050565b7f4552433732313a206f70657261746f7220717565727920666f72206e6f6e657860008201527f697374656e7420746f6b656e0000000000000000000000000000000000000000602082015250565b60006153d6602c83613ae5565b91506153e18261537a565b604082019050919050565b60006020820190508181036000830152615405816153c9565b9050919050565b7f4552433732313a207472616e73666572206f6620746f6b656e2074686174206960008201527f73206e6f74206f776e0000000000000000000000000000000000000000000000602082015250565b6000615468602983613ae5565b91506154738261540c565b604082019050919050565b600060208201905081810360008301526154978161545b565b9050919050565b7f4552433732313a207472616e7366657220746f20746865207a65726f2061646460008201527f7265737300000000000000000000000000000000000000000000000000000000602082015250565b60006154fa602483613ae5565b91506155058261549e565b604082019050919050565b60006020820190508181036000830152615529816154ed565b9050919050565b7f4552433732313a206d696e7420746f20746865207a65726f2061646472657373600082015250565b6000615566602083613ae5565b915061557182615530565b602082019050919050565b6000602082019050818103600083015261559581615559565b9050919050565b7f4552433732313a20746f6b656e20616c7265616479206d696e74656400000000600082015250565b60006155d2601c83613ae5565b91506155dd8261559c565b602082019050919050565b60006020820190508181036000830152615601816155c5565b9050919050565b7f45524337323155524953746f726167653a2055524920736574206f66206e6f6e60008201527f6578697374656e7420746f6b656e000000000000000000000000000000000000602082015250565b6000615664602e83613ae5565b915061566f82615608565b604082019050919050565b6000602082019050818103600083015261569381615657565b9050919050565b7f4552433732313a207472616e7366657220746f206e6f6e20455243373231526560008201527f63656976657220696d706c656d656e7465720000000000000000000000000000602082015250565b60006156f6603283613ae5565b91506157018261569a565b604082019050919050565b60006020820190508181036000830152615725816156e9565b9050919050565b7f4552433732314d657461646174613a2055524920717565727920666f72206e6f60008201527f6e6578697374656e7420746f6b656e0000000000000000000000000000000000602082015250565b6000615788602f83613ae5565b91506157938261572c565b604082019050919050565b600060208201905081810360008301526157b78161577b565b9050919050565b600081519050919050565b600082825260208201905092915050565b60006157e5826157be565b6157ef81856157c9565b93506157ff818560208601613af6565b61580881613b29565b840191505092915050565b60006080820190506158286000830187613c2a565b6158356020830186613c2a565b6158426040830185613cc0565b818103606083015261585481846157da565b905095945050505050565b60008151905061586e81613a4b565b92915050565b60006020828403121561588a57615889613a15565b5b60006158988482850161585f565b91505092915050565b7f4e487b7100000000000000000000000000000000000000000000000000000000600052601260045260246000fd5b60006158db82613b95565b91506158e683613b95565b9250826158f6576158f56158a1565b5b828204905092915050565b600061590c82613b95565b915061591783613b95565b925082615927576159266158a1565b5b82820690509291505056fea2646970667358221220ec7db02aa953e93ccc218b9115c2bf854f2e76b4cfce2d19c5ad8836e793802d64736f6c634300080a0033",
  "immutableReferences": {},
  "source": "// SPDX-License-Identifier: MIT\npragma solidity >=0.4.22 <0.9.0;  \nimport \"@openzeppelin/contracts/token/ERC721/extensions/ERC721URIStorage.sol\";\nimport \"@openzeppelin/contracts/utils/Counters.sol\";\nimport \"./SafeMath.sol\";\nimport \"./Ownable.sol\";\n\ncontract VintageShop is ERC721URIStorage, Ownable {\n  using SafeMath for uint256;\n  using SafeMath for uint16;\n  using Counters for Counters.Counter;\n\n  // a variable to keep track of all the tokens we have issued\n  Counters.Counter private _tokenIds;\n  ERC721 public nftAddress;\n  uint256[] carsForsale;\n\n  address payable public admin; //addres of the admin\n\n  constructor()  ERC721(\"VintageCarAsset\", \"VCA\"){\n    admin = payable(owner());\n    \n    \n  }\n  //a mapping for all IPFSHashes associated with a unique token\n  mapping(string => uint8) hashes;\n\n  uint8 private _VintangeShopMinimumCommision;\n  //mappings\n\n  //each car owner has anuni\n  mapping (uint => bytes32) carToHash; \n\n  // every user should have ab address\n  mapping (address => User) users;\n\n  // the list of cars indexed by car hash -> numerical id\n  mapping (bytes32 => uint) private carHashes;\n\n  // list of cars bought by users [buyers]\n  mapping (address => uint256[]) private boughtTokens;\n    \n  // lists of cars owned by users [sellers]\n  mapping (address => uint256[]) private ownedTokens;\n\n  mapping(address => Car[]) public carDatabase;\n\n  mapping(uint256 => Car) public carToken;\n\n  mapping(uint256=> Car) mappedDetails;\n\n  // <enum State: ForSale, Sold, Shipped, Received>\n  // the state tells the current state of the car \n  enum State {ForSale, Sold, Shipped, Received}\n\n  // all users can buy  and sell but needs admin approval to be a seller\n  struct User {\n    address userAddress; \n    bool isSeller; // is the user a seller or a buyer\n    bool isSellerVerified; //a user can be verified as a seller by the admin\n    uint8 userExists; //each user is assigned an id\n  }\n\n\n  struct Car {\n    uint256 tokenId; // nftID id of the car \n    uint carId; //id of the car\n    address payable owner; //address of the vintage car owner to receive funds after pament is being made\n    string name; // name of the car\n    string model; //model or year of the car\n    string carUrl; //imageurl of the car\n    uint price; // price of the car\n    State state;\n    uint120  purchasedCount; //number of car purchases\n\n  }  \n  \n  \n\n  //events\n    //user creation\n    event UserCreated(string message, address _userAddress, bool _isSeller);\n\n    //approve a user as a seller\n    event SellerVerified(string message, address _userAddress);\n\n    //logforsale for car added\n    event ForSale(string message, uint _carId, address seller);\n\n    //check if user exists or is a new user\n    event UserExists(string message);\n\n    //emits when the users is a new user\n    event NewUser(string message);\n\n    event Sold(string message, uint _carId, address buyer);\n\n    event Minted(string message , uint _tokenId);\n\n    event Received(address buyer, uint _tokenId, uint amount, uint balance);\n\n    event Sent(address seller, uint256 amount, uint256 balance);\n\n  //modifiers\n  //verify that the caller of the function is an admin\n  modifier isAdmin(address _address){\n    require(_address == admin, \"caller must be an admin\");\n    _;\n  }\n\n  //verify if the caller of the function is an admin or user;\n   /** \n     * @dev checks if the caller is a user or an admin\n     * @param _address Is new user a car owner?\n     */\n  modifier isUserOrAdmin(address _address){\n    require(_address == admin || users[_address].userExists == 1, \"user does not exist\");\n    _;\n  }\n\n   /** \n     * @dev checks is seller is verified to sell\n     * @param _address Is new user a car owner?\n     */\n  modifier IsSellerVerified(address _address){\n    require(users[_address].isSeller && users[_address].isSellerVerified, \"user is not a seller or is not verified\" );\n    _;\n  }\n\n  /** \n     * @dev checks the owner of the token is the caller\n     * @param _tokenId Id of the token\n     */\n     modifier VerifyNFTOwner(uint256 _tokenId){\n      require(ownerOf(_tokenId) == msg.sender);\n      _;\n     }\n\n      /** \n     * @dev checks the buyer has enough money to buy the Car\n     * @param _tokenId Id of the token to get exact price of the token\n     */\n     modifier hasEnough(uint256 _tokenId){\n      address seller = ownerOf(_tokenId);\n       uint sellerPrice = carToken[_tokenId].price;\n      //  console.log(\"sellerPrice\", sellerPrice);\n       require(msg.value >= sellerPrice);  \n       _;\n     }\n\n      /** \n     * @dev checks the value is higher than the price and refunds the buyer is there is an extra\n     * @param _tokenId Id of the token to get exact price of the token\n     */\n     modifier checkValue(uint256 _tokenId) {\n      //refund them after pay for NFT (why it is before, _ checks for logic before func)\n      _;\n      address seller = ownerOf(_tokenId);\n      uint _price = carToken[_tokenId].price;\n      uint amountToRefund = msg.value - _price;\n      address payable buyer = payable(msg.sender);\n      buyer.transfer(amountToRefund);\n    }\n\n     /** \n     * @dev Checks if user exists in Bookshop record\n     * @param userAddress Address of user\n     */\n     modifier userExists(address userAddress){\n      require(users[userAddress].userExists == 1, \"user does not exist\");\n      _;\n  }\n\n\n\n\n\n\n\n  //functions\n\n   /** \n     * @dev Registers new user\n     * @param _isSeller Is new user a car owner?\n     */\n  function addUser(bool _isSeller) external returns (bool){\n    require(users[msg.sender].userExists == 0, \"user already exist\");\n      bool _isSellerVerified = false;\n      uint8 _userExists = 1;\n      users[msg.sender] = User({\n        userAddress: msg.sender,\n        isSeller: _isSeller,\n        isSellerVerified:_isSellerVerified,\n        userExists: _userExists\n      });\n\n      emit UserCreated(\"User created successfully\", msg.sender, _isSeller);\n\n      return true;\n  }\n\n   /** \n     * @dev Admin verifies a user by assigning isSeller verified to a seller\n     * @param _userAddress Is new user a car owner?\n     */\n  function assignAsSeller(address _userAddress) isAdmin(msg.sender) external {\n    if(users[_userAddress].isSeller){\n      User storage user = users[_userAddress];\n      user.isSellerVerified = true;\n\n      emit SellerVerified(\"seller verified successfully\", _userAddress);\n    }\n    else{\n      revert(\"user is not a seller\");\n    }\n  }\n\n  /** \n     * @dev Seller Mints vintage car as NFT after being verified as seller by the admin for particul\n     * @param recipient address of the seller minting the NFT\n     * @param hash IPFS Hash of car\n     * @param metadata IPFurl of car hash\n     */\n     function awardItem(address recipient, string memory hash, string memory metadata)\n      IsSellerVerified(recipient) external\n        returns (uint256)\n      {\n        require(hashes[hash] != 1);\n        hashes[hash] = 1;\n        _tokenIds.increment();\n        uint256 newItemId = _tokenIds.current();\n        _mint(recipient, newItemId);\n        _setTokenURI(newItemId, metadata);\n        emit Minted(\"NFT minted successfully\", newItemId);\n\n        return newItemId;\n}\n\n  /** \n     * @dev Seller Puts the NFT up forsale\n     * @param _tokenId Token to be Sold\n     * @param price price the seller wants to sell\n     * @param name Name of the car the seller wants to sell\n     * @param model model of the car the seller wants to sell\n     */\n     function addNFT(uint256 _tokenId, uint price, string memory name, string memory model, string memory url)\n      IsSellerVerified(msg.sender) VerifyNFTOwner(_tokenId) external{\n        require(ownerOf(_tokenId) == msg.sender, \"Only token owner can put up token for sell\");\n        setApprovalForAll(address(this), true);\n        ownedTokens[msg.sender].push(_tokenId);\n        uint newCarId = carDatabase[msg.sender].length + 1;\n        \n        carToken[_tokenId].price = price;\n        mappedDetails[newCarId] = Car({\n          tokenId: _tokenId,\n          carId: newCarId,\n          price: price,\n          name: name,\n          carUrl: url,\n          model: model,\n          state: State.ForSale,\n          owner: payable(msg.sender),\n          purchasedCount: 0\n        });\n        carsForsale.push(_tokenId);\n        emit ForSale(\"Car For sale\", newCarId, msg.sender);\n\n\n      \n     } \n\n       /** \n     * @dev Seller tranfers ownership token to the buyer\n     * @param from address of the seller\n     * @param to address of buyer\n     * @param tokenId Id of the token being sold\n     */\n\n      function transferFrom(\n        address from,\n        address to,\n        uint256 tokenId\n      ) public virtual override {\n          //solhint-disable-next-line max-line-length\n          require(_isApprovedOrOwner(address(this), tokenId), \"ERC721: transfer caller is not owner nor approved\");\n\n          _transfer(from, to, tokenId);\n      }\n\n\n      /** \n     * @dev Buyer buys the NFT up forsale\n     * @dev the state is updated to sold\n     * @param tokenId Token to be Sold\n\n     */\n     function purchaseNFT (uint256 tokenId)\n      isUserOrAdmin(msg.sender) hasEnough(tokenId) checkValue(tokenId) payable external {\n        address payable seller = payable(ownerOf(tokenId));\n        uint _price = carToken[tokenId].price;\n        admin.transfer(_price);\n        transferFrom(seller, msg.sender, tokenId);\n        boughtTokens[msg.sender].push(tokenId);\n        // carDatabase[seller][tokenId].state = State.Sold;\n        emit Received(msg.sender, tokenId, msg.value, address(this).balance);\n\n     }\n\n    //  functi  on getCarPrice(uint)\n\n    \n    /**\n    * @dev send / withdraw _amount to seller\n    */\n    function sendTo(address payable _seller, uint256 _amount) public onlyOwner {\n      require(_seller != address(0) && _seller != address(this));\n      require(_amount > 0 && _amount <= address(this).balance);\n      _seller.transfer(_amount);\n      emit Sent(_seller, _amount, address(this).balance);\n      }\n  \n\n        /**\n    * @dev gets the cars forsale\n    */ \n      function getCarForSale() public view returns(Car[] memory ){\n        Car[] memory details = new Car[](carsForsale.length);\n\n        for(uint256 x=0;x<carsForsale.length;x++){\n          details[x] = mappedDetails[carsForsale[x]];\n        }\n     \n      return details;\n      }\n        /**\n     * @dev requests for tokens paid for by an existion user\n     */\n      function getPurchasedTokens(address _user) userExists(_user) view public returns(uint256[] memory _boughtTokens ){\n        _boughtTokens = boughtTokens[_user];\n      }\n      \n          /**\n     * @dev requests for tokens owned by an existion user\n     */\n     function getOwnedTokens(address _user) userExists(_user) view public returns(uint256[] memory _ownedTokens ){\n      _ownedTokens = ownedTokens[_user];\n    }\n\n         /**\n     * @dev Checks if User exists before signing in user \n     */\n    function checkUser() view external returns (bool _exists) {\n      if(users[msg.sender].userExists == 1){\n        _exists = true;\n      } else{\n        _exists = false;\n        // emit NewUser(\"this is a new user\");\n      }\n      return _exists;\n      \n    }\n\n      /**\n     * @dev Verify/Authenticate Admin\n     */\n    function getAdmin() view external returns (bool _isAuth, bool _isAdmin ) {\n      _isAuth = true;\n      if(msg.sender == admin){\n        _isAdmin = true;\n      }\n     \n    }\n  \n\n  \n}\n",
  "sourcePath": "/home/thobby/academy/thobby/blockchain-developer-bootcamp-final-project/contracts/VintageShop.sol",
  "compiler": {
    "name": "solc",
    "version": "0.8.10+commit.fc410830.Emscripten.clang"
  },
  "schemaVersion": "3.4.3",
  "updatedAt": "2021-11-16T20:47:51.867Z",
  "networkType": "ethereum",
  "devdoc": {
    "kind": "dev",
    "methods": {
      "addNFT(uint256,uint256,string,string,string)": {
        "details": "Seller Puts the NFT up forsale",
        "params": {
          "_tokenId": "Token to be Sold",
          "model": "model of the car the seller wants to sell",
          "name": "Name of the car the seller wants to sell",
          "price": "price the seller wants to sell"
        }
      },
      "addUser(bool)": {
        "details": "Registers new user",
        "params": {
          "_isSeller": "Is new user a car owner?"
        }
      },
      "approve(address,uint256)": {
        "details": "See {IERC721-approve}."
      },
      "assignAsSeller(address)": {
        "details": "Admin verifies a user by assigning isSeller verified to a seller",
        "params": {
          "_userAddress": "Is new user a car owner?"
        }
      },
      "awardItem(address,string,string)": {
        "details": "Seller Mints vintage car as NFT after being verified as seller by the admin for particul",
        "params": {
          "hash": "IPFS Hash of car",
          "metadata": "IPFurl of car hash",
          "recipient": "address of the seller minting the NFT"
        }
      },
      "balanceOf(address)": {
        "details": "See {IERC721-balanceOf}."
      },
      "checkUser()": {
        "details": "Checks if User exists before signing in user "
      },
      "getAdmin()": {
        "details": "Verify/Authenticate Admin"
      },
      "getApproved(uint256)": {
        "details": "See {IERC721-getApproved}."
      },
      "getCarForSale()": {
        "details": "gets the cars forsale"
      },
      "getOwnedTokens(address)": {
        "details": "requests for tokens owned by an existion user"
      },
      "getPurchasedTokens(address)": {
        "details": "requests for tokens paid for by an existion user"
      },
      "isApprovedForAll(address,address)": {
        "details": "See {IERC721-isApprovedForAll}."
      },
      "isOwner()": {
        "returns": {
          "_0": "true if `msg.sender` is the owner of the contract."
        }
      },
      "name()": {
        "details": "See {IERC721Metadata-name}."
      },
      "owner()": {
        "returns": {
          "_0": "the address of the owner."
        }
      },
      "ownerOf(uint256)": {
        "details": "See {IERC721-ownerOf}."
      },
      "purchaseNFT(uint256)": {
        "details": "Buyer buys the NFT up forsalethe state is updated to sold",
        "params": {
          "tokenId": "Token to be Sold"
        }
      },
      "renounceOwnership()": {
        "details": "Allows the current owner to relinquish control of the contract."
      },
      "safeTransferFrom(address,address,uint256)": {
        "details": "See {IERC721-safeTransferFrom}."
      },
      "safeTransferFrom(address,address,uint256,bytes)": {
        "details": "See {IERC721-safeTransferFrom}."
      },
      "sendTo(address,uint256)": {
        "details": "send / withdraw _amount to seller"
      },
      "setApprovalForAll(address,bool)": {
        "details": "See {IERC721-setApprovalForAll}."
      },
      "supportsInterface(bytes4)": {
        "details": "See {IERC165-supportsInterface}."
      },
      "symbol()": {
        "details": "See {IERC721Metadata-symbol}."
      },
      "tokenURI(uint256)": {
        "details": "See {IERC721Metadata-tokenURI}."
      },
      "transferFrom(address,address,uint256)": {
        "details": "Seller tranfers ownership token to the buyer",
        "params": {
          "from": "address of the seller",
          "to": "address of buyer",
          "tokenId": "Id of the token being sold"
        }
      },
      "transferOwnership(address)": {
        "details": "Allows the current owner to transfer control of the contract to a newOwner.",
        "params": {
          "newOwner": "The address to transfer ownership to."
        }
      }
    },
    "version": 1
  },
  "userdoc": {
    "kind": "user",
    "methods": {
      "renounceOwnership()": {
        "notice": "Renouncing to ownership will leave the contract without an owner. It will not be possible to call the functions with the `onlyOwner` modifier anymore."
      }
    },
    "version": 1
  }
}